{"abi":[{"type":"constructor","inputs":[{"name":"implementation_","type":"address","internalType":"address"},{"name":"owner_","type":"address","internalType":"address"}],"stateMutability":"nonpayable"},{"type":"function","name":"ACCOUNT_IMPLEMENTATION","inputs":[],"outputs":[{"name":"","type":"address","internalType":"address"}],"stateMutability":"view"},{"type":"function","name":"addStake","inputs":[{"name":"epAddress","type":"address","internalType":"address"},{"name":"unstakeDelaySec","type":"uint32","internalType":"uint32"}],"outputs":[],"stateMutability":"payable"},{"type":"function","name":"cancelOwnershipHandover","inputs":[],"outputs":[],"stateMutability":"payable"},{"type":"function","name":"completeOwnershipHandover","inputs":[{"name":"pendingOwner","type":"address","internalType":"address"}],"outputs":[],"stateMutability":"payable"},{"type":"function","name":"computeAccountAddress","inputs":[{"name":"initData","type":"bytes","internalType":"bytes"},{"name":"salt","type":"bytes32","internalType":"bytes32"}],"outputs":[{"name":"expectedAddress","type":"address","internalType":"address payable"}],"stateMutability":"view"},{"type":"function","name":"createAccount","inputs":[{"name":"initData","type":"bytes","internalType":"bytes"},{"name":"salt","type":"bytes32","internalType":"bytes32"}],"outputs":[{"name":"","type":"address","internalType":"address payable"}],"stateMutability":"payable"},{"type":"function","name":"owner","inputs":[],"outputs":[{"name":"result","type":"address","internalType":"address"}],"stateMutability":"view"},{"type":"function","name":"ownershipHandoverExpiresAt","inputs":[{"name":"pendingOwner","type":"address","internalType":"address"}],"outputs":[{"name":"result","type":"uint256","internalType":"uint256"}],"stateMutability":"view"},{"type":"function","name":"renounceOwnership","inputs":[],"outputs":[],"stateMutability":"payable"},{"type":"function","name":"requestOwnershipHandover","inputs":[],"outputs":[],"stateMutability":"payable"},{"type":"function","name":"transferOwnership","inputs":[{"name":"newOwner","type":"address","internalType":"address"}],"outputs":[],"stateMutability":"payable"},{"type":"function","name":"unlockStake","inputs":[{"name":"epAddress","type":"address","internalType":"address"}],"outputs":[],"stateMutability":"nonpayable"},{"type":"function","name":"withdrawStake","inputs":[{"name":"epAddress","type":"address","internalType":"address"},{"name":"withdrawAddress","type":"address","internalType":"address payable"}],"outputs":[],"stateMutability":"nonpayable"},{"type":"event","name":"AccountCreated","inputs":[{"name":"account","type":"address","indexed":true,"internalType":"address"},{"name":"initData","type":"bytes","indexed":false,"internalType":"bytes"},{"name":"salt","type":"bytes32","indexed":true,"internalType":"bytes32"}],"anonymous":false},{"type":"event","name":"OwnershipHandoverCanceled","inputs":[{"name":"pendingOwner","type":"address","indexed":true,"internalType":"address"}],"anonymous":false},{"type":"event","name":"OwnershipHandoverRequested","inputs":[{"name":"pendingOwner","type":"address","indexed":true,"internalType":"address"}],"anonymous":false},{"type":"event","name":"OwnershipTransferred","inputs":[{"name":"oldOwner","type":"address","indexed":true,"internalType":"address"},{"name":"newOwner","type":"address","indexed":true,"internalType":"address"}],"anonymous":false},{"type":"error","name":"AlreadyInitialized","inputs":[]},{"type":"error","name":"EthTransferFailed","inputs":[]},{"type":"error","name":"ImplementationAddressCanNotBeZero","inputs":[]},{"type":"error","name":"InvalidEntryPointAddress","inputs":[]},{"type":"error","name":"NewOwnerIsZeroAddress","inputs":[]},{"type":"error","name":"NoHandoverRequest","inputs":[]},{"type":"error","name":"Unauthorized","inputs":[]},{"type":"error","name":"ZeroAddressNotAllowed","inputs":[]}],"bytecode":{"object":"0x60a0346100ed57601f610d3838819003918201601f19168301916001600160401b038311848410176100f15780849260409485528339810103126100ed5761004681610105565b906001600160a01b039061005c90602001610105565b1680638b78c6d819547f8be0079c531659141344cd1fd0a4f28419497f9722a3daafe3b4186f6b6457e05f80a3638b78c6d8198190556001600160a01b038216156100de57156100cf57608052604051610c1e908161011a8239608051818181610102015281816101d201526106620152f35b6342bcdf7f60e11b5f5260045ffd5b630abd577760e01b5f5260045ffd5b5f80fd5b634e487b7160e01b5f52604160045260245ffd5b51906001600160a01b03821682036100ed5756fe60806040526004361015610011575f80fd5b5f5f3560e01c80632569296214610686578063290ab98414610643578063451711591461058b5780634a1ce5991461051057806354d1f13d146104ca578063715018a61461047f5780638da5cb5b14610454578063b36f97051461038b578063ea6d13ac146101c4578063f04e283e14610176578063f2fde38b14610137578063fafa2b42146100de5763fee81cf4146100a9575f80fd5b346100db5760203660031901126100db576100c26106cf565b9063389a75e1600c5252602080600c2054604051908152f35b80fd5b50346100db5760206101266100ff6100f5366106e5565b929190369161078c565b907f0000000000000000000000000000000000000000000000000000000000000000610863565b6001600160a01b0360405191168152f35b5060203660031901126100db5761014c6106cf565b6101546107c2565b8060601b1561016957610166906107de565b80f35b637448fbae82526004601cfd5b5060203660031901126100db5761018b6106cf565b6101936107c2565b63389a75e1600c528082526020600c20805442116101b757908261016692556107de565b636f5e881883526004601cfd5b506101ce366106e5565b90917f0000000000000000000000000000000000000000000000000000000000000000926101fd36828461078c565b6001600160a01b03610210828688610863565b1694853b1591821561031b5761025561024791604051928391634b6a141960e01b602084015260206024840152604483019061081c565b03601f19810183528261073a565b604051916102aa8084019084821067ffffffffffffffff8311176103075792849392610288928a96946109688639610840565b039034f5156102fc57906020958593925b6102a8575b8684604051908152f35b7f47e5b5fc3bda028416e26dcf66ca5186488c0717e8ab55bb01806113f1839d58928260409283519485938b8552818c86015285850137828201840152601f01601f19168101030190a35f8181808061029e565b6040513d87823e3d90fd5b60248b634e487b7160e01b81526041600452fd5b50508580808034895af13d15610386573d61033581610770565b90610343604051928361073a565b81528760203d92013e5b1561035e5790602095859392610299565b6004867f6d963f88000000000000000000000000000000000000000000000000000000008152fd5b61034d565b50346100db5760403660031901126100db576103a56106cf565b90602435916001600160a01b038316809303610450576001600160a01b03906103cc6107c2565b168015610441578192813b1561043d5782916024839260405194859384927fc23a5cea00000000000000000000000000000000000000000000000000000000845260048401525af18015610432576104215750f35b8161042b9161073a565b6100db5780f35b6040513d84823e3d90fd5b5050fd5b6004826391fdf19160e01b8152fd5b5080fd5b50346100db57806003193601126100db576020638b78c6d819546001600160a01b0360405191168152f35b50806003193601126100db576104936107c2565b80638b78c6d819547f8be0079c531659141344cd1fd0a4f28419497f9722a3daafe3b4186f6b6457e08280a380638b78c6d8195580f35b50806003193601126100db5763389a75e1600c52338152806020600c2055337ffa7b8eab7da67f412cc9575ed43464468f9bfbae89d1675917346ca6d8fe3c928280a280f35b50346100db5760203660031901126100db576001600160a01b036105326106cf565b61053a6107c2565b168015610441578082913b15610588578180916004604051809481937fbb9fe6bf0000000000000000000000000000000000000000000000000000000083525af18015610432576104215750f35b50fd5b506040366003190112610630576105a06106cf565b6024359063ffffffff8216809203610630576001600160a01b03906105c36107c2565b1690811561063457813b15610630575f906024604051809481937f0396cb60000000000000000000000000000000000000000000000000000000008352600483015234905af1801561062557610617575080f35b61062391505f9061073a565b005b6040513d5f823e3d90fd5b5f80fd5b6391fdf19160e01b5f5260045ffd5b34610630575f3660031901126106305760206040516001600160a01b037f0000000000000000000000000000000000000000000000000000000000000000168152f35b5f3660031901126106305763389a75e1600c52335f526202a30042016020600c2055337fdbf36a107da19e49527a7176a1babf963b4b0ff8cde35ee35d6cd8f1f9ac7e1d5f80a2005b600435906001600160a01b038216820361063057565b9060406003198301126106305760043567ffffffffffffffff811161063057826023820112156106305780600401359267ffffffffffffffff8411610630576024848301011161063057602401919060243590565b90601f8019910116810190811067ffffffffffffffff82111761075c57604052565b634e487b7160e01b5f52604160045260245ffd5b67ffffffffffffffff811161075c57601f01601f191660200190565b92919261079882610770565b916107a6604051938461073a565b829481845281830111610630578281602093845f960137010152565b638b78c6d8195433036107d157565b6382b429005f526004601cfd5b6001600160a01b031680638b78c6d819547f8be0079c531659141344cd1fd0a4f28419497f9722a3daafe3b4186f6b6457e05f80a3638b78c6d81955565b805180835260209291819084018484015e5f828201840152601f01601f1916010190565b6040906001600160a01b036108609493168152816020820152019061081c565b90565b916108d061090f6001600160a01b039460206102aa916108de6102476108c0604051986108928688018b61073a565b868a52858a01966109688839604051928391634b6a141960e01b88840152876024840152604483019061081c565b6040519687918583019485610840565b03601f19810187528661073a565b60405194859383850197518091895e840190838201905f8252519283915e01015f815203601f19810183528261073a565b5190206040519060208201927fff0000000000000000000000000000000000000000000000000000000000000084523060601b6021840152603583015260558201526055815261096060758261073a565b519020169056fe60806040526102aa803803806100148161018c565b92833981016040828203126101885781516001600160a01b03811692909190838303610188576020810151906001600160401b03821161018857019281601f8501121561018857835161006e610069826101c5565b61018c565b9481865260208601936020838301011161018857815f926020809301865e8601015260017f90b772c2cb8a51aa7a8a65fc23543c6d022d5b3f8e2b92eed79fba7eef8293005d823b15610176577f360894a13ba1a3210667c828492db98dca3e2076cc3735a920a3ca505d382bbc80546001600160a01b031916821790557fbc7cd75a20ee27fd9adebab32041f755214dbc6bffa90cc0225b39da2e5c2d3b5f80a282511561015e575f8091610146945190845af43d15610156573d91610137610069846101c5565b9283523d5f602085013e6101e0565b505b604051606b908161023f8239f35b6060916101e0565b50505034156101485763b398979f60e01b5f5260045ffd5b634c9c8ce360e01b5f5260045260245ffd5b5f80fd5b6040519190601f01601f191682016001600160401b038111838210176101b157604052565b634e487b7160e01b5f52604160045260245ffd5b6001600160401b0381116101b157601f01601f191660200190565b9061020457508051156101f557805190602001fd5b630a12f52160e11b5f5260045ffd5b81511580610235575b610215575090565b639996b31560e01b5f9081526001600160a01b0391909116600452602490fd5b50803b1561020d56fe60806040523615605c575f8073ffffffffffffffffffffffffffffffffffffffff7f360894a13ba1a3210667c828492db98dca3e2076cc3735a920a3ca505d382bbc5416368280378136915af43d5f803e156058573d5ff35b3d5ffd5b00fea164736f6c634300081b000aa164736f6c634300081b000a","linkReferences":{}},"methodIdentifiers":{"ACCOUNT_IMPLEMENTATION()":"290ab984","addStake(address,uint32)":"45171159","cancelOwnershipHandover()":"54d1f13d","completeOwnershipHandover(address)":"f04e283e","computeAccountAddress(bytes,bytes32)":"fafa2b42","createAccount(bytes,bytes32)":"ea6d13ac","owner()":"8da5cb5b","ownershipHandoverExpiresAt(address)":"fee81cf4","renounceOwnership()":"715018a6","requestOwnershipHandover()":"25692962","transferOwnership(address)":"f2fde38b","unlockStake(address)":"4a1ce599","withdrawStake(address,address)":"b36f9705"},"id":37}