{"abi":[{"type":"function","name":"addSafeSender","inputs":[{"name":"sender","type":"address","internalType":"address"}],"outputs":[],"stateMutability":"nonpayable"},{"type":"function","name":"getOwner","inputs":[{"name":"smartAccount","type":"address","internalType":"address"}],"outputs":[{"name":"","type":"address","internalType":"address"}],"stateMutability":"view"},{"type":"function","name":"isInitialized","inputs":[{"name":"smartAccount","type":"address","internalType":"address"}],"outputs":[{"name":"","type":"bool","internalType":"bool"}],"stateMutability":"view"},{"type":"function","name":"isModuleType","inputs":[{"name":"typeId","type":"uint256","internalType":"uint256"}],"outputs":[{"name":"","type":"bool","internalType":"bool"}],"stateMutability":"pure"},{"type":"function","name":"isSafeSender","inputs":[{"name":"sender","type":"address","internalType":"address"},{"name":"smartAccount","type":"address","internalType":"address"}],"outputs":[{"name":"","type":"bool","internalType":"bool"}],"stateMutability":"view"},{"type":"function","name":"isValidSignatureWithSender","inputs":[{"name":"sender","type":"address","internalType":"address"},{"name":"dataHash","type":"bytes32","internalType":"bytes32"},{"name":"signature","type":"bytes","internalType":"bytes"}],"outputs":[{"name":"sigValidationResult","type":"bytes4","internalType":"bytes4"}],"stateMutability":"view"},{"type":"function","name":"name","inputs":[],"outputs":[{"name":"","type":"string","internalType":"string"}],"stateMutability":"pure"},{"type":"function","name":"onInstall","inputs":[{"name":"data","type":"bytes","internalType":"bytes"}],"outputs":[],"stateMutability":"nonpayable"},{"type":"function","name":"onUninstall","inputs":[{"name":"","type":"bytes","internalType":"bytes"}],"outputs":[],"stateMutability":"nonpayable"},{"type":"function","name":"removeSafeSender","inputs":[{"name":"sender","type":"address","internalType":"address"}],"outputs":[],"stateMutability":"nonpayable"},{"type":"function","name":"smartAccountOwners","inputs":[{"name":"","type":"address","internalType":"address"}],"outputs":[{"name":"","type":"address","internalType":"address"}],"stateMutability":"view"},{"type":"function","name":"supportsNestedTypedDataSign","inputs":[],"outputs":[{"name":"result","type":"bytes32","internalType":"bytes32"}],"stateMutability":"view"},{"type":"function","name":"transferOwnership","inputs":[{"name":"newOwner","type":"address","internalType":"address"}],"outputs":[],"stateMutability":"nonpayable"},{"type":"function","name":"validateSignatureWithData","inputs":[{"name":"hash","type":"bytes32","internalType":"bytes32"},{"name":"sig","type":"bytes","internalType":"bytes"},{"name":"data","type":"bytes","internalType":"bytes"}],"outputs":[{"name":"isValidSig","type":"bool","internalType":"bool"}],"stateMutability":"view"},{"type":"function","name":"validateUserOp","inputs":[{"name":"userOp","type":"tuple","internalType":"struct PackedUserOperation","components":[{"name":"sender","type":"address","internalType":"address"},{"name":"nonce","type":"uint256","internalType":"uint256"},{"name":"initCode","type":"bytes","internalType":"bytes"},{"name":"callData","type":"bytes","internalType":"bytes"},{"name":"accountGasLimits","type":"bytes32","internalType":"bytes32"},{"name":"preVerificationGas","type":"uint256","internalType":"uint256"},{"name":"gasFees","type":"bytes32","internalType":"bytes32"},{"name":"paymasterAndData","type":"bytes","internalType":"bytes"},{"name":"signature","type":"bytes","internalType":"bytes"}]},{"name":"userOpHash","type":"bytes32","internalType":"bytes32"}],"outputs":[{"name":"vd","type":"uint256","internalType":"uint256"}],"stateMutability":"nonpayable"},{"type":"function","name":"version","inputs":[],"outputs":[{"name":"","type":"string","internalType":"string"}],"stateMutability":"pure"},{"type":"error","name":"AlreadyInitialized","inputs":[{"name":"smartAccount","type":"address","internalType":"address"}]},{"type":"error","name":"InvalidDataLength","inputs":[]},{"type":"error","name":"InvalidSignature","inputs":[]},{"type":"error","name":"InvalidTargetAddress","inputs":[{"name":"target","type":"address","internalType":"address"}]},{"type":"error","name":"ModuleAlreadyInitialized","inputs":[]},{"type":"error","name":"NewOwnerIsNotEoa","inputs":[]},{"type":"error","name":"NoOwnerProvided","inputs":[]},{"type":"error","name":"NotInitialized","inputs":[{"name":"smartAccount","type":"address","internalType":"address"}]},{"type":"error","name":"OwnerCannotBeZeroAddress","inputs":[]},{"type":"error","name":"PermitFailed","inputs":[]},{"type":"error","name":"SafeSendersLengthInvalid","inputs":[]},{"type":"error","name":"TxDecoder_CallDataLengthTooShort","inputs":[]},{"type":"error","name":"TxValidatorLib_UnsupportedTxType","inputs":[]},{"type":"error","name":"ZeroAddressNotAllowed","inputs":[]}],"bytecode":{"object":"0x60808060405234601557613884908161001a8239f35b5f80fdfe60806040526004361015610011575f80fd5b5f3560e01c806306fdde03146101145780630807dbc11461010f5780632e5b63a61461010a57806354fd4d50146101055780635c81ca68146101005780636d61fe70146100fb5780638a91b0e3146100f6578063940d3840146100f157806397003203146100ec578063d60b347f146100e7578063d620c85a146100e2578063e824b568146100dd578063ecd05961146100d8578063f2fde38b146100d3578063f551e2ee146100ce5763fa544161146100c9575f80fd5b610949565b6108e9565b610851565b610819565b6107ea565b6107b0565b610762565b610609565b610558565b6104ae565b610356565b6102c8565b610271565b61022d565b6101ca565b610151565b5f91031261012357565b5f80fd5b602060409281835280519182918282860152018484015e5f828201840152601f01601f1916010190565b34610123575f366003190112610123576101a86040516101726040826109b1565b600e81527f4b314d656556616c696461746f72000000000000000000000000000000000000602082015260405191829182610127565b0390f35b6001600160a01b0381160361012357565b35906101c8826101ac565b565b346101235760403660031901126101235760206102226004356101ec816101ac565b6001600160a01b0360243591610201836101ac565b165f526002835260405f20906001600160a01b03165f5260205260405f2090565b541515604051908152f35b34610123576020366003190112610123576001600160a01b03600435610252816101ac565b165f525f60205260206001600160a01b0360405f205416604051908152f35b34610123575f366003190112610123576101a86040516102926040826109b1565b600581527f312e302e35000000000000000000000000000000000000000000000000000000602082015260405191829182610127565b34610123576020366003190112610123576102f76001600160a01b036004356102f0816101ac565b1633611847565b005b9181601f840112156101235782359167ffffffffffffffff8311610123576020838186019501011161012357565b6020600319820112610123576004359067ffffffffffffffff821161012357610352916004016102f9565b9091565b346101235761036436610327565b90811561048657610391336001600160a01b03165f525f6020526001600160a01b0360405f205416151590565b61045e576103b16103ab6103a58484610a50565b90610ae8565b60601c90565b6103c56001600160a01b0382161515610b28565b6103ce81610dc6565b61043657610418906103f0336001600160a01b03165f525f60205260405f2090565b906001600160a01b031673ffffffffffffffffffffffffffffffffffffffff19825416179055565b6014821161042257005b816102f79261043092610a5e565b90610e73565b7fa0b6c8e9000000000000000000000000000000000000000000000000000000005f5260045ffd5b7fe72ce85e000000000000000000000000000000000000000000000000000000005f5260045ffd5b7f1f2a381c000000000000000000000000000000000000000000000000000000005f5260045ffd5b34610123576104bc36610327565b5050335f525f60205260405f2073ffffffffffffffffffffffffffffffffffffffff198154169055335f52600160205260405f20546001905b808211156104ff57005b8181039181831161055357335f52600160205260405f2080548410156105425761053690600161053c94950160051b0154336121f2565b5061192e565b906104f5565b83638277484f5f526020526024601cfd5b610ddd565b346101235760603660031901126101235760043560243567ffffffffffffffff81116101235761058c9036906004016102f9565b60443567ffffffffffffffff8111610123576105ac9036906004016102f9565b601481949294106105e157601411610123576101a8936105cf933560601c610eff565b60405190151581529081906020820190565b7fdfe93090000000000000000000000000000000000000000000000000000000005f5260045ffd5b346101235760403660031901126101235760043567ffffffffffffffff811161012357806004016101206003198336030112610123576101a89160243561010461065a61065585610b57565b610d82565b92019260046106698583610b64565b9050105f1461069f5761068261068f9461068992610b64565b3691610bcd565b90610f9f565b6040519081529081906020820190565b6001600160e01b03196106c46106be6106b88785610b64565b90610a7b565b90610b97565b16620bbf7760e91b81036106f557506106e36106f0946106ea92610b64565b8091610a89565b916115a8565b61068f565b63177eee0160e01b810361072f575080846107216107196106f09761072995610b64565b929093610b64565b929050610a89565b916114eb565b630bbf770160e11b03610752576106e36106f09461074c92610b64565b91611168565b6106826106f09461068992610b64565b346101235760203660031901126101235760206107a6600435610784816101ac565b6001600160a01b03165f525f6020526001600160a01b0360405f205416151590565b6040519015158152f35b34610123575f3660031901126101235760206040517fd620c85a000000000000000000000000000000000000000000000000000000008152f35b34610123576020366003190112610123576102f76001600160a01b03600435610812816101ac565b16336121f2565b3461012357602036600319011261012357602060043560018114908115610846575b506040519015158152f35b60079150145f61083b565b346101235760203660031901126101235760043561086e816101ac565b6001600160a01b038116156108c15761088681610dc6565b610436576102f790335f525f60205260405f20906001600160a01b031673ffffffffffffffffffffffffffffffffffffffff19825416179055565b7f8579befe000000000000000000000000000000000000000000000000000000005f5260045ffd5b3461012357606036600319011261012357600435610906816101ac565b60443560243567ffffffffffffffff82116101235760209261092f6109379336906004016102f9565b929091610c69565b6001600160e01b031960405191168152f35b3461012357602036600319011261012357602061096b600435610655816101ac565b6001600160a01b0360405191168152f35b634e487b7160e01b5f52604160045260245ffd5b6040810190811067ffffffffffffffff8211176109ac57604052565b61097c565b90601f8019910116810190811067ffffffffffffffff8211176109ac57604052565b604051906101c86101a0836109b1565b604051906101c8610120836109b1565b604051906101c860e0836109b1565b604051906101c86040836109b1565b604051906101c86080836109b1565b67ffffffffffffffff81116109ac57601f01601f191660200190565b60405190610a4b6020836109b1565b5f8252565b906014116101235790601490565b909291928360141161012357831161012357601401916013190190565b906004116101235790600490565b909291928360041161012357831161012357600401916003190190565b906003116101235790600390565b909291928360011161012357831161012357600101915f190190565b90939293848311610123578411610123578101920390565b356bffffffffffffffffffffffff19811692919060148210610b08575050565b6bffffffffffffffffffffffff1960149290920360031b82901b16169150565b15610b2f57565b7fc81abf60000000000000000000000000000000000000000000000000000000005f5260045ffd5b35610b61816101ac565b90565b903590601e1981360301821215610123570180359067ffffffffffffffff82116101235760200191813603831361012357565b919091356001600160e01b031981169260048110610bb3575050565b6001600160e01b0319929350829060040360031b1b161690565b929192610bd982610a20565b91610be760405193846109b1565b829481845281830111610123578281602093845f960137010152565b919091357fffffff000000000000000000000000000000000000000000000000000000000081169260038110610c37575050565b7fffffff0000000000000000000000000000000000000000000000000000000000929350829060030360031b1b161690565b909183158015610d3e575b15610c8e57610b6193610c8691611683565b9290916116b5565b9050826001600160e01b0319610caa6106be610cde9685610a7b565b16630bbf770160e11b8114908115610d2d575b50610d13575b610cd690610cd033610d82565b92611683565b929091610eff565b15610d07577f1626ba7e0000000000000000000000000000000000000000000000000000000090565b6001600160e01b031990565b6040519283523360601b6020840152603490922091610cc3565b63177eee0160e01b9150145f610cbd565b50620bbf7760e91b7fffffff0000000000000000000000000000000000000000000000000000000000610d7a610d748785610aa6565b90610c03565b161415610c74565b6001600160a01b0381165f525f6020526001600160a01b0360405f20541680155f14610dac575090565b905090565b6001600160a01b03610b6192169060016118ce565b3b8015159081610dd4575090565b60179150141590565b634e487b7160e01b5f52601160045260245ffd5b8115610dfb570490565b634e487b7160e01b5f52601260045260245ffd5b908160051b918083046020149015171561055357565b908160081b91808304610100149015171561055357565b906001820180921161055357565b90601b820180921161055357565b906037820180921161055357565b9190820180921161055357565b9060148106610ed7575f5b601482048110610e8d57505050565b806014029060148204810361055357610ea581610e3c565b8060140290601482040361055357610eca6103ab6103a5610ed093600196888a610ad0565b33610db1565b5001610e7e565b7f1c6b73d6000000000000000000000000000000000000000000000000000000005f5260045ffd5b91929092816004116101235780356001600160e01b031916620bbf7760e91b8103610f3d575081610b61949392610f3592610a89565b929091611cb2565b63177eee0160e01b8103610f64575081610b61949392610f5c92610a89565b929091611b43565b630bbf770160e11b03610f895781610b61949392610f8192610a89565b929091611a86565b610f9990610b6194923691610bcd565b91611d00565b610fa892611d00565b15610fb1575f90565b600190565b3590811515820361012357565b359065ffffffffffff8216820361012357565b60ff81160361012357565b35906101c882610fd6565b67ffffffffffffffff81116109ac5760051b60200190565b92919061101081610fec565b9361101e60405195866109b1565b602085838152019160051b810192831161012357905b82821061104057505050565b8135815260209182019101611034565b9080601f8301121561012357816020610b6193359101611004565b6101a0813603126101235761107e6109d3565b90611088816101bd565b8252611096602082016101bd565b60208301526040810135604083015260608101356060830152608081013560808301526110c560a08201610fb6565b60a083015260c081013560c08301526110e060e08201610fc3565b60e08301526110f26101008201610fc3565b6101008301526111056101208201610fe1565b6101208301526101408101356101408301526101608101356101608301526101808101359067ffffffffffffffff82116101235761114591369101611050565b61018082015290565b6040513d5f823e3d90fd5b90816020910312610123575190565b9291506111779060200161106b565b60e08101916111d46111cb611192855165ffffffffffff1690565b61010085019665ffffffffffff806111b08a5165ffffffffffff1690565b16921691606092604051928352602083015260408201522090565b5f5260205f2090565b6111de8383611d6b565b92610140810180519061125261124e61016085019788519061124861012088019661123a61120d895160ff1690565b6040519586936020850191926041936001600160f81b0319928452602084015260f81b1660408201520190565b03601f1981018452836109b1565b88611d00565b1590565b6114de5761127061124e6101808501519560c0860196875190611e22565b6114de5760a08301516112c8575b5050505050506112a761129a610b61935165ffffffffffff1690565b915165ffffffffffff1690565b6001600160d01b031965ffffffffffff60a01b9160d01b169160a01b161790565b6112e86112dc84516001600160a01b031690565b6001600160a01b031690565b9360208401946112ff86516001600160a01b031690565b60608601986113138a519451965160ff1690565b9451905190833b15610123576113965f96928b9288946040519a8b998a9889977fd505accf000000000000000000000000000000000000000000000000000000008952600489019360c09591989796936001600160a01b0360ff948160e089019c1688521660208701526040860152606085015216608083015260a08201520152565b03925af190816114c4575b506114b157916020916113d96113cb6112dc6112dc6112dc6114269998516001600160a01b031690565b91516001600160a01b031690565b6040517fdd62ed3e0000000000000000000000000000000000000000000000000000000081526001600160a01b039384166004820152921660248301529093849190829081906044820190565b03915afa9182156114ac575f9261147b575b505111611453576112a761129a610b61935b935f808061127e565b7fb78cb0dd000000000000000000000000000000000000000000000000000000005f5260045ffd5b61149e91925060203d6020116114a5575b61149681836109b1565b810190611159565b905f611438565b503d61148c565b61114e565b505050506112a761129a610b619361144a565b806114d25f6114d8936109b1565b80610119565b5f6113a1565b5050505050505050600190565b92916114f691611f27565b9060e082019161156261124e6115366111cb611518875165ffffffffffff1690565b61010086019865ffffffffffff806111b08c5165ffffffffffff1690565b9360408401519061155760608601519261123a61120d602089015160ff1690565b608085015190611d00565b61159f5761157e918160a060c061124e94015191015190611e22565b611598576112a761129a610b61935165ffffffffffff1690565b5050600190565b50505050600190565b929091506040820135820161163460608401358401916080850135948560801c966020833593019161162d6020820135928a6fffffffffffffffffffffffffffffffff8b16919091608092604051927fa893e832cd40f0161a05fdeee70845d347394fb92e8ffc59e56e6b2d3760545484526020840152604083015260608201522090565b9035612105565b9182156116795761165392610f9961124e933690602081359101610bcd565b6115985760a01b65ffffffffffff60a01b1660d09190911b6001600160d01b0319161790565b5050505050600190565b9182828101601f19013561649261ffff30801c190402146116a15750565b604091935080925001350160208135910191565b92919082156117e2575b7f7fffffffffffffffffffffffffffffff5d576e7357a4501ddfe92f46681b20a06020830135116117ba576001600160a01b035f94166dd9ecebf3c23529de49815dac1c4c81149081156117b0575b8115611780575b50611760575b831561174d575b831561173b575b505050155f03631626ba7e1760e01b90565b61174593506126cf565b5f8080611729565b925061175a8282856123fe565b92611722565b925061177a61176e33610d82565b84610f99368686610bcd565b9261171b565b90505f5260026020526117a73360405f20906001600160a01b03165f5260205260405f2090565b5415155f611715565b338114915061170e565b7f8baa579f000000000000000000000000000000000000000000000000000000005f5260045ffd5b61773961ffff8419040281036116bf57505050507f773900010000000000000000000000000000000000000000000000000000000090565b600190611841935f520160205260405f20906001600160a01b03165f5260205260405f2090565b54151590565b815f526001800160205261186f8160405f20906001600160a01b03165f5260205260405f2090565b546118c857806118c2915f52600160205260405f20600181540190848260051b82015555805f52600160205260405f2054925f52600260205260405f20906001600160a01b03165f5260205260405f2090565b55600190565b50505f90565b906118da83828461181a565b611927575f81815260208390526040902080546001908101600581901b8301869055918290556118c2939091945f520160205260405f20906001600160a01b03165f5260205260405f2090565b5050505f90565b5f1981146105535760010190565b5f1981019190821161055357565b60051981019190821161055357565b60221981019190821161055357565b601f1981019190821161055357565b60bf1981019190821161055357565b607f1981019190821161055357565b602003906020821161055357565b9190820391821161055357565b91909161012081840312610123576119c66109e3565b926119d0826101bd565b845260208201356020850152604082013560408501526060820135606085015260808201356080850152611a0660a08301610fe1565b60a085015260c082013560c085015260e082013560e085015261010082013567ffffffffffffffff811161012357611a3e9201611050565b610100830152565b35610b6181610fd6565b903590601e1981360301821215610123570180359067ffffffffffffffff821161012357602001918160051b3603831361012357565b919250611b0561124e6020850193611aa7611aa136876119b0565b82612782565b61010087013591611b0060e0890135611af2611ac560c08c01611a46565b6040519687936020850191926041936001600160f81b0319928452602084015260f81b1660408201520190565b03601f1981018552846109b1565b611d00565b6119275760a0611b3184611b2461124e95610120611b36980190611a50565b9390910135923691611004565b611e22565b611b3f57600190565b5f90565b611b4b6127fd565b50611b568484611ed7565b3560f81c92611b648561193c565b611b6f908683611ee5565b3560f81c611b7c81610e0f565b611b8590610e3c565b611b8f90876119a3565b611b9a908784610ab4565b909290611ba8368286610bcd565b611bb1906128f2565b91611bbb8361292c565b611bc59089612a2c565b93888551611bd290612b0d565b9360208701978851986040890191825198611bec90613203565b9190508a5192519351943690611c0192610bcd565b611c0a95612bb7565b9460600151611c1890612cd5565b99611c2292612f43565b96611c2b6109f3565b60ff918216815291166020820181905260408201859052606082018390526080820193845260a0820198895260c090910196875260408051602081019590955284019190915260f81b6001600160f81b031916606083015260418252611c926061836109b1565b51611c9c92611d00565b1561192757611b369261124e9251905190611e22565b919250611cdc90604084013584019060608501358501946020833593019160208201359135612105565b801561192757610f99611cf6933690602081359101610bcd565b15611b3f57600190565b906001600160a01b03929183611d168484612844565b911693168314611d63576001600160a01b0391611d59916020527b19457468657265756d205369676e6564204d6573736167653a0a33325f52603c600420612844565b1614610fb1575f90565b505050600190565b906040611de96042936001600160a01b03602085015116606085015160808601519160c0870151939290916001600160a01b0360c0959381604051967f6e71edae12b1b97f4d1f60370fef10105fa2faae0126114a169c64845d6126c988521660208701521660408501526060840152608083015260a08201522090565b91015190604051917f19010000000000000000000000000000000000000000000000000000000000008352600283015260228201522090565b909181519182611e34575b5090501490565b8060208092019360051b0101905b8251811160051b90815260208351911852602060405f20920191818310611e4257915050805f611e2d565b60405190610120820182811067ffffffffffffffff8211176109ac576040525f610100838281528260208201528260408201528260608201528260808201528260a0820152606060c08201528260e08201520152565b634e487b7160e01b5f52603260045260245ffd5b9015611ee05790565b611ec3565b90821015611ee0570190565b919091356001600160d01b031981169260068110611f0d575050565b6001600160d01b0319929350829060060360031b1b161690565b611f2f611e6d565b50611f3a8282611ed7565b3560f81c91600c91611f4c83836119a3565b611f558361194a565b611f60918484610ad0565b611f6991611ef1565b60d01c9180611f778161194a565b90611f83918185610ad0565b611f8c91611ef1565b60d01c93611f9a81836119a3565b611fa39061193c565b611fae908385611ee5565b3560f81c90611fbc82610e0f565b611fc590610e3c565b90611fcf91610e66565b611fd990836119a3565b611fe4908385610ab4565b9390611ff1368683610bcd565b611ffa906128f2565b916120048361292c565b61200e908a612a2c565b9389855161201b90612b0d565b976020870194855195604089019182519861203590613203565b9190508a519251935194369061204a92610bcd565b61205395612bb7565b946060015161206190612cd5565b9561206b92612df2565b946120746109e3565b60ff909916895260ff16602089015260408801526060870152608086015260a085015260c084015265ffffffffffff1660e083015265ffffffffffff1661010082015290565b9190811015611ee05760051b0190565b9081527f07ffffffffffffffffffffffffffffffffffffffffffffffffffffffffffffff83116101235760209260051b809284830137010190565b9392916121139084846120ba565b3514612120575050505f90565b7f07bdf0267970db0d5b9acc9d9fa8ef0cbb5b543fb897017542bfb306f5e46ad083036121bf576121608290604051828193825260010160051b01604052565b915f5b81811061219857505050610b6191612185612192926020815160051b91012090565b905f5260205260405f2090565b33612e6f565b806121b86121a960019385876120ba565b356001830160051b8701528590565b5001612163565b906121ea610b6193926121dc6040519384926020840196876120ca565b03601f1981018352826109b1565b519020612192565b90805f5260026020526122198260405f20906001600160a01b03165f5260205260405f2090565b54918215611927575f19830191838311610553575f828152600160205260409020545f19810191908211610553575f94848484612278956118c2980361228e575b509050612269915060016134e1565b6002905f5260205260405f2090565b906001600160a01b03165f5260205260405f2090565b6122ae926122696122a461227893856001613494565b80928560016134c3565b555f80848161225a565b81601f82011215610123578051906122cf82610a20565b926122dd60405194856109b1565b8284526020838301011161012357815f9260208093018386015e8301015290565b51906101c8826101ac565b9080601f8301121561012357815161232081610fec565b9261232e60405194856109b1565b81845260208085019260051b82010192831161012357602001905b8282106123565750505090565b8151815260209182019101612349565b9060e0828203126101235781516001600160f81b0319811681036101235792602083015167ffffffffffffffff811161012357826123a59185016122b8565b92604081015167ffffffffffffffff811161012357836123c69183016122b8565b926060820151926123d9608084016122fe565b9260a08101519260c082015167ffffffffffffffff811161012357610b619201612309565b9092309330612627575b60405190600119858201013560f01c94600e830196869187810384016041198101976119015f5260408960203789158a604201841017816042601e2018176125e757507f5479706564446174615369676e2800000000000000000000000000000000000086526001198101999889818c82378188016028600e8201526029600d8201515f1a03612591575b506f07fffffe000000000000010000000000919250999899515f1a1c5b88515f1a602881146124d15790651201000000016001921c179801976124b0565b50929496999086986040610b619b83605c96989a957f20636f6e74656e74732c737472696e67206e616d652c737472696e670000000085527f2076657273696f6e2c75696e7432353620636861696e49642c61646472657373601c8601527f20766572696679696e67436f6e74726163742c627974657333322073616c7429603c8601528785013788370103018620835260e08320604052600116604201601e2092604119910301935b604052612f325761258c9033612e6f565b612f32565b60015f5b016029600d82840301515f1a1484821011156125b357600190612595565b6028915080806040600e936f07fffffe000000000000010000000000970397886041199101010185378a0101538291612493565b949699505095505050610b6194505f907f983e65e5148e570cd828ead231ee759a8d7958721a768f93bc4483ba005c32de5f5260205260405f209161257b565b6040516342580cb760e11b815294505f85600481335afa80156114ac575f955f5f905f925f94612696575b50906001600160a01b039291604051996020815191012060408b01526020815191012060608a015260808901521660a087015260c086015260e08501604052612408565b925050506001600160a01b0396506126c091503d805f833e6126b881836109b1565b810190612366565b50939993945092909190612652565b92915f933a156126de57505050565b90919293503a3a5260203a3a386d378edcd5b5b0a24f5342d8c1048561fffffa503a511561271f575b610f99610b619361271733610d82565b933691610bcd565b60405192631626ba7e3a526d378edcd5b5b0a24f5342d8c1048560205260408052454561ffff011790815a106d378edcd5b5b0a24f5342d8c1048584141761278057610b6194610f99923a906064601c3a923090fa50604052935050612707565bfe5b906020611de96042936001600160a01b0384511660408501516060860151916080870151939290916001600160a01b0360c0959381604051967f6e71edae12b1b97f4d1f60370fef10105fa2faae0126114a169c64845d6126c988521660208701521660408501526060840152608083015260a08201522090565b6040519060e0820182811067ffffffffffffffff8211176109ac57604052606060c0835f81525f60208201525f60408201525f838201525f60808201525f60a08201520152565b9190915f926040519181518060401461289c5760411461286357505050565b602092945060608201515f1a835260408201516060525b5f5201516040526020604060805f60015afa505f6060523d6060185191604052565b5060209294507f7fffffffffffffffffffffffffffffffffffffffffffffffffffffffffffffff6040830151601b8160ff1c0185521660605261287a565b604051906128e782610990565b5f6020838281520152565b6128fa6128da565b5060208151916040519261290d84610990565b835201602082015290565b8051821015611ee05760209160051b010190565b61293581612fac565b156101235761294381612fcc565b61294c81610fec565b9161295a60405193846109b1565b818352601f1961296983610fec565b015f5b8181106129e0575050602061298c9101516129868161302d565b90610e66565b5f905b82821061299c5750505090565b6129d8816129ab600193613098565b906129b4610a02565b8281528160208201526129c78689612918565b526129d28588612918565b50610e66565b91019061298f565b6020906129eb6128da565b8282880101520161296c565b604051906080820182811067ffffffffffffffff8211176109ac57604052606080835f81525f60208201525f60408201520152565b60ff90612a376129f7565b501680612ab157506005600690612a93612a8d60079460ff612a85612a6f82612a7d612a6f82612a75612a6f8260089e5b168a612918565b51613116565b9c1687612918565b981684612918565b941690612918565b516131c7565b91612a9c610a11565b93845260208401526040830152606082015290565b600203612ae5576007600990612a93612a8d600a9460ff612a85612a6f82612a7d612a6f82612a75612a6f82600b9e612a68565b7f9d311602000000000000000000000000000000000000000000000000000000005f5260045ffd5b60258110612b6e57612b1e816131f1565b7f7fffffffffffffffffffffffffffffffffffffffffffffffffffffffffffffff8116810361055357612b63612b5e610b6193612b689360011b906119a3565b611959565b610e4a565b60ff1690565b60018111612b6857601b81018091116105535760ff1690565b805191908290602001825e015f815290565b6001906001600160f81b0319610b61949360f81b1681520190612b87565b93612c119192612c07612bff612bf3612c1c9799612bec612be0612be5612be0612c169961366e565b6136ea565b519261366e565b5190610e66565b612bec612be08b61366e565b9185516119a3565b92839185516119a3565b6119a3565b916132d1565b9160ff821660028103612c60575050612c56612c43610b6193612c3d610a3c565b90613350565b916121dc60405193849260208401612b99565b6020815191012090565b909150612ae55760258110612cc557612cba610b6192612cc0612c8d612c88612c56956131f1565b61322f565b61123a612c9b612be06135c9565b612cba612ca9612be06135c9565b916040519788956020870190612b87565b90612b87565b613350565b50612c56610b6191612c3d610a3c565b6020815110612d69578051601f19810181811161055357612d0e90612cfa600161323b565b612d076020855192610e66565b1115613286565b6040805160208101939092849291019083015b808310612d5657505060208252601f80199101166040525190519060208110612d48575090565b5f199060200360031b1b1690565b9091602080918451815201920190612d21565b7f6a0e9cd5000000000000000000000000000000000000000000000000000000005f5260045ffd5b90612d9b82610fec565b612da860405191826109b1565b8281528092612db9601f1991610fec565b0190602036910137565b60ff168015610553575f190190565b359060208110612d48575090565b60ff5f199116019060ff821161055357565b929190612e0160ff8316612d91565b93600b198201828111610553575f198101908111610553579291925b60ff8316612e2b5750505050565b612e6381612e4f612e4982612e42612e6996611968565b8988610ad0565b90612dd2565b612e5d60ff612a6888612de0565b52611968565b92612dc3565b91612e1d565b5f6001600160a01b03916004604051809481936342580cb760e11b8352165afa9081156114ac5760a0915f915f5f915f93612f0d575b50604051937f8b73c3c69bb8fe3d512ecc4cf759cc79239f7b179b0ffacaa9a75d522b39400f855260208151910120602085015260208151910120604084015260608301526080820152206719010000000000005f52601a52603a526042601820905f603a52565b92505050612f2591503d805f833e6126b881836109b1565b509394509250905f612ea5565b610f99610b61939261271733610d82565b9291612f5160ff8216612d91565b935f198301838111610553575b60ff8316612f6c5750505050565b601f19810181811161055357612f8a612e49612fa693838887610ad0565b612f9f60ff612f9887612de0565b1689612918565b5292612dc3565b91612f5e565b805115612fc757602060c0910151515f1a10611b3f57600190565b505f90565b805115612fc7575f9060208101908151612fe58161302d565b8101809111610553579151905181018091116105535791905b82811061300b5750905090565b61301481613098565b810180911161055357613027909161192e565b90612ffe565b515f1a608081101561303e57505f90565b60b881108015613082575b156130545750600190565b60c081101561307357610b619061306e9060b75b906119a3565b610e3c565b610b619061306e9060f7613068565b5060c08110158015613049575060f88110613049565b80515f1a9060808210156130ad575050600190565b60b88210156130c3575061306e610b6191611986565b60c08210156130e65760010151602082900360b7016101000a90040160b5190190565b60f88210156130fc575061306e610b6191611977565b60010151602082900360f7016101000a90040160f5190190565b8051801515908161314c575b50156101235761313190613203565b90519060208110613140575090565b6020036101000a900490565b6021915011155f613122565b6040805190919061316983826109b1565b60208152918290601f190190369060200137565b6040805190919061318e83826109b1565b6001815291601f1901366020840137565b906131a982610a20565b6131b660405191826109b1565b8281528092612db9601f1991610a20565b805115610123576131da610b6191613203565b6131e68193929361319f565b928360200190613538565b60221981019081116105535760011c90565b906020820191613213835161302d565b9251908382018092116105535751928303928311610553579190565b612be0610b619161366e565b1561324257565b606460405162461bcd60e51b815260206004820152600e60248201527f736c6963655f6f766572666c6f770000000000000000000000000000000000006044820152fd5b1561328d57565b606460405162461bcd60e51b815260206004820152601160248201527f736c6963655f6f75744f66426f756e64730000000000000000000000000000006044820152fd5b916132e181601f8101101561323b565b6132f08351612d078385610e66565b80613308575050506040515f81526020810160405290565b60405192601f821692831560051b80858701019484860193010101905b80841061333d5750508252601f01601f191660405290565b9092602080918551815201930190613325565b61336b906121dc612cba936040519485936020850190612b87565b80519060388210156133bf57612cba916121dc610b61926001600160f81b031961339e60c061339861317d565b95610e66565b60f81b165f1a6133ad846135ab565b535b6040519485936020850190612b87565b916001915f5b6133cf8483610df1565b156133ec576133e06133e69161192e565b93610e25565b926133c5565b9092509290926134036133fe82610e3c565b61319f565b926001600160f81b031961342061341b60c085610e66565b610e58565b60f81b165f1a61342f856135ab565b5360015b8281111561344e57505050612cba916121dc610b61926133af565b806001600160f81b0319613479612b6861347361346e61348f96896119a3565b613529565b86610df1565b60f81b165f1a61348982886135b8565b5361192e565b613433565b905f5260205260405f209081548110156134b35760010160051b015490565b638277484f5f526020526024601cfd5b905f5260205260405f209081548110156134b35760010160051b0155565b905f5260205260405f208054908115613525575f19820191808311610553578154831015613514575f9060051b82015555565b82638277484f5f526020526024601cfd5b5050565b601f8111610553576101000a90565b909180156135a6575b6020811015613576578061355457505050565b61356361346e61356892611995565b61193c565b905182518216911916179052565b919080518252602081018091116105535790602081018091116105535791601f1981019081111561354157610ddd565b505050565b805115611ee05760200190565b908151811015611ee0570160200190565b6135d1613158565b905f60208301525f915b6020831061363d575b6135f06133fe84611995565b905f5b82518110156136365760019061362361361561360e8861192e565b97856135b8565b516001600160f81b03191690565b5f1a61362f82866135b8565b53016135f3565b5090925050565b9161365b61364e61361583866135b8565b6001600160f81b03191690565b61366857600101916135db565b916135e4565b90613677613158565b9160208301525f915b602083106136c6575b6136956133fe84611995565b905f5b8251811015613636576001906136b361361561360e8861192e565b5f1a6136bf82866135b8565b5301613698565b916136d761364e61361583866135b8565b6136e45760010191613680565b91613689565b8051600181149081613784575b50156137005790565b61370a815161379c565b6040519181518084526020840190840191602083019160208501905b8381106137745750508051809286518201875293019260208085019201905b8281106137645750509251603f91011590910101601f19166040525090565b8151815260209182019101613745565b8151815260209182019101613726565b905015611ee0576080602082015160f81c105f6136f7565b60388110156137d4576001600160f81b03196137c160806137bb61317d565b93610e66565b60f81b165f1a6137d0826135ab565b5390565b6001915f5b6137e38484610df1565b156137fa576133e06137f49161192e565b926137d9565b9092506138096133fe82610e3c565b916001600160f81b031961382161341b608085610e66565b60f81b165f1a613830846135ab565b5360015b828111156138425750505090565b806001600160f81b0319613862612b6861347361346e61387296896119a3565b60f81b165f1a61348982876135b8565b61383456fea164736f6c634300081b000a","linkReferences":{}},"methodIdentifiers":{"addSafeSender(address)":"5c81ca68","getOwner(address)":"fa544161","isInitialized(address)":"d60b347f","isModuleType(uint256)":"ecd05961","isSafeSender(address,address)":"0807dbc1","isValidSignatureWithSender(address,bytes32,bytes)":"f551e2ee","name()":"06fdde03","onInstall(bytes)":"6d61fe70","onUninstall(bytes)":"8a91b0e3","removeSafeSender(address)":"e824b568","smartAccountOwners(address)":"2e5b63a6","supportsNestedTypedDataSign()":"d620c85a","transferOwnership(address)":"f2fde38b","validateSignatureWithData(bytes32,bytes,bytes)":"940d3840","validateUserOp((address,uint256,bytes,bytes,bytes32,uint256,bytes32,bytes,bytes),bytes32)":"97003203","version()":"54fd4d50"},"id":49}