{"abi":[{"type":"constructor","inputs":[{"name":"defaultValidator","type":"address","internalType":"address"},{"name":"initData","type":"bytes","internalType":"bytes"}],"stateMutability":"nonpayable"},{"type":"fallback","stateMutability":"payable"},{"type":"receive","stateMutability":"payable"},{"type":"function","name":"eip712Domain","inputs":[],"outputs":[{"name":"fields","type":"bytes1","internalType":"bytes1"},{"name":"name","type":"string","internalType":"string"},{"name":"version","type":"string","internalType":"string"},{"name":"chainId","type":"uint256","internalType":"uint256"},{"name":"verifyingContract","type":"address","internalType":"address"},{"name":"salt","type":"bytes32","internalType":"bytes32"},{"name":"extensions","type":"uint256[]","internalType":"uint256[]"}],"stateMutability":"view"},{"type":"function","name":"getActiveHook","inputs":[],"outputs":[{"name":"hook","type":"address","internalType":"address"}],"stateMutability":"view"},{"type":"function","name":"getDefaultValidator","inputs":[],"outputs":[{"name":"","type":"address","internalType":"address"}],"stateMutability":"view"},{"type":"function","name":"getExecutorsPaginated","inputs":[{"name":"cursor","type":"address","internalType":"address"},{"name":"size","type":"uint256","internalType":"uint256"}],"outputs":[{"name":"array","type":"address[]","internalType":"address[]"},{"name":"next","type":"address","internalType":"address"}],"stateMutability":"view"},{"type":"function","name":"getFallbackHandlerBySelector","inputs":[{"name":"selector","type":"bytes4","internalType":"bytes4"}],"outputs":[{"name":"","type":"bytes1","internalType":"CallType"},{"name":"","type":"address","internalType":"address"}],"stateMutability":"view"},{"type":"function","name":"getValidatorsPaginated","inputs":[{"name":"cursor","type":"address","internalType":"address"},{"name":"size","type":"uint256","internalType":"uint256"}],"outputs":[{"name":"array","type":"address[]","internalType":"address[]"},{"name":"next","type":"address","internalType":"address"}],"stateMutability":"view"},{"type":"function","name":"initNexus","inputs":[{"name":"validators","type":"tuple[]","internalType":"struct BootstrapConfig[]","components":[{"name":"module","type":"address","internalType":"address"},{"name":"data","type":"bytes","internalType":"bytes"}]},{"name":"executors","type":"tuple[]","internalType":"struct BootstrapConfig[]","components":[{"name":"module","type":"address","internalType":"address"},{"name":"data","type":"bytes","internalType":"bytes"}]},{"name":"hook","type":"tuple","internalType":"struct BootstrapConfig","components":[{"name":"module","type":"address","internalType":"address"},{"name":"data","type":"bytes","internalType":"bytes"}]},{"name":"fallbacks","type":"tuple[]","internalType":"struct BootstrapConfig[]","components":[{"name":"module","type":"address","internalType":"address"},{"name":"data","type":"bytes","internalType":"bytes"}]},{"name":"preValidationHooks","type":"tuple[]","internalType":"struct BootstrapPreValidationHookConfig[]","components":[{"name":"hookType","type":"uint256","internalType":"uint256"},{"name":"module","type":"address","internalType":"address"},{"name":"data","type":"bytes","internalType":"bytes"}]}],"outputs":[],"stateMutability":"nonpayable"},{"type":"function","name":"initNexusNoRegistry","inputs":[{"name":"validators","type":"tuple[]","internalType":"struct BootstrapConfig[]","components":[{"name":"module","type":"address","internalType":"address"},{"name":"data","type":"bytes","internalType":"bytes"}]},{"name":"executors","type":"tuple[]","internalType":"struct BootstrapConfig[]","components":[{"name":"module","type":"address","internalType":"address"},{"name":"data","type":"bytes","internalType":"bytes"}]},{"name":"hook","type":"tuple","internalType":"struct BootstrapConfig","components":[{"name":"module","type":"address","internalType":"address"},{"name":"data","type":"bytes","internalType":"bytes"}]},{"name":"fallbacks","type":"tuple[]","internalType":"struct BootstrapConfig[]","components":[{"name":"module","type":"address","internalType":"address"},{"name":"data","type":"bytes","internalType":"bytes"}]},{"name":"preValidationHooks","type":"tuple[]","internalType":"struct BootstrapPreValidationHookConfig[]","components":[{"name":"hookType","type":"uint256","internalType":"uint256"},{"name":"module","type":"address","internalType":"address"},{"name":"data","type":"bytes","internalType":"bytes"}]}],"outputs":[],"stateMutability":"payable"},{"type":"function","name":"initNexusScoped","inputs":[{"name":"validators","type":"tuple[]","internalType":"struct BootstrapConfig[]","components":[{"name":"module","type":"address","internalType":"address"},{"name":"data","type":"bytes","internalType":"bytes"}]},{"name":"hook","type":"tuple","internalType":"struct BootstrapConfig","components":[{"name":"module","type":"address","internalType":"address"},{"name":"data","type":"bytes","internalType":"bytes"}]}],"outputs":[],"stateMutability":"nonpayable"},{"type":"function","name":"initNexusScopedNoRegistry","inputs":[{"name":"validators","type":"tuple[]","internalType":"struct BootstrapConfig[]","components":[{"name":"module","type":"address","internalType":"address"},{"name":"data","type":"bytes","internalType":"bytes"}]},{"name":"hook","type":"tuple","internalType":"struct BootstrapConfig","components":[{"name":"module","type":"address","internalType":"address"},{"name":"data","type":"bytes","internalType":"bytes"}]}],"outputs":[],"stateMutability":"payable"},{"type":"function","name":"initNexusWithDefaultValidator","inputs":[{"name":"data","type":"bytes","internalType":"bytes"}],"outputs":[],"stateMutability":"payable"},{"type":"function","name":"initNexusWithDefaultValidatorAndOtherModules","inputs":[{"name":"defaultValidatorInitData","type":"bytes","internalType":"bytes"},{"name":"validators","type":"tuple[]","internalType":"struct BootstrapConfig[]","components":[{"name":"module","type":"address","internalType":"address"},{"name":"data","type":"bytes","internalType":"bytes"}]},{"name":"executors","type":"tuple[]","internalType":"struct BootstrapConfig[]","components":[{"name":"module","type":"address","internalType":"address"},{"name":"data","type":"bytes","internalType":"bytes"}]},{"name":"hook","type":"tuple","internalType":"struct BootstrapConfig","components":[{"name":"module","type":"address","internalType":"address"},{"name":"data","type":"bytes","internalType":"bytes"}]},{"name":"fallbacks","type":"tuple[]","internalType":"struct BootstrapConfig[]","components":[{"name":"module","type":"address","internalType":"address"},{"name":"data","type":"bytes","internalType":"bytes"}]},{"name":"preValidationHooks","type":"tuple[]","internalType":"struct BootstrapPreValidationHookConfig[]","components":[{"name":"hookType","type":"uint256","internalType":"uint256"},{"name":"module","type":"address","internalType":"address"},{"name":"data","type":"bytes","internalType":"bytes"}]}],"outputs":[],"stateMutability":"payable"},{"type":"function","name":"initNexusWithDefaultValidatorAndOtherModulesNoRegistry","inputs":[{"name":"defaultValidatorInitData","type":"bytes","internalType":"bytes"},{"name":"validators","type":"tuple[]","internalType":"struct BootstrapConfig[]","components":[{"name":"module","type":"address","internalType":"address"},{"name":"data","type":"bytes","internalType":"bytes"}]},{"name":"executors","type":"tuple[]","internalType":"struct BootstrapConfig[]","components":[{"name":"module","type":"address","internalType":"address"},{"name":"data","type":"bytes","internalType":"bytes"}]},{"name":"hook","type":"tuple","internalType":"struct BootstrapConfig","components":[{"name":"module","type":"address","internalType":"address"},{"name":"data","type":"bytes","internalType":"bytes"}]},{"name":"fallbacks","type":"tuple[]","internalType":"struct BootstrapConfig[]","components":[{"name":"module","type":"address","internalType":"address"},{"name":"data","type":"bytes","internalType":"bytes"}]},{"name":"preValidationHooks","type":"tuple[]","internalType":"struct BootstrapPreValidationHookConfig[]","components":[{"name":"hookType","type":"uint256","internalType":"uint256"},{"name":"module","type":"address","internalType":"address"},{"name":"data","type":"bytes","internalType":"bytes"}]}],"outputs":[],"stateMutability":"payable"},{"type":"function","name":"initNexusWithSingleValidator","inputs":[{"name":"validator","type":"address","internalType":"address"},{"name":"data","type":"bytes","internalType":"bytes"}],"outputs":[],"stateMutability":"payable"},{"type":"function","name":"initNexusWithSingleValidatorNoRegistry","inputs":[{"name":"validator","type":"address","internalType":"address"},{"name":"data","type":"bytes","internalType":"bytes"}],"outputs":[],"stateMutability":"payable"},{"type":"function","name":"installModule","inputs":[{"name":"moduleTypeId","type":"uint256","internalType":"uint256"},{"name":"module","type":"address","internalType":"address"},{"name":"initData","type":"bytes","internalType":"bytes"}],"outputs":[],"stateMutability":"payable"},{"type":"function","name":"isModuleInstalled","inputs":[{"name":"moduleTypeId","type":"uint256","internalType":"uint256"},{"name":"module","type":"address","internalType":"address"},{"name":"additionalContext","type":"bytes","internalType":"bytes"}],"outputs":[{"name":"installed","type":"bool","internalType":"bool"}],"stateMutability":"view"},{"type":"function","name":"uninstallModule","inputs":[{"name":"moduleTypeId","type":"uint256","internalType":"uint256"},{"name":"module","type":"address","internalType":"address"},{"name":"deInitData","type":"bytes","internalType":"bytes"}],"outputs":[],"stateMutability":"payable"},{"type":"event","name":"ModuleInstalled","inputs":[{"name":"moduleTypeId","type":"uint256","indexed":false,"internalType":"uint256"},{"name":"module","type":"address","indexed":false,"internalType":"address"}],"anonymous":false},{"type":"event","name":"ModuleUninstalled","inputs":[{"name":"moduleTypeId","type":"uint256","indexed":false,"internalType":"uint256"},{"name":"module","type":"address","indexed":false,"internalType":"address"}],"anonymous":false},{"type":"error","name":"CanNotRemoveLastValidator","inputs":[]},{"type":"error","name":"DefaultValidatorAlreadyInstalled","inputs":[]},{"type":"error","name":"EmergencyUninstallSigError","inputs":[]},{"type":"error","name":"EnableModeSigError","inputs":[]},{"type":"error","name":"FallbackAlreadyInstalledForSelector","inputs":[{"name":"selector","type":"bytes4","internalType":"bytes4"}]},{"type":"error","name":"FallbackCallTypeInvalid","inputs":[]},{"type":"error","name":"FallbackHandlerUninstallFailed","inputs":[]},{"type":"error","name":"FallbackNotInstalledForSelector","inputs":[{"name":"selector","type":"bytes4","internalType":"bytes4"}]},{"type":"error","name":"FallbackSelectorForbidden","inputs":[]},{"type":"error","name":"HookAlreadyInstalled","inputs":[{"name":"currentHook","type":"address","internalType":"address"}]},{"type":"error","name":"HookPostCheckFailed","inputs":[]},{"type":"error","name":"InvalidInput","inputs":[]},{"type":"error","name":"InvalidModule","inputs":[{"name":"module","type":"address","internalType":"address"}]},{"type":"error","name":"InvalidModuleTypeId","inputs":[{"name":"moduleTypeId","type":"uint256","internalType":"uint256"}]},{"type":"error","name":"InvalidNonce","inputs":[]},{"type":"error","name":"LinkedList_AlreadyInitialized","inputs":[]},{"type":"error","name":"LinkedList_EntryAlreadyInList","inputs":[{"name":"entry","type":"address","internalType":"address"}]},{"type":"error","name":"LinkedList_InvalidEntry","inputs":[{"name":"entry","type":"address","internalType":"address"}]},{"type":"error","name":"LinkedList_InvalidPage","inputs":[]},{"type":"error","name":"MismatchModuleTypeId","inputs":[]},{"type":"error","name":"MissingFallbackHandler","inputs":[{"name":"selector","type":"bytes4","internalType":"bytes4"}]},{"type":"error","name":"ModuleAddressCanNotBeZero","inputs":[]},{"type":"error","name":"ModuleAlreadyInstalled","inputs":[{"name":"moduleTypeId","type":"uint256","internalType":"uint256"},{"name":"module","type":"address","internalType":"address"}]},{"type":"error","name":"ModuleNotInstalled","inputs":[{"name":"moduleTypeId","type":"uint256","internalType":"uint256"},{"name":"module","type":"address","internalType":"address"}]},{"type":"error","name":"NoValidatorInstalled","inputs":[]},{"type":"error","name":"PrevalidationHookAlreadyInstalled","inputs":[{"name":"currentPreValidationHook","type":"address","internalType":"address"}]},{"type":"error","name":"UnauthorizedOperation","inputs":[{"name":"operator","type":"address","internalType":"address"}]},{"type":"error","name":"UnsupportedCallType","inputs":[{"name":"callType","type":"bytes1","internalType":"CallType"}]},{"type":"error","name":"ValidatorNotInstalled","inputs":[{"name":"module","type":"address","internalType":"address"}]}],"bytecode":{"object":"0x610140806040523461023e57612c7d803803809161001d82856102aa565b833981019060408183031261023e578051906001600160a01b0382169081830361023e576020810151906001600160401b03821161023e570183601f8201121561023e5780516001600160401b0381116102965760405191610089601f8301601f1916602001846102aa565b81835260208301956020838301011161023e57815f926020809301885e83010152306080524660a05260409360a085516100c387826102aa565b600e815260208101906d04e65787573426f6f7473747261760941b82528751916100ed89846102aa565b600583526020830191640312e332e360dc1b8352519020915190208160c0528060e0528751917f8b73c3c69bb8fe3d512ecc4cf759cc79239f7b179b0ffacaa9a75d522b39400f83526020830152878201524660608201523060808201522061010052845163ecd0596160e01b815260016004820152602081602481875afa90811561028c575f91610251575b501561024257823b1561023e576044925f928387519586809581946306d61fe760e41b8352602060048401525180918160248501528484015e8181018301849052601f01601f191681010301925af1801561023457610224575b5061012052516129af90816102ce823960805181505060a05181505060c05181505060e05181505061010051815050610120518181816101920152818161053a015281816108d101526119e90152f35b5f61022e916102aa565b5f6101d4565b83513d5f823e3d90fd5b5f80fd5b631c4f83bb60e31b5f5260045ffd5b90506020813d602011610284575b8161026c602093836102aa565b8101031261023e5751801515810361023e575f61017a565b3d915061025f565b86513d5f823e3d90fd5b634e487b7160e01b5f52604160045260245ffd5b601f909101601f19168101906001600160401b038211908210176102965760405256fe60806040526004361015610015575b3661158d57005b5f3560e01c80630a664dba146101255780630b3dc3541461012057806310b7fca9146100f8578063112d3a7d1461011b578063220911871461010c578063310259841461011657806334ea61a51461011157806341bede031461010c578063481ddd231461010757806354ed06d5146101025780635faac46b146100fd5780636d583e36146100f857806384b0196e146100f357806386437876146100ee5780639517e29f146100e9578063a71763a8146100e9578063a8a33cf2146100e45763ea5f61d00361000e57611374565b61117c565b611173565b610f80565b610daf565b610232565b610bc8565b610aff565b610a41565b61050b565b610994565b61089a565b6103d8565b610173565b610138565b5f91031261013457565b5f80fd5b34610134575f3660031901126101345760206001600160a01b035f5160206129635f395f51905f5254166001600160a01b0360405191168152f35b34610134575f3660031901126101345760206040516001600160a01b037f0000000000000000000000000000000000000000000000000000000000000000168152f35b6001600160a01b0381160361013457565b9181601f840112156101345782359167ffffffffffffffff8311610134576020838186019501011161013457565b9060406003198301126101345760043561020e816101b6565b916024359067ffffffffffffffff82116101345761022e916004016101c7565b9091565b61023b366101f5565b61024692919261231f565b61024e6123ba565b6001600160a01b036102746001600160a01b035f5160206129635f395f51905f52541690565b16806102be5750906102986102b9925f5160206129235f395f51905f5294836119a1565b60408051600181526001600160a01b03909216602083015290918291820190565b0390a1005b906040519363d68f602560e01b85525f85806102df3634336004850161186e565b038183875af194851561036d575f95610372575b50906102ff91846119a1565b803b156101345761032a5f93918492604051958680948193630b9dfbed60e11b835260048301611894565b03925af190811561036d575f5160206129235f395f51905f52926102b992610353575b50610298565b806103615f61036793611484565b8061012a565b5f61034d565b6114d7565b6102ff92919550610394903d805f833e61038c8183611484565b81019061180b565b9490916102f3565b606060031982011261013457600435916024356103b8816101b6565b916044359067ffffffffffffffff82116101345761022e916004016101c7565b34610134576103e63661039c565b5050505060206040515f8152f35b9181601f840112156101345782359167ffffffffffffffff8311610134576020808501948460051b01011161013457565b908160409103126101345790565b9060c06003198301126101345760043567ffffffffffffffff8111610134578261045f916004016101c7565b9290929160243567ffffffffffffffff81116101345782610482916004016103f4565b9290929160443567ffffffffffffffff811161013457826104a5916004016103f4565b9290929160643567ffffffffffffffff811161013457826104c891600401610425565b9160843567ffffffffffffffff811161013457816104e8916004016103f4565b9290929160a4359067ffffffffffffffff82116101345761022e916004016103f4565b61051436610433565b98909961052898929897939796949661231f565b6105306123ba565b6001600160a01b037f00000000000000000000000000000000000000000000000000000000000000001691823b1561013457610585925f92836040518096819582946306d61fe760e41b8452600484016114c6565b03925af1801561036d57610886575b505f5b82811061081a575050505f5b82811061078d575050506105c56105b98261151d565b6001600160a01b031690565b61072f575b505f5b828110610693575050505f5b8181106105e257005b806105fe6105b960206105f8600195878961155a565b0161151d565b1561068e5761064361061182858761155a565b3561062260206105f885888a61155a565b9061063b61063185888a61155a565b6040810190611527565b929091612194565b5f5160206129235f395f51905f5261065c82858761155a565b3561066d60206105f885888a61155a565b604080519283526001600160a01b0391909116602083015290a15b016105d9565b610688565b806106ac6105b96106a760019487876114f6565b61151d565b1561072a576106e06106c26106a78387876114f6565b6106da6106d08488886114f6565b6020810190611527565b91611d5d565b5f5160206129235f395f51905f526107206106ff6106a78488886114f6565b60408051600381526001600160a01b03909216602083015290918291820190565b0390a15b016105cd565b610724565b610784610763826106a76107505f5160206129235f395f51905f529561151d565b61075d6020840184611527565b91611bc1565b60408051600481526001600160a01b03909216602083015290918291820190565b0390a15f6105ca565b806107a16105b96106a760019487876114f6565b15610815576107cb6107b76106a78387876114f6565b6107c56106d08488886114f6565b91611ac1565b5f5160206129235f395f51905f5261080b6107ea6106a78488886114f6565b60408051600281526001600160a01b03909216602083015290918291820190565b0390a15b016105a3565b61080f565b8061082e6105b96106a760019487876114f6565b15610881576108586108446106a78387876114f6565b6108526106d08488886114f6565b916118a5565b5f5160206129235f395f51905f526108776102986106a78488886114f6565b0390a15b01610597565b61087b565b806103615f61089493611484565b5f610594565b5f60203660031901126101345760043567ffffffffffffffff8111610134576108c79036906004016101c7565b6001600160a01b037f00000000000000000000000000000000000000000000000000000000000000001691823b1561013457610923925f92836040518096819582946306d61fe760e41b845260206004850181815201916114a6565b03925af1801561036d57610935575080f35b61094191505f90611484565b005b60406003198201126101345760043567ffffffffffffffff8111610134578161096e916004016103f4565b929092916024359067ffffffffffffffff82116101345761099191600401610425565b90565b34610134576109a236610943565b91906109ac61231f565b6109b46123ba565b5f5b8181106109f757836001600160a01b036109cf8261151d565b166109d657005b6102b9610763826106a76107505f5160206129235f395f51905f529561151d565b80610a19610a0b6106a760019486886114f6565b6108526106d08487896114f6565b5f5160206129235f395f51905f52610a386102986106a78487896114f6565b0390a1016109b6565b34610134576020366003190112610134576004356001600160e01b03198116810361013457610aa1906001600160e01b0319165f527f0bb70095b32b9671358306b0339b4c06e7cbd8cb82505941fba30d1eb5b82f0260205260405f2090565b60405190604082019082821067ffffffffffffffff831117610afa576040918252546001600160a01b03811680845260589190911b6001600160f81b0319166020938401819052825190815292830152819081015b0390f35b611470565b610b0836610943565b9190610b1261231f565b610b1a6123ba565b5f5b818110610b3557836001600160a01b036109cf8261151d565b80610b49610a0b6106a760019486886114f6565b5f5160206129235f395f51905f52610b686102986106a78487896114f6565b0390a101610b1c565b90929192604082016040835281518091526020606084019201905f5b818110610ba9575050506001600160a01b036020919416910152565b82516001600160a01b0316845260209384019390920191600101610b8d565b3461013457604036600319011261013457600435610be5816101b6565b6024359060016001600160a01b038216141580610d75575b610d5a578115610d325790610c11816127fa565b610c49610c3c5f946001600160a01b03165f525f5160206129435f395f51905f5260205260405f2090565b546001600160a01b031690565b6001600160a01b0381168015159081610d26575b5080610d1d575b15610cbe57610cb2610c3c82610c8f610cb894610c81898861282c565b906001600160a01b03169052565b6001600160a01b03165f525f5160206129435f395f51905f5260205260405f2090565b93612854565b92610c49565b908360016001600160a01b038416141580610d14575b610cea575b8152610af660405192839283610b71565b9150610d0e610d01610cfb84612867565b8361282c565b516001600160a01b031690565b91610cd9565b50801515610cd4565b50828410610c64565b6001915014155f610c5d565b7ff7250817000000000000000000000000000000000000000000000000000000005f5260045ffd5b637c84ecfb60e01b5f526001600160a01b031660045260245ffd5b50610d86610d82826128a2565b1590565b610bfd565b805180835260209291819084018484015e5f828201840152601f01601f1916010190565b34610134575f36600319011261013457610e6d6040610e7a815191610dd48184611484565b600e83527f4e65787573426f6f74737472617000000000000000000000000000000000000060208401528051610e0a8282611484565b600581527f312e332e30000000000000000000000000000000000000000000000000000000602082015281519485947f0f00000000000000000000000000000000000000000000000000000000000000865260e0602087015260e0860190610d8b565b9184830390850152610d8b565b4660608301523060808301525f60a083015281810360c083015260206060519182815201906080905f5b818110610eb2575050500390f35b8251845285945060209384019390920191600101610ea4565b9060a06003198301126101345760043567ffffffffffffffff81116101345782610ef7916004016103f4565b9290929160243567ffffffffffffffff81116101345782610f1a916004016103f4565b9290929160443567ffffffffffffffff81116101345782610f3d91600401610425565b9160643567ffffffffffffffff81116101345781610f5d916004016103f4565b929092916084359067ffffffffffffffff82116101345761022e916004016103f4565b610f8936610ecb565b96610f9b98919896929593949661231f565b610fa36123ba565b5f5b818110611137575050505f5b8281106110df575050505f5b82811061108757505050610fd36105b98261151d565b61105d575b505f5b818110610fe457005b80610ffa6105b960206105f8600195878961155a565b156110585761100d61061182858761155a565b5f5160206129235f395f51905f5261102682858761155a565b3561103760206105f885888a61155a565b604080519283526001600160a01b0391909116602083015290a15b01610fdb565b611052565b61107e610763826106a76107505f5160206129235f395f51905f529561151d565b0390a15f610fd8565b8061109b6105b96106a760019487876114f6565b156110da576110b16106c26106a78387876114f6565b5f5160206129235f395f51905f526110d06106ff6106a78488886114f6565b0390a15b01610fbd565b6110d4565b806110f36105b96106a760019487876114f6565b15611132576111096107b76106a78387876114f6565b5f5160206129235f395f51905f526111286107ea6106a78488886114f6565b0390a15b01610fb1565b61112c565b8061114b610a0b6106a760019486886114f6565b5f5160206129235f395f51905f5261116a6102986106a78487896114f6565b0390a101610fa5565b6109413661039c565b346101345761118a36610ecb565b9661119c98919896929593949661231f565b6111a46123ba565b5f5b818110611338575050505f5b8281106112e0575050505f5b828110611288575050506111d46105b98261151d565b61125e575b505f5b8181106111e557005b806111fb6105b960206105f8600195878961155a565b156112595761120e61061182858761155a565b5f5160206129235f395f51905f5261122782858761155a565b3561123860206105f885888a61155a565b604080519283526001600160a01b0391909116602083015290a15b016111dc565b611253565b61127f610763826106a76107505f5160206129235f395f51905f529561151d565b0390a15f6111d9565b8061129c6105b96106a760019487876114f6565b156112db576112b26106c26106a78387876114f6565b5f5160206129235f395f51905f526112d16106ff6106a78488886114f6565b0390a15b016111be565b6112d5565b806112f46105b96106a760019487876114f6565b156113335761130a6107b76106a78387876114f6565b5f5160206129235f395f51905f526113296107ea6106a78488886114f6565b0390a15b016111b2565b61132d565b8061134c610a0b6106a760019486886114f6565b5f5160206129235f395f51905f5261136b6102986106a78487896114f6565b0390a1016111a6565b3461013457604036600319011261013457600435611391816101b6565b6024359060016001600160a01b03821614158061145e575b610d5a578115610d3257906113bd816127fa565b6113e8610c3c5f946001600160a01b03165f525f5160206129835f395f51905f5260205260405f2090565b6001600160a01b0381168015159081611452575b5080611449575b15610cbe57610cb2610c3c8261142061144394610c81898861282c565b6001600160a01b03165f525f5160206129835f395f51905f5260205260405f2090565b926113e8565b50828410611403565b6001915014155f6113fc565b5061146b610d82826128e2565b6113a9565b634e487b7160e01b5f52604160045260245ffd5b90601f8019910116810190811067ffffffffffffffff821117610afa57604052565b908060209392818452848401375f828201840152601f01601f1916010190565b9160206109919381815201916114a6565b6040513d5f823e3d90fd5b634e487b7160e01b5f52603260045260245ffd5b91908110156115185760051b81013590603e1981360301821215610134570190565b6114e2565b35610991816101b6565b903590601e1981360301821215610134570180359067ffffffffffffffff82116101345760200191813603831361013457565b91908110156115185760051b81013590605e1981360301821215610134570190565b6040519061158b604083611484565b565b5f356001600160e01b03198116906115d6826001600160e01b0319165f527f0bb70095b32b9671358306b0339b4c06e7cbd8cb82505941fba30d1eb5b82f0260205260405f2090565b546115f56001600160a01b0382169160581b6001600160f81b03191690565b906001600160a01b03811661166457505060e01c9063bc197c81821463f23a6e6183141763150b7a0283141761165a577f08c63e27000000000000000000000000000000000000000000000000000000005f526001600160e01b03191660045260245ffd5b506020526020603cf35b5f5160206129635f395f51905f52546001600160a01b0316801515926060929084611799575b6001600160f81b03198116607f60f91b0361172e57505f80916116ab612875565b90602082519201905afa926116be6122f0565b935b15611726576116d2575b825160208401f35b803b15610134576116fd5f92918392604051948580948193630b9dfbed60e11b835260048301611894565b03925af1801561036d57611712575b806116ca565b806103615f61172093611484565b8161170c565b835160208501fd5b6001600160f81b0319811661176457505f8091611749612875565b906020825192019034905af19261175e6122f0565b936116c0565b7fb96fcfe4000000000000000000000000000000000000000000000000000000005f526001600160f81b03191660045260245ffd5b925060405163d68f602560e01b81525f81806117ba3634336004850161186e565b038183875af190811561036d575f916117d5575b509261168a565b6117e991503d805f833e61038c8183611484565b856117ce565b67ffffffffffffffff8111610afa57601f01601f191660200190565b6020818303126101345780519067ffffffffffffffff8211610134570181601f820112156101345780519061183f826117ef565b9261184d6040519485611484565b8284526020838301011161013457815f9260208093018386015e8301015290565b61099193926001600160a01b03606093168252602082015281604082015201905f6114a6565b906020610991928181520190610d8b565b91906001600160a01b036118cd6001600160a01b035f5160206129635f395f51905f52541690565b16806118dd575061158b926119a1565b90916040519263d68f602560e01b84525f84806118ff3634336004850161186e565b038183875af193841561036d575f94611969575b5061191f9293946119a1565b803b156101345761194a5f92918392604051948580948193630b9dfbed60e11b835260048301611894565b03925af1801561036d5761195b5750565b806103615f61158b93611484565b61191f939450611982903d805f833e61038c8183611484565b9392611913565b90816020910312610134575180151581036101345790565b60405163ecd0596160e01b8152600160048201526001600160a01b038216939190602081602481885afa90811561036d575f91611a92575b5015611a6a576001600160a01b037f0000000000000000000000000000000000000000000000000000000000000000168414611a4257611a189061242d565b823b156101345761194a925f92836040518096819582946306d61fe760e41b8452600484016114c6565b7fabc3af79000000000000000000000000000000000000000000000000000000005f5260045ffd5b7fe27c1dd8000000000000000000000000000000000000000000000000000000005f5260045ffd5b611ab4915060203d602011611aba575b611aac8183611484565b810190611989565b5f6119d9565b503d611aa2565b91906001600160a01b03611ae96001600160a01b035f5160206129635f395f51905f52541690565b1680611af9575061158b92611b5b565b90916040519263d68f602560e01b84525f8480611b1b3634336004850161186e565b038183875af193841561036d575f94611b3b575b5061191f929394611b5b565b61191f939450611b54903d805f833e61038c8183611484565b9392611b2f565b60405163ecd0596160e01b8152600260048201526001600160a01b038216939190602081602481885afa90811561036d575f91611ba2575b5015611a6a57611a189061257e565b611bbb915060203d602011611aba57611aac8183611484565b5f611b93565b91906001600160a01b03611be96001600160a01b035f5160206129635f395f51905f52541690565b1680611bf9575061158b92611c98565b90916040519263d68f602560e01b84525f8480611c1b3634336004850161186e565b038183875af193841561036d575f94611c3b575b5061191f929394611c98565b61191f939450611c54903d805f833e61038c8183611484565b9392611c2f565b15611c635750565b6001600160a01b03907f741cbe03000000000000000000000000000000000000000000000000000000005f521660045260245ffd5b60405163ecd0596160e01b81526004808201526001600160a01b038216939190602081602481885afa90811561036d575f91611d3e575b5015611a6a57611a1890611d0a611cfa6001600160a01b035f5160206129635f395f51905f52541690565b6001600160a01b03811615611c5b565b6001600160a01b03166001600160a01b03195f5160206129635f395f51905f525416175f5160206129635f395f51905f5255565b611d57915060203d602011611aba57611aac8183611484565b5f611ccf565b91906001600160a01b03611d856001600160a01b035f5160206129635f395f51905f52541690565b1680611d95575061158b92611f39565b90916040519263d68f602560e01b84525f8480611db73634336004850161186e565b038183875af193841561036d575f94611dd7575b5061191f929394611f39565b61191f939450611df0903d805f833e61038c8183611484565b9392611dcb565b906004116101345790600490565b909291928360051161013457831161013457600501916004190190565b919091356001600160e01b031981169260048110611e3e575050565b6001600160e01b0319929350829060040360031b1b161690565b90600410156115185760040190565b15611e6e57565b7f867a1dcf000000000000000000000000000000000000000000000000000000005f5260045ffd5b929192611ea2826117ef565b91611eb06040519384611484565b829481845281830111610134578281602093845f960137010152565b15611ed357565b7fc001660b000000000000000000000000000000000000000000000000000000005f5260045ffd5b15611f035750565b6001600160e01b0319907fa56a04dd000000000000000000000000000000000000000000000000000000005f521660045260245ffd5b90916001600160a01b0382169160405163ecd0596160e01b815260208180611f6960048201906003602083019252565b0381875afa90811561036d575f91612175575b5015611a6a576120a18461206a611ffb611ff48680611fd2611fc5611fb783611fb1611fab6121009e8c611df7565b90611e22565b99611e58565b356001600160f81b03191690565b6001600160f81b03191690565b9a6001600160f81b03198c1615801561215e575b611fef90611e67565b611e05565b3691611e96565b9661202a6001600160e01b031984166306d61fe760e41b8114908115612134575b811561212b575b5015611ecc565b61203f8361203a610d828261266e565b611efb565b61205961204a61157c565b6001600160a01b039096168652565b6001600160f81b0319166020850152565b6001600160e01b0319165f527f0bb70095b32b9671358306b0339b4c06e7cbd8cb82505941fba30d1eb5b82f0260205260405f2090565b8151815460209093015174ff000000000000000000000000000000000000000060589190911c167fffffffffffffffffffffff0000000000000000000000000000000000000000009093166001600160a01b0390911617919091179055565b803b156101345761194a5f929183926040519485809481936306d61fe760e41b835260048301611894565b9050155f612023565b7f8a91b0e3000000000000000000000000000000000000000000000000000000008114915061201c565b50607f60f91b6001600160f81b03198d1614611fe6565b61218e915060203d602011611aba57611aac8183611484565b5f611f7c565b9291906001600160a01b036121bd6001600160a01b035f5160206129635f395f51905f52541690565b16806121cd575061158b9361226e565b916040939193519363d68f602560e01b85525f85806121f13634336004850161186e565b038183885af194851561036d575f95612211575b5061191f93949561226e565b61191f94955061222a903d805f833e61038c8183611484565b9493612205565b156122395750565b6001600160a01b03907fc689cd97000000000000000000000000000000000000000000000000000000005f521660045260245ffd5b60405163ecd0596160e01b8152600481018290526001600160a01b038316949290602081602481895afa90811561036d575f916122d1575b5015611a6a57816122cc6122bc611a18946126b8565b6001600160a01b03811615612231565b61271b565b6122ea915060203d602011611aba57611aac8183611484565b5f6122a6565b3d1561231a573d90612301826117ef565b9161230f6040519384611484565b82523d5f602084013e565b606090565b60015f525f5160206129835f395f51905f526020527fbdfeb076d903611fa58576955630d640569633049bcf40ad9c22db9251b54a13546001600160a01b03166123925760015f525f5160206129835f395f51905f5260205261158b60405f2060016001600160a01b0319825416179055565b7f53c85e66000000000000000000000000000000000000000000000000000000005f5260045ffd5b60015f525f5160206129435f395f51905f526020527ffe44ceacbf4f03c6ac19f86826dd265fa9ec25125e8b1766c207f24cd3bc73c7546001600160a01b03166123925760015f525f5160206129435f395f51905f5260205261158b60405f2060016001600160a01b0319825416179055565b6001600160a01b03811680158015612574575b612562575f9081525f5160206129435f395f51905f5260205260409020546001600160a01b031661252e5760015f525f5160206129435f395f51905f5260205261158b906124f36124b07ffe44ceacbf4f03c6ac19f86826dd265fa9ec25125e8b1766c207f24cd3bc73c7610c3c565b6124d8835f5160206129435f395f51905f52906001600160a01b03165f5260205260405f2090565b906001600160a01b03166001600160a01b0319825416179055565b60015f525f5160206129435f395f51905f526020527ffe44ceacbf4f03c6ac19f86826dd265fa9ec25125e8b1766c207f24cd3bc73c76124d8565b7f40d3d1a4000000000000000000000000000000000000000000000000000000005f526001600160a01b031660045260245ffd5b637c84ecfb60e01b5f5260045260245ffd5b5060018114612440565b6001600160a01b03811680158015612664575b612562575f9081525f5160206129835f395f51905f5260205260409020546001600160a01b031661252e5760015f525f5160206129835f395f51905f5260205261158b906126296126017fbdfeb076d903611fa58576955630d640569633049bcf40ad9c22db9251b54a13610c3c565b6124d8835f5160206129835f395f51905f52906001600160a01b03165f5260205260405f2090565b60015f525f5160206129835f395f51905f526020527fbdfeb076d903611fa58576955630d640569633049bcf40ad9c22db9251b54a136124d8565b5060018114612591565b6126b16001600160a01b03916001600160e01b0319165f527f0bb70095b32b9671358306b0339b4c06e7cbd8cb82505941fba30d1eb5b82f0260205260405f2090565b5416151590565b6008036126ed576001600160a01b037f0bb70095b32b9671358306b0339b4c06e7cbd8cb82505941fba30d1eb5b82f06541690565b6001600160a01b037f0bb70095b32b9671358306b0339b4c06e7cbd8cb82505941fba30d1eb5b82f05541690565b6008810361277e57506001600160a01b03166001600160a01b03197f0bb70095b32b9671358306b0339b4c06e7cbd8cb82505941fba30d1eb5b82f065416177f0bb70095b32b9671358306b0339b4c06e7cbd8cb82505941fba30d1eb5b82f0655565b6009146127885750565b6001600160a01b03166001600160a01b03197f0bb70095b32b9671358306b0339b4c06e7cbd8cb82505941fba30d1eb5b82f055416177f0bb70095b32b9671358306b0339b4c06e7cbd8cb82505941fba30d1eb5b82f0555565b67ffffffffffffffff8111610afa5760051b60200190565b90612804826127e2565b6128116040519182611484565b8281528092612822601f19916127e2565b0190602036910137565b80518210156115185760209160051b010190565b634e487b7160e01b5f52601160045260245ffd5b5f1981146128625760010190565b612840565b5f1981019190821161286257565b60405190602036830101604052816014360181525f602036920137604051601481016040523360601b9052565b6001600160a01b0316806001141590816128ba575090565b90505f525f5160206129435f395f51905f526020526001600160a01b0360405f205416151590565b6001600160a01b0316806001141590816128fa575090565b90505f525f5160206129835f395f51905f526020526001600160a01b0360405f20541615159056fed21d0b289f126c4b473ea641963e766833c2f13866e4ff480abd787c100ef1230bb70095b32b9671358306b0339b4c06e7cbd8cb82505941fba30d1eb5b82f000bb70095b32b9671358306b0339b4c06e7cbd8cb82505941fba30d1eb5b82f030bb70095b32b9671358306b0339b4c06e7cbd8cb82505941fba30d1eb5b82f01a164736f6c634300081b000a","linkReferences":{}},"methodIdentifiers":{"eip712Domain()":"84b0196e","getActiveHook()":"0a664dba","getDefaultValidator()":"0b3dc354","getExecutorsPaginated(address,uint256)":"ea5f61d0","getFallbackHandlerBySelector(bytes4)":"481ddd23","getValidatorsPaginated(address,uint256)":"5faac46b","initNexus((address,bytes)[],(address,bytes)[],(address,bytes),(address,bytes)[],(uint256,address,bytes)[])":"a8a33cf2","initNexusNoRegistry((address,bytes)[],(address,bytes)[],(address,bytes),(address,bytes)[],(uint256,address,bytes)[])":"86437876","initNexusScoped((address,bytes)[],(address,bytes))":"34ea61a5","initNexusScopedNoRegistry((address,bytes)[],(address,bytes))":"54ed06d5","initNexusWithDefaultValidator(bytes)":"31025984","initNexusWithDefaultValidatorAndOtherModules(bytes,(address,bytes)[],(address,bytes)[],(address,bytes),(address,bytes)[],(uint256,address,bytes)[])":"22091187","initNexusWithDefaultValidatorAndOtherModulesNoRegistry(bytes,(address,bytes)[],(address,bytes)[],(address,bytes),(address,bytes)[],(uint256,address,bytes)[])":"41bede03","initNexusWithSingleValidator(address,bytes)":"6d583e36","initNexusWithSingleValidatorNoRegistry(address,bytes)":"10b7fca9","installModule(uint256,address,bytes)":"9517e29f","isModuleInstalled(uint256,address,bytes)":"112d3a7d","uninstallModule(uint256,address,bytes)":"a71763a8"},"id":41}