{"abi":[{"type":"constructor","inputs":[{"name":"_defaultEpAddress","type":"address","internalType":"address"}],"stateMutability":"nonpayable"},{"type":"function","name":"DEFAULT_EP_ADDRESS","inputs":[],"outputs":[{"name":"","type":"address","internalType":"address"}],"stateMutability":"view"},{"type":"function","name":"executeComposable","inputs":[{"name":"cExecutions","type":"tuple[]","internalType":"struct ComposableExecution[]","components":[{"name":"functionSig","type":"bytes4","internalType":"bytes4"},{"name":"inputParams","type":"tuple[]","internalType":"struct InputParam[]","components":[{"name":"paramType","type":"uint8","internalType":"enum InputParamType"},{"name":"fetcherType","type":"uint8","internalType":"enum InputParamFetcherType"},{"name":"paramData","type":"bytes","internalType":"bytes"},{"name":"constraints","type":"tuple[]","internalType":"struct Constraint[]","components":[{"name":"constraintType","type":"uint8","internalType":"enum ConstraintType"},{"name":"referenceData","type":"bytes","internalType":"bytes"}]}]},{"name":"outputParams","type":"tuple[]","internalType":"struct OutputParam[]","components":[{"name":"fetcherType","type":"uint8","internalType":"enum OutputParamFetcherType"},{"name":"paramData","type":"bytes","internalType":"bytes"}]}]}],"outputs":[],"stateMutability":"payable"},{"type":"function","name":"executeComposableCall","inputs":[{"name":"cExecutions","type":"tuple[]","internalType":"struct ComposableExecution[]","components":[{"name":"functionSig","type":"bytes4","internalType":"bytes4"},{"name":"inputParams","type":"tuple[]","internalType":"struct InputParam[]","components":[{"name":"paramType","type":"uint8","internalType":"enum InputParamType"},{"name":"fetcherType","type":"uint8","internalType":"enum InputParamFetcherType"},{"name":"paramData","type":"bytes","internalType":"bytes"},{"name":"constraints","type":"tuple[]","internalType":"struct Constraint[]","components":[{"name":"constraintType","type":"uint8","internalType":"enum ConstraintType"},{"name":"referenceData","type":"bytes","internalType":"bytes"}]}]},{"name":"outputParams","type":"tuple[]","internalType":"struct OutputParam[]","components":[{"name":"fetcherType","type":"uint8","internalType":"enum OutputParamFetcherType"},{"name":"paramData","type":"bytes","internalType":"bytes"}]}]}],"outputs":[],"stateMutability":"nonpayable"},{"type":"function","name":"executeComposableDelegateCall","inputs":[{"name":"cExecutions","type":"tuple[]","internalType":"struct ComposableExecution[]","components":[{"name":"functionSig","type":"bytes4","internalType":"bytes4"},{"name":"inputParams","type":"tuple[]","internalType":"struct InputParam[]","components":[{"name":"paramType","type":"uint8","internalType":"enum InputParamType"},{"name":"fetcherType","type":"uint8","internalType":"enum InputParamFetcherType"},{"name":"paramData","type":"bytes","internalType":"bytes"},{"name":"constraints","type":"tuple[]","internalType":"struct Constraint[]","components":[{"name":"constraintType","type":"uint8","internalType":"enum ConstraintType"},{"name":"referenceData","type":"bytes","internalType":"bytes"}]}]},{"name":"outputParams","type":"tuple[]","internalType":"struct OutputParam[]","components":[{"name":"fetcherType","type":"uint8","internalType":"enum OutputParamFetcherType"},{"name":"paramData","type":"bytes","internalType":"bytes"}]}]}],"outputs":[],"stateMutability":"nonpayable"},{"type":"function","name":"getEntryPoint","inputs":[{"name":"account","type":"address","internalType":"address"}],"outputs":[{"name":"","type":"address","internalType":"address"}],"stateMutability":"view"},{"type":"function","name":"isInitialized","inputs":[{"name":"account","type":"address","internalType":"address"}],"outputs":[{"name":"","type":"bool","internalType":"bool"}],"stateMutability":"view"},{"type":"function","name":"isModuleType","inputs":[{"name":"moduleTypeId","type":"uint256","internalType":"uint256"}],"outputs":[{"name":"","type":"bool","internalType":"bool"}],"stateMutability":"pure"},{"type":"function","name":"onInstall","inputs":[{"name":"data","type":"bytes","internalType":"bytes"}],"outputs":[],"stateMutability":"nonpayable"},{"type":"function","name":"onUninstall","inputs":[{"name":"","type":"bytes","internalType":"bytes"}],"outputs":[],"stateMutability":"nonpayable"},{"type":"function","name":"setEntryPoint","inputs":[{"name":"_entryPoint","type":"address","internalType":"address"}],"outputs":[],"stateMutability":"nonpayable"},{"type":"error","name":"AlreadyInitialized","inputs":[{"name":"smartAccount","type":"address","internalType":"address"}]},{"type":"error","name":"ConstraintNotMet","inputs":[{"name":"constraintType","type":"uint8","internalType":"enum ConstraintType"}]},{"type":"error","name":"DelegateCallOnly","inputs":[]},{"type":"error","name":"FailedToReturnMsgValue","inputs":[]},{"type":"error","name":"InvalidConstraintType","inputs":[]},{"type":"error","name":"InvalidOutputParamFetcherType","inputs":[]},{"type":"error","name":"InvalidParameterEncoding","inputs":[{"name":"message","type":"string","internalType":"string"}]},{"type":"error","name":"InvalidSetOfInputParams","inputs":[{"name":"message","type":"string","internalType":"string"}]},{"type":"error","name":"NotInitialized","inputs":[{"name":"smartAccount","type":"address","internalType":"address"}]},{"type":"error","name":"OnlyEntryPointOrAccount","inputs":[]},{"type":"error","name":"Output_StaticCallFailed","inputs":[]},{"type":"error","name":"ZeroAddressNotAllowed","inputs":[]}],"bytecode":{"object":"0x60c0346100a457601f61189538819003918201601f19168301916001600160401b038311848410176100a8578084926020946040528339810103126100a457516001600160a01b0381168082036100a45761009c57506f71727de22e5e9d8baf0edac6f37da0326080525b3060a0526040516117d890816100bd823960805181818161026401528181610343015261047c015260a0518160ce0152f35b60805261006a565b5f80fd5b634e487b7160e01b5f52604160045260245ffdfe60806040526004361015610011575f80fd5b5f3560e01c806348a58db7146100b4578063584465f2146100af5780635e765374146100aa5780636d61fe70146100a55780637eba07b8146100a05780638a91b0e31461009b578063c9ce75b114610096578063d60b347f14610091578063dcb108bf1461008c5763ecd0596114610087575f80fd5b6104fe565b6104e6565b6104a0565b61045d565b610419565b610326565b61030f565b61021c565b610191565b34610128576100c23661012c565b90306001600160a01b037f00000000000000000000000000000000000000000000000000000000000000001614610100576100fe9130916107c6565b005b7f52cafe32000000000000000000000000000000000000000000000000000000005f5260045ffd5b5f80fd5b9060206003198301126101285760043567ffffffffffffffff811161012857826023820112156101285780600401359267ffffffffffffffff84116101285760248460051b83010111610128576024019190565b6001600160a01b0381160361012857565b34610128576020366003190112610128576004356101ae81610180565b6001600160a01b038116156101f4576100fe90335f525f60205260405f20906001600160a01b031673ffffffffffffffffffffffffffffffffffffffff19825416179055565b7f8579befe000000000000000000000000000000000000000000000000000000005f5260045ffd5b34610128576020366003190112610128576001600160a01b0360043561024181610180565b16805f525f6020526001600160a01b0360405f205416155f146102a2575061029e7f00000000000000000000000000000000000000000000000000000000000000005b6040516001600160a01b0390911681529081906020820190565b0390f35b5f525f60205261029e6001600160a01b0360405f205416610284565b9060206003198301126101285760043567ffffffffffffffff811161012857826023820112156101285780600401359267ffffffffffffffff84116101285760248483010111610128576024019190565b34610128576100fe610320366102be565b90610584565b61032f3661012c565b9060131936013560601c6001600160a01b037f00000000000000000000000000000000000000000000000000000000000000001681149081156103fa575b81156103f0575b50156103c8573461038b575b6100fe9133916108a0565b5f80808034335af161039b61090b565b50610380577f361241bd000000000000000000000000000000000000000000000000000000005f5260045ffd5b7f0e4204bc000000000000000000000000000000000000000000000000000000005f5260045ffd5b905033145f610374565b9050335f525f6020526001600160a01b0360405f20541681149061036d565b3461012857610427366102be565b5050335f525f60205260405f2073ffffffffffffffffffffffffffffffffffffffff1981541690555f80f35b5f91031261012857565b34610128575f3660031901126101285760206040516001600160a01b037f0000000000000000000000000000000000000000000000000000000000000000168152f35b34610128576020366003190112610128576001600160a01b036004356104c581610180565b165f525f60205260206001600160a01b0360405f2054161515604051908152f35b34610128576100fe6104f73661012c565b33916108a0565b346101285760203660031901126101285760206004356002811490811561052b575b506040519015158152f35b60039150145f610520565b906014116101285790601490565b356bffffffffffffffffffffffff19811692919060148210610564575050565b6bffffffffffffffffffffffff1960149290920360031b82901b16169150565b906014811015610592575050565b335f525f6020526001600160a01b0360405f20541661060e576105c46105be6105ca9261060c94610536565b90610544565b60601c90565b6105e4336001600160a01b03165f525f60205260405f2090565b906001600160a01b031673ffffffffffffffffffffffffffffffffffffffff19825416179055565b565b6106316105be6001600160a01b0392335f525f6020528360405f20541694610536565b60601c160361063c57565b7f93360fbf000000000000000000000000000000000000000000000000000000005f526001600160a01b03331660045260245ffd5b634e487b7160e01b5f52604160045260245ffd5b90601f8019910116810190811067ffffffffffffffff8211176106a757604052565b610671565b6040519061060c606083610685565b67ffffffffffffffff81116106a75760051b60200190565b604080519091906106e48382610685565b6001815291601f1901825f5b8281106106fc57505050565b8060606020809385010152016106f0565b634e487b7160e01b5f52603260045260245ffd5b80511561072e5760200190565b61070d565b903590601e1981360301821215610128570180359067ffffffffffffffff821161012857602001918160051b3603831361012857565b357fffffffff00000000000000000000000000000000000000000000000000000000811681036101285790565b67ffffffffffffffff81116106a757601f01601f191660200190565b604051906107c1602083610685565b5f8252565b9091925f5b83811015610899578060051b83013590605e1984360301821215610128576108628660019386016108116108026020830183610733565b61080b84610769565b91610c08565b61083161082582516001600160a01b031690565b6001600160a01b031690565b156108685761085361084761085b92600261174a565b925b6040810190610733565b919092610721565b5191610f44565b016107cb565b5061085b6108536108776106d3565b926108806107b2565b61088985610721565b5261089384610721565b50610849565b5092505050565b9091925f5b83811015610899578060051b83013590605e1984360301821215610128576109058660019386016108dc6108026020830183610733565b6108f061082582516001600160a01b031690565b156108685761085361084761085b928861174a565b016108a5565b3d15610935573d9061091c82610796565b9161092a6040519384610685565b82523d5f602084013e565b606090565b6020818303126101285780519067ffffffffffffffff821161012857019080601f830112156101285781519161096f836106bb565b9261097d6040519485610685565b80845260208085019160051b830101918383116101285760208101915b8383106109a957505050505090565b825167ffffffffffffffff811161012857820185603f82011215610128576020810151916109d683610796565b6109e36040519182610685565b8381526040838501018810610128575f602085819660408397018386015e8301015281520192019161099a565b9060609260209183526040828401528051918291826040860152018484015e5f828201840152601f01601f1916010190565b6040513d5f823e3d90fd5b5f610ae591610ab0610a8d60405184602082015284602182015284602282015284602682015284602a82015260208152610a88604082610685565b6113e4565b91610a9f81516001600160a01b031690565b906040602082015191015191611076565b9060405193849283927fd691c96400000000000000000000000000000000000000000000000000000000845260048401610a10565b038183335af1908115610b1b575f91610afc575090565b610b1891503d805f833e610b108183610685565b81019061093a565b90565b610a42565b604051906060820182811067ffffffffffffffff8211176106a75760405260606040835f81525f60208201520152565b919081101561072e5760051b81013590607e1981360301821215610128570190565b634e487b7160e01b5f52602160045260245ffd5b60031115610b9057565b610b72565b3560038110156101285790565b805191908290602001825e015f815290565b61060c90610bd6610bd094936040519586936020850190610ba2565b90610ba2565b03601f198101845283610685565b90816020910312610128575190565b908160209103126101285751610b1881610180565b9091610c12610b20565b506040517fffffffff0000000000000000000000000000000000000000000000000000000090911660208201525f928391610c5a81602481015b03601f198101835282610685565b925f91825b818410610c915750505050610c84610c756106ac565b6001600160a01b039094168452565b6020830152604082015290565b610ca7610ca28584869a979a610b50565b61116d565b93610cbb610cb6898587610b50565b610b95565b610cc481610b86565b610df357506002610ce16020610cdb8a8688610b50565b01610b95565b610cea81610b86565b14610d875760018116610d1b57610d1261082560018093179560208082518301019101610bf3565b965b0192610c5f565b604051634d038a6760e11b815260206004820152602660248201527f54415247455420706172616d20747970652063616e206f6e6c7920626520736560448201527f74206f6e636500000000000000000000000000000000000000000000000000006064820152608490fd5b604051635107885760e11b815260206004820152603b60248201527f42414c414e434520666574636865722074797065206973206e6f74207375707060448201527f6f7274656420666f722054415247455420706172616d207479706500000000006064820152608490fd5b96946001610e05610cb6888688610b50565b610e0e81610b86565b03610ea7575060028116610e3b57610e356002600192179460208082518301019101610be4565b94610d14565b604051634d038a6760e11b815260206004820152602560248201527f56414c554520706172616d20747970652063616e206f6e6c792062652073657460448201527f206f6e63650000000000000000000000000000000000000000000000000000006064820152608490fd5b94956002610ebc610cb6898688999699610b50565b610ec581610b86565b03610edc57600191610ed691610bb4565b95610d14565b604051635107885760e11b815260206004820152601260248201527f496e76616c696420706172616d207479706500000000000000000000000000006044820152606490fd5b919081101561072e5760051b81013590603e1981360301821215610128570190565b91905f5b818110610f56575050505050565b610f61818386610f22565b9085610f6c836113d7565b610f75816113cd565b610fa757610fa190610f8d84602060019601906110ab565b50604081013590876020820135913561165c565b01610f48565b50906001610fb4826113d7565b610fbd816113cd565b0361104e57806020610fd09201906110ab565b50905f80610ff0604085013585016040519182826020829435910161112a565b039060208601355afa61100161090b565b90156110265786611021918460806001960135916060820135913561165c565b610fa1565b7f6e47f619000000000000000000000000000000000000000000000000000000005f5260045ffd5b7fe2121978000000000000000000000000000000000000000000000000000000005f5260045ffd5b610c4c610b1892936040519485936bffffffffffffffffffffffff199060601b16602085015260348401526054830190610ba2565b903590601e1981360301821215610128570180359067ffffffffffffffff82116101285760200191813603831361012857565b156110e557565b6064604051635107885760e11b815260206004820152601860248201527f496e76616c696420706172616d44617461206c656e67746800000000000000006044820152fd5b908092918237015f815290565b92919261114382610796565b916111516040519384610685565b829481845281830111610128578281602093845f960137010152565b6060906020810161117d81610b95565b61118681610b86565b6111d15750610b1891508060406111ca9201906111c56111a683836110ab565b6111c06111b66060860186610733565b9390923691611137565b611500565b6110ab565b3691611137565b60016111dc82610b95565b6111e581610b86565b0361124f575090505f806111fc60408401846110ab565b50604051806112168160208581013586018035910161112a565b0391355afa9061122461090b565b91156112425761123b816060610b18930190610733565b9083611500565b636533cc8d5f526004601cfd5b61125a600291610b95565b61126381610b86565b0361138757602861128261127a60408401846110ab565b9092146110de565b6014810135831c9035831c806112ef5750906112db610c4c936112d5610b189431935b604051926112cd846112bf88602083019190602083019252565b03601f198101865285610685565b810190610733565b91611500565b604051928391602083019190602083019252565b6040517f70a082310000000000000000000000000000000000000000000000000000000081526001600160a01b03929092166004830152909190602090839060249082905afa8015610b1b57610c4c936112d56112db92610b18955f91611358575b50936112a5565b61137a915060203d602011611380575b6113728183610685565b810190610be4565b5f611351565b503d611368565b604051635107885760e11b815260206004820152601a60248201527f496e76616c696420706172616d206665746368657220747970650000000000006044820152606490fd5b60021115610b9057565b3560028110156101285790565b6020815191015190602081106113f8575090565b5f199060200360031b1b1690565b60408136031261012857604051906040820182811067ffffffffffffffff8211176106a7576040528035600481101561012857825260208101359067ffffffffffffffff8211610128570136601f820112156101285761146d903690602081359101611137565b602082015290565b60041115610b9057565b9190826040910312610128576020825192015190565b1561149c57565b630a31844b60e41b5f52600360045260245ffd5b156114b757565b630a31844b60e41b5f52600260045260245ffd5b156114d257565b630a31844b60e41b5f52600160045260245ffd5b156114ed57565b630a31844b60e41b5f525f60045260245ffd5b918061150b57505050565b5f5b81811061151a5750505050565b61152d611528828486610f22565b611406565b9060208160051b8601015191805161154481611475565b61154d81611475565b61157057600192611564602061156a9301516113e4565b146114e6565b0161150d565b6001815161157d81611475565b61158681611475565b036115aa5760019261159e60206115a59301516113e4565b11156114cb565b61156a565b600281516115b781611475565b6115c081611475565b036115df576001926115d860206115a59301516113e4565b10156114b0565b600381516115ec81611475565b6115f581611475565b036116345760019261161760206115a59301516020808251830101910161147f565b908210159182611629575b5050611495565b111590505f80611622565b7f2c50c45e000000000000000000000000000000000000000000000000000000005f5260045ffd5b929193905f5b84811061167157505050505050565b60208160051b83010151906001600160a01b0387169160405160208101906116a981610c4c868b869091604092825260208201520190565b519020833b15610128576040517fa39e0787000000000000000000000000000000000000000000000000000000008152600481019190915260248101919091526001600160a01b0385166044820152915f908390606490829084905af1918215610b1b5760019261171c575b5001611662565b8061172a5f61173093610685565b80610453565b5f611715565b634e487b7160e01b5f52605160045260245ffd5b806002146117625760010361173657610b1890610a4d565b5061176b6106d3565b905f6001600160a01b038251169160406020820151910151604051933892602083519301915af1156117c3573d81523d5f602083013e60203d82010160405281511561072e5760208201526117bf81610721565b5090565b3d5f823e3d90fdfea164736f6c634300081b000a","linkReferences":{}},"methodIdentifiers":{"DEFAULT_EP_ADDRESS()":"c9ce75b1","executeComposable((bytes4,(uint8,uint8,bytes,(uint8,bytes)[])[],(uint8,bytes)[])[])":"7eba07b8","executeComposableCall((bytes4,(uint8,uint8,bytes,(uint8,bytes)[])[],(uint8,bytes)[])[])":"dcb108bf","executeComposableDelegateCall((bytes4,(uint8,uint8,bytes,(uint8,bytes)[])[],(uint8,bytes)[])[])":"48a58db7","getEntryPoint(address)":"5e765374","isInitialized(address)":"d60b347f","isModuleType(uint256)":"ecd05961","onInstall(bytes)":"6d61fe70","onUninstall(bytes)":"8a91b0e3","setEntryPoint(address)":"584465f2"},"id":2}