{"abi":[{"type":"function","name":"getNamespace","inputs":[{"name":"account","type":"address","internalType":"address"},{"name":"_caller","type":"address","internalType":"address"}],"outputs":[{"name":"result","type":"bytes32","internalType":"bytes32"}],"stateMutability":"pure"},{"type":"function","name":"getNamespacedSlot","inputs":[{"name":"namespace","type":"bytes32","internalType":"bytes32"},{"name":"slot","type":"bytes32","internalType":"bytes32"}],"outputs":[{"name":"result","type":"bytes32","internalType":"bytes32"}],"stateMutability":"pure"},{"type":"function","name":"isSlotInitialized","inputs":[{"name":"namespace","type":"bytes32","internalType":"bytes32"},{"name":"slot","type":"bytes32","internalType":"bytes32"}],"outputs":[{"name":"","type":"bool","internalType":"bool"}],"stateMutability":"view"},{"type":"function","name":"readStorage","inputs":[{"name":"namespace","type":"bytes32","internalType":"bytes32"},{"name":"slot","type":"bytes32","internalType":"bytes32"}],"outputs":[{"name":"","type":"bytes32","internalType":"bytes32"}],"stateMutability":"view"},{"type":"function","name":"writeStorage","inputs":[{"name":"slot","type":"bytes32","internalType":"bytes32"},{"name":"value","type":"bytes32","internalType":"bytes32"},{"name":"account","type":"address","internalType":"address"}],"outputs":[],"stateMutability":"nonpayable"},{"type":"error","name":"SlotNotInitialized","inputs":[]}],"bytecode":{"object":"0x60808060405234601557610210908161001a8239f35b5f80fdfe60806040526004361015610011575f80fd5b5f3560e01c80632824be8b14610064578063882694b41461005f5780638ffcaed51461005a578063a39e0787146100555763b65ad19714610050575f80fd5b61019a565b610134565b6100f9565b610092565b3461008e57604036600319011261008e57600435602435905f5260205260405f2060805260206080f35b5f80fd5b3461008e57604036600319011261008e5760043573ffffffffffffffffffffffffffffffffffffffff8116810361008e576024359073ffffffffffffffffffffffffffffffffffffffff8216820361008e575f526014526028600c20602090604051908152f35b3461008e57604036600319011261008e57600435602435905f5260205260405f205f525f602052602060ff60405f2054166040519015158152f35b3461008e57606036600319011261008e5760243560043560443573ffffffffffffffffffffffffffffffffffffffff8116810361008e575f52336014526028600c205f5260205260405f20805f525f60205260405f20600160ff19825416179055555f80f35b3461008e57604036600319011261008e57600435602435905f5260205260405f20805f525f60205260ff60405f205416156101db5754604051908152602090f35b7f1993adfd000000000000000000000000000000000000000000000000000000005f5260045ffdfea164736f6c634300081b000a","linkReferences":{}},"methodIdentifiers":{"getNamespace(address,address)":"882694b4","getNamespacedSlot(bytes32,bytes32)":"2824be8b","isSlotInitialized(bytes32,bytes32)":"8ffcaed5","readStorage(bytes32,bytes32)":"b65ad197","writeStorage(bytes32,bytes32,address)":"a39e0787"},"id":3}