{"abi":[{"type":"fallback","stateMutability":"payable"},{"type":"receive","stateMutability":"payable"},{"type":"function","name":"forward","inputs":[{"name":"destination","type":"address","internalType":"address"}],"outputs":[],"stateMutability":"payable"},{"type":"error","name":"ForwardFailed","inputs":[]},{"type":"error","name":"ZeroAddress","inputs":[]}],"bytecode":{"object":"0x6080806040523460155761014d908161001a8239f35b5f80fdfe60806040526004361015610018575b366100bd576100bd565b5f3560e01c63101e89520361000e5760203660031901126100b95760043573ffffffffffffffffffffffffffffffffffffffff81168082036100b95715610091575f8080809334905af11561006957005b7f096dc0e1000000000000000000000000000000000000000000000000000000005f5260045ffd5b7fd92e233d000000000000000000000000000000000000000000000000000000005f5260045ffd5b5f80fd5b60846040517f08c379a0000000000000000000000000000000000000000000000000000000008152602060048201526024808201527f55736520666f727761726428292066756e6374696f6e20746f2073656e64204560448201527f74686572000000000000000000000000000000000000000000000000000000006064820152fdfea164736f6c634300081b000a","linkReferences":{}},"methodIdentifiers":{"forward(address)":"101e8952"},"id":4}