{"abi":[{"type":"constructor","inputs":[{"name":"anEntryPoint","type":"address","internalType":"address"},{"name":"defaultValidator","type":"address","internalType":"address"},{"name":"initData","type":"bytes","internalType":"bytes"}],"stateMutability":"nonpayable"},{"type":"fallback","stateMutability":"payable"},{"type":"receive","stateMutability":"payable"},{"type":"function","name":"accountId","inputs":[],"outputs":[{"name":"","type":"string","internalType":"string"}],"stateMutability":"pure"},{"type":"function","name":"addDeposit","inputs":[],"outputs":[],"stateMutability":"payable"},{"type":"function","name":"eip712Domain","inputs":[],"outputs":[{"name":"fields","type":"bytes1","internalType":"bytes1"},{"name":"name","type":"string","internalType":"string"},{"name":"version","type":"string","internalType":"string"},{"name":"chainId","type":"uint256","internalType":"uint256"},{"name":"verifyingContract","type":"address","internalType":"address"},{"name":"salt","type":"bytes32","internalType":"bytes32"},{"name":"extensions","type":"uint256[]","internalType":"uint256[]"}],"stateMutability":"view"},{"type":"function","name":"emergencyUninstallHook","inputs":[{"name":"data","type":"tuple","internalType":"struct EmergencyUninstall","components":[{"name":"hook","type":"address","internalType":"address"},{"name":"hookType","type":"uint256","internalType":"uint256"},{"name":"deInitData","type":"bytes","internalType":"bytes"},{"name":"nonce","type":"uint256","internalType":"uint256"}]},{"name":"signature","type":"bytes","internalType":"bytes"}],"outputs":[],"stateMutability":"payable"},{"type":"function","name":"entryPoint","inputs":[],"outputs":[{"name":"","type":"address","internalType":"address"}],"stateMutability":"view"},{"type":"function","name":"execute","inputs":[{"name":"mode","type":"bytes32","internalType":"ExecutionMode"},{"name":"executionCalldata","type":"bytes","internalType":"bytes"}],"outputs":[],"stateMutability":"payable"},{"type":"function","name":"executeComposable","inputs":[{"name":"executions","type":"tuple[]","internalType":"struct ComposableExecution[]","components":[{"name":"functionSig","type":"bytes4","internalType":"bytes4"},{"name":"inputParams","type":"tuple[]","internalType":"struct InputParam[]","components":[{"name":"paramType","type":"uint8","internalType":"enum InputParamType"},{"name":"fetcherType","type":"uint8","internalType":"enum InputParamFetcherType"},{"name":"paramData","type":"bytes","internalType":"bytes"},{"name":"constraints","type":"tuple[]","internalType":"struct Constraint[]","components":[{"name":"constraintType","type":"uint8","internalType":"enum ConstraintType"},{"name":"referenceData","type":"bytes","internalType":"bytes"}]}]},{"name":"outputParams","type":"tuple[]","internalType":"struct OutputParam[]","components":[{"name":"fetcherType","type":"uint8","internalType":"enum OutputParamFetcherType"},{"name":"paramData","type":"bytes","internalType":"bytes"}]}]}],"outputs":[],"stateMutability":"payable"},{"type":"function","name":"executeFromExecutor","inputs":[{"name":"mode","type":"bytes32","internalType":"ExecutionMode"},{"name":"executionCalldata","type":"bytes","internalType":"bytes"}],"outputs":[{"name":"returnData","type":"bytes[]","internalType":"bytes[]"}],"stateMutability":"payable"},{"type":"function","name":"executeUserOp","inputs":[{"name":"userOp","type":"tuple","internalType":"struct PackedUserOperation","components":[{"name":"sender","type":"address","internalType":"address"},{"name":"nonce","type":"uint256","internalType":"uint256"},{"name":"initCode","type":"bytes","internalType":"bytes"},{"name":"callData","type":"bytes","internalType":"bytes"},{"name":"accountGasLimits","type":"bytes32","internalType":"bytes32"},{"name":"preVerificationGas","type":"uint256","internalType":"uint256"},{"name":"gasFees","type":"bytes32","internalType":"bytes32"},{"name":"paymasterAndData","type":"bytes","internalType":"bytes"},{"name":"signature","type":"bytes","internalType":"bytes"}]},{"name":"","type":"bytes32","internalType":"bytes32"}],"outputs":[],"stateMutability":"payable"},{"type":"function","name":"getActiveHook","inputs":[],"outputs":[{"name":"hook","type":"address","internalType":"address"}],"stateMutability":"view"},{"type":"function","name":"getDefaultValidator","inputs":[],"outputs":[{"name":"","type":"address","internalType":"address"}],"stateMutability":"view"},{"type":"function","name":"getDeposit","inputs":[],"outputs":[{"name":"result","type":"uint256","internalType":"uint256"}],"stateMutability":"view"},{"type":"function","name":"getExecutorsPaginated","inputs":[{"name":"cursor","type":"address","internalType":"address"},{"name":"size","type":"uint256","internalType":"uint256"}],"outputs":[{"name":"array","type":"address[]","internalType":"address[]"},{"name":"next","type":"address","internalType":"address"}],"stateMutability":"view"},{"type":"function","name":"getFallbackHandlerBySelector","inputs":[{"name":"selector","type":"bytes4","internalType":"bytes4"}],"outputs":[{"name":"","type":"bytes1","internalType":"CallType"},{"name":"","type":"address","internalType":"address"}],"stateMutability":"view"},{"type":"function","name":"getImplementation","inputs":[],"outputs":[{"name":"implementation","type":"address","internalType":"address"}],"stateMutability":"view"},{"type":"function","name":"getValidatorsPaginated","inputs":[{"name":"cursor","type":"address","internalType":"address"},{"name":"size","type":"uint256","internalType":"uint256"}],"outputs":[{"name":"array","type":"address[]","internalType":"address[]"},{"name":"next","type":"address","internalType":"address"}],"stateMutability":"view"},{"type":"function","name":"initializeAccount","inputs":[{"name":"initData","type":"bytes","internalType":"bytes"}],"outputs":[],"stateMutability":"payable"},{"type":"function","name":"installModule","inputs":[{"name":"moduleTypeId","type":"uint256","internalType":"uint256"},{"name":"module","type":"address","internalType":"address"},{"name":"initData","type":"bytes","internalType":"bytes"}],"outputs":[],"stateMutability":"payable"},{"type":"function","name":"isInitialized","inputs":[],"outputs":[{"name":"","type":"bool","internalType":"bool"}],"stateMutability":"view"},{"type":"function","name":"isModuleInstalled","inputs":[{"name":"moduleTypeId","type":"uint256","internalType":"uint256"},{"name":"module","type":"address","internalType":"address"},{"name":"additionalContext","type":"bytes","internalType":"bytes"}],"outputs":[{"name":"","type":"bool","internalType":"bool"}],"stateMutability":"view"},{"type":"function","name":"isValidSignature","inputs":[{"name":"hash","type":"bytes32","internalType":"bytes32"},{"name":"signature","type":"bytes","internalType":"bytes"}],"outputs":[{"name":"","type":"bytes4","internalType":"bytes4"}],"stateMutability":"view"},{"type":"function","name":"proxiableUUID","inputs":[],"outputs":[{"name":"","type":"bytes32","internalType":"bytes32"}],"stateMutability":"view"},{"type":"function","name":"supportsExecutionMode","inputs":[{"name":"mode","type":"bytes32","internalType":"ExecutionMode"}],"outputs":[{"name":"isSupported","type":"bool","internalType":"bool"}],"stateMutability":"view"},{"type":"function","name":"supportsModule","inputs":[{"name":"moduleTypeId","type":"uint256","internalType":"uint256"}],"outputs":[{"name":"","type":"bool","internalType":"bool"}],"stateMutability":"view"},{"type":"function","name":"uninstallModule","inputs":[{"name":"moduleTypeId","type":"uint256","internalType":"uint256"},{"name":"module","type":"address","internalType":"address"},{"name":"deInitData","type":"bytes","internalType":"bytes"}],"outputs":[],"stateMutability":"payable"},{"type":"function","name":"upgradeToAndCall","inputs":[{"name":"newImplementation","type":"address","internalType":"address"},{"name":"data","type":"bytes","internalType":"bytes"}],"outputs":[],"stateMutability":"payable"},{"type":"function","name":"validateUserOp","inputs":[{"name":"op","type":"tuple","internalType":"struct PackedUserOperation","components":[{"name":"sender","type":"address","internalType":"address"},{"name":"nonce","type":"uint256","internalType":"uint256"},{"name":"initCode","type":"bytes","internalType":"bytes"},{"name":"callData","type":"bytes","internalType":"bytes"},{"name":"accountGasLimits","type":"bytes32","internalType":"bytes32"},{"name":"preVerificationGas","type":"uint256","internalType":"uint256"},{"name":"gasFees","type":"bytes32","internalType":"bytes32"},{"name":"paymasterAndData","type":"bytes","internalType":"bytes"},{"name":"signature","type":"bytes","internalType":"bytes"}]},{"name":"userOpHash","type":"bytes32","internalType":"bytes32"},{"name":"missingAccountFunds","type":"uint256","internalType":"uint256"}],"outputs":[{"name":"validationData","type":"uint256","internalType":"uint256"}],"stateMutability":"nonpayable"},{"type":"function","name":"withdrawDepositTo","inputs":[{"name":"to","type":"address","internalType":"address"},{"name":"amount","type":"uint256","internalType":"uint256"}],"outputs":[],"stateMutability":"payable"},{"type":"event","name":"EmergencyHookUninstallRequest","inputs":[{"name":"hook","type":"address","indexed":false,"internalType":"address"},{"name":"timestamp","type":"uint256","indexed":false,"internalType":"uint256"}],"anonymous":false},{"type":"event","name":"EmergencyHookUninstallRequestReset","inputs":[{"name":"hook","type":"address","indexed":false,"internalType":"address"},{"name":"timestamp","type":"uint256","indexed":false,"internalType":"uint256"}],"anonymous":false},{"type":"event","name":"ModuleInstalled","inputs":[{"name":"moduleTypeId","type":"uint256","indexed":false,"internalType":"uint256"},{"name":"module","type":"address","indexed":false,"internalType":"address"}],"anonymous":false},{"type":"event","name":"ModuleUninstalled","inputs":[{"name":"moduleTypeId","type":"uint256","indexed":false,"internalType":"uint256"},{"name":"module","type":"address","indexed":false,"internalType":"address"}],"anonymous":false},{"type":"event","name":"TryDelegateCallUnsuccessful","inputs":[{"name":"callData","type":"bytes","indexed":false,"internalType":"bytes"},{"name":"result","type":"bytes","indexed":false,"internalType":"bytes"}],"anonymous":false},{"type":"event","name":"TryExecuteUnsuccessful","inputs":[{"name":"callData","type":"bytes","indexed":false,"internalType":"bytes"},{"name":"result","type":"bytes","indexed":false,"internalType":"bytes"}],"anonymous":false},{"type":"event","name":"Upgraded","inputs":[{"name":"implementation","type":"address","indexed":true,"internalType":"address"}],"anonymous":false},{"type":"error","name":"AccountAccessUnauthorized","inputs":[]},{"type":"error","name":"AccountAlreadyInitialized","inputs":[]},{"type":"error","name":"AccountNotInitialized","inputs":[]},{"type":"error","name":"ConstraintNotMet","inputs":[{"name":"constraintType","type":"uint8","internalType":"enum ConstraintType"}]},{"type":"error","name":"DefaultValidatorAlreadyInstalled","inputs":[]},{"type":"error","name":"ERC7702AccountCannotBeUpgradedThisWay","inputs":[]},{"type":"error","name":"EmergencyTimeLockNotExpired","inputs":[]},{"type":"error","name":"EmergencyUninstallSigError","inputs":[]},{"type":"error","name":"EntryPointCanNotBeZero","inputs":[]},{"type":"error","name":"FallbackAlreadyInstalledForSelector","inputs":[{"name":"selector","type":"bytes4","internalType":"bytes4"}]},{"type":"error","name":"FallbackCallTypeInvalid","inputs":[]},{"type":"error","name":"FallbackNotInstalledForSelector","inputs":[{"name":"selector","type":"bytes4","internalType":"bytes4"}]},{"type":"error","name":"FallbackSelectorForbidden","inputs":[]},{"type":"error","name":"HookAlreadyInstalled","inputs":[{"name":"currentHook","type":"address","internalType":"address"}]},{"type":"error","name":"HookPostCheckFailed","inputs":[]},{"type":"error","name":"InvalidConstraintType","inputs":[]},{"type":"error","name":"InvalidImplementationAddress","inputs":[]},{"type":"error","name":"InvalidInitData","inputs":[]},{"type":"error","name":"InvalidInput","inputs":[]},{"type":"error","name":"InvalidModule","inputs":[{"name":"module","type":"address","internalType":"address"}]},{"type":"error","name":"InvalidModuleTypeId","inputs":[{"name":"moduleTypeId","type":"uint256","internalType":"uint256"}]},{"type":"error","name":"InvalidNonce","inputs":[]},{"type":"error","name":"InvalidOutputParamFetcherType","inputs":[]},{"type":"error","name":"InvalidParameterEncoding","inputs":[{"name":"message","type":"string","internalType":"string"}]},{"type":"error","name":"InvalidSetOfInputParams","inputs":[{"name":"message","type":"string","internalType":"string"}]},{"type":"error","name":"InvalidSignature","inputs":[]},{"type":"error","name":"LinkedList_AlreadyInitialized","inputs":[]},{"type":"error","name":"LinkedList_EntryAlreadyInList","inputs":[{"name":"entry","type":"address","internalType":"address"}]},{"type":"error","name":"LinkedList_InvalidEntry","inputs":[{"name":"entry","type":"address","internalType":"address"}]},{"type":"error","name":"LinkedList_InvalidPage","inputs":[]},{"type":"error","name":"MismatchModuleTypeId","inputs":[]},{"type":"error","name":"ModuleAddressCanNotBeZero","inputs":[]},{"type":"error","name":"ModuleAlreadyInstalled","inputs":[{"name":"moduleTypeId","type":"uint256","internalType":"uint256"},{"name":"module","type":"address","internalType":"address"}]},{"type":"error","name":"ModuleNotInstalled","inputs":[{"name":"moduleTypeId","type":"uint256","internalType":"uint256"},{"name":"module","type":"address","internalType":"address"}]},{"type":"error","name":"Output_StaticCallFailed","inputs":[]},{"type":"error","name":"PrevalidationHookAlreadyInstalled","inputs":[{"name":"currentPreValidationHook","type":"address","internalType":"address"}]},{"type":"error","name":"UnauthorizedCallContext","inputs":[]},{"type":"error","name":"UnauthorizedOperation","inputs":[{"name":"operator","type":"address","internalType":"address"}]},{"type":"error","name":"UnsupportedCallType","inputs":[{"name":"callType","type":"bytes1","internalType":"CallType"}]},{"type":"error","name":"UnsupportedExecType","inputs":[{"name":"execType","type":"bytes1","internalType":"ExecType"}]},{"type":"error","name":"UnsupportedModuleType","inputs":[{"name":"moduleTypeId","type":"uint256","internalType":"uint256"}]},{"type":"error","name":"UpgradeFailed","inputs":[]}],"bytecode":{"object":"0x610180806040523461030a5761637d803803809161001d8285610376565b833981019060608183031261030a5761003581610399565b9061004260208201610399565b604082015190916001600160401b03821161030a57019280601f8501121561030a5783516001600160401b038111610362576040519461008c601f8301601f191660200187610376565b81865260208601926020838301011161030a57815f926020809301855e860101523060a0524660c05260409360a085516100c68782610376565b600581526020810190644e6578757360d81b82528751916100e78984610376565b6005835264312e332e3160d81b6020938401529051902060e08190527fd6f9477f1bbaaf55b72b2869a6c4697af6529f6af9f67d87058f1bf5bec0188761010081905288517f8b73c3c69bb8fe3d512ecc4cf759cc79239f7b179b0ffacaa9a75d522b39400f815280840192909252818901524660608201523060808201529190912061012052855163ecd0596160e01b8152600160048201526001600160a01b038516939181602481875afa908115610358575f9161031d575b501561030e57823b1561030a576044925f928388519586809581946306d61fe760e41b8352602060048401525180918160248501528484015e8181018301849052601f01601f191681010301925af18015610300576102f0575b506101405230610160526001600160a01b038116156102e15760805251615fcf90816103ae82396080518181816103c90152818161068f0152818161082301528181610f5e0152818161113401528181611206015281816113db0152818161152d015281816115760152818161184501526121a2015260a051816144d2015260c051816144f5015260e051816145650152610100518161458b015261012051816144b101526101405181818161024101528181611fb101528181612b9101528181612bee01528181613dc001526153420152610160518181816109de01526121710152f35b6307e355bf60e31b5f5260045ffd5b5f6102fa91610376565b5f6101fc565b84513d5f823e3d90fd5b5f80fd5b631c4f83bb60e31b5f5260045ffd5b90506020813d602011610350575b8161033860209383610376565b8101031261030a5751801515810361030a575f6101a2565b3d915061032b565b87513d5f823e3d90fd5b634e487b7160e01b5f52604160045260245ffd5b601f909101601f19168101906001600160401b0382119082101761036257604052565b51906001600160a01b038216820361030a5756fe60806040526004361015610015575b366127fd57005b5f3560e01c80630a664dba146101d45780630b3dc354146101cf578063112d3a7d146101ca5780631626ba7e146101c557806319822f7c146101c0578063392e53cd146101bb578063481ddd23146101b65780634a58db19146101b15780634b6a1419146101ac5780634d44560d146101a75780634f1ef286146101a257806352d1902d1461019d5780635bfeadbb146101985780635faac46b146101935780637eba07b81461018e57806384b0196e146101895780638dd7712f146101845780639517e29f1461017f5780639cfd7cff1461017a578063a71763a814610175578063aaf10f4214610170578063b0d691fe1461016b578063c399ec8814610166578063d03c791414610161578063d691c9641461015c578063e9ae5c5314610157578063ea5f61d0146101525763f2dc691d0361000e57611a00565b611904565b61182e565b6116e7565b6115a7565b611551565b61150e565b6114b0565b6113c7565b611368565b6111ef565b6110fb565b611041565b610f00565b610d41565b610a39565b6109cb565b6108a3565b610808565b6106b7565b61067d565b6105e8565b6105bc565b610378565b610317565b6102f1565b610222565b6101e7565b5f9103126101e357565b5f80fd5b346101e3575f3660031901126101e35760206001600160a01b035f516020615f835f395f51905f5254166001600160a01b0360405191168152f35b346101e3575f3660031901126101e35760206040516001600160a01b037f0000000000000000000000000000000000000000000000000000000000000000168152f35b6001600160a01b038116036101e357565b359061028182610265565b565b9181601f840112156101e35782359167ffffffffffffffff83116101e357602083818601950101116101e357565b60606003198201126101e357600435916024356102cd81610265565b916044359067ffffffffffffffff82116101e3576102ed91600401610283565b9091565b346101e357602061030d610304366102b1565b92919091612a56565b6040519015158152f35b346101e35760403660031901126101e35760043560243567ffffffffffffffff81116101e357602091610351610357923690600401610283565b91611bd5565b6001600160e01b031960405191168152f35b90816101209103126101e35790565b346101e35760603660031901126101e35760043567ffffffffffffffff81116101e3576103ac61047a913690600401610369565b602061042960243561043460443580956103f06001600160a01b037f0000000000000000000000000000000000000000000000000000000000000000163314611cac565b61042e6103fd3683611d76565b95869288810135906104138260031a60f81b1590565b156104f3575b5060401c6001600160a01b031690565b612bdd565b9361301b565b61010084929401525f6001600160a01b036040518098819682957f9700320300000000000000000000000000000000000000000000000000000000845260048401611f5a565b0393165af19081156104ee576104a9925f926104bd575b50806104ad575b506040519081529081906020820190565b0390f35b5f9081803892335af1505f610498565b8192506104e19060203d6020116104e7575b6104d98183611b6b565b810190611eb8565b91610491565b503d6104cf565b611bca565b600382901a60f81b600160f81b036105355761052161051a82610100610528940190611e85565b908a612f27565b3691611d25565b6101008501525b5f610419565b600382901a60f81b7f02000000000000000000000000000000000000000000000000000000000000001461056a575b5061052f565b6105ab61059f6105996105b69361058e610589610585611f8e565b1590565b611e56565b610100810190611e85565b90612d39565b93919290923691611d25565b610100880152612e50565b5f610564565b346101e3575f3660031901126101e357602061030d611f8e565b6001600160e01b03198116036101e357565b346101e35760203660031901126101e3576040602061064360043561060c816105d6565b6001600160e01b0319165f527f0bb70095b32b9671358306b0339b4c06e7cbd8cb82505941fba30d1eb5b82f0260205260405f2090565b82519061064f82611b4a565b54906001600160f81b03196001600160a01b0383169283835260581b16928391015282519182526020820152f35b5f3660031901126101e3575f388180347f00000000000000000000000000000000000000000000000000000000000000005af1156101e357005b60203660031901126101e35760043567ffffffffffffffff81116101e3576106e66106f8913690600401610283565b9081813033036106fa575b5050612e50565b005b91610706939193613154565b156107f75750506107f06107e38261072d85610725816107b697611a58565b979093611a66565b9490956107b06107a461079e8998809a816040519182372095610754610589610585611f8e565b61079561058961058561078e8a5f527f0bb70095b32b9671358306b0339b4c06e7cbd8cb82505941fba30d1eb5b82f0960205260405f2090565b5460ff1690565b30943691611d25565b8561319f565b6001600160a01b031690565b14612023565b5f527f0bb70095b32b9671358306b0339b4c06e7cbd8cb82505941fba30d1eb5b82f0960205260405f2090565b805460ff19166001179055565b5f806106f1565b91509150610803613176565b6107f0565b60403660031901126101e35760043561082081610265565b5f7f0000000000000000000000000000000000000000000000000000000000000000602435336001600160a01b03831614801561089a575b61086190611cac565b604051936014526034526f205c28780000000000000000000000008252604460108338935af115610892575f603452005b3d5f823e3d90fd5b50333014610858565b60403660031901126101e3576004356108bb81610265565b60243567ffffffffffffffff81116101e3576108db903690600401610283565b906001600160a01b036109026001600160a01b035f516020615f835f395f51905f52541690565b168061091257506106f892612144565b90916040519263d68f602560e01b84525f8480610934363433600485016120de565b038183875af19384156104ee575f946109a3575b50610954929394612144565b803b156101e35761097f5f92918392604051948580948193630b9dfbed60e11b835260048301612104565b03925af180156104ee5761098f57005b8061099d5f6106f893611b6b565b806101d9565b6109549394506109c4903d805f833e6109bc8183611b6b565b810190612098565b9392610948565b346101e3575f3660031901126101e357307f000000000000000000000000000000000000000000000000000000000000000003610a2c5760206040517f360894a13ba1a3210667c828492db98dca3e2076cc3735a920a3ca505d382bbc8152f35b639f03a0265f526004601cfd5b60403660031901126101e35760043567ffffffffffffffff81116101e3578060040190608060031982360301126101e35760243567ffffffffffffffff81116101e357610a8d610a94913690600401610283565b908461329e565b610ab06024820135926044610aa8826122c4565b930190611e85565b929060048214828115610cdb575b610ac7916122ce565b610add8383610ad887858484612a56565b612301565b610b17836001600160a01b03165f527f0bb70095b32b9671358306b0339b4c06e7cbd8cb82505941fba30d1eb5b82f0460205260405f2090565b5480610ba8575050507f2841d18703faaff388732165e48fe431468531b1b1e626b1b7cbcbfc0d79c7409150610ba39042610b82826001600160a01b03165f527f0bb70095b32b9671358306b0339b4c06e7cbd8cb82505941fba30d1eb5b82f0460205260405f2090565b55604080516001600160a01b03909216825242602083015290918291820190565b0390a1005b610bb56203f48082612353565b4210610c20575050507fcbd44a75f6935b5837022648b6c8487db984701200c5381c7c0f8c2b1d69b9da9150610ba39042610b82826001600160a01b03165f527f0bb70095b32b9671358306b0339b4c06e7cbd8cb82505941fba30d1eb5b82f0460205260405f2090565b610c2990612343565b4210610cb3577f341347516a9de374859dfda710fa4828b2d48cb57d4fbe4c1149612b8e02276e93610c98915f610c90866001600160a01b03165f527f0bb70095b32b9671358306b0339b4c06e7cbd8cb82505941fba30d1eb5b82f0460205260405f2090565b558385613461565b604080519182526001600160a01b03929092166020820152a1005b7f07f2f2d2000000000000000000000000000000000000000000000000000000005f5260045ffd5b60026007198201109150610abe565b90929192604082016040835281518091526020606084019201905f5b818110610d22575050506001600160a01b036020919416910152565b82516001600160a01b0316845260209384019390920191600101610d06565b346101e35760403660031901126101e357600435610d5e81610265565b6024359060016001600160a01b038216141580610eee575b610ed3578115610eab5790610d8a8161465a565b610dc2610db55f946001600160a01b03165f525f516020615f635f395f51905f5260205260405f2090565b546001600160a01b031690565b6001600160a01b0381168015159081610e9f575b5080610e96575b15610e3757610e2b610db582610e08610e3194610dfa8988613f46565b906001600160a01b03169052565b6001600160a01b03165f525f516020615f635f395f51905f5260205260405f2090565b9361468c565b92610dc2565b908360016001600160a01b038416141580610e8d575b610e63575b81526104a960405192839283610cea565b9150610e87610e7a610e748461469a565b83613f46565b516001600160a01b031690565b91610e52565b50801515610e4d565b50828410610ddd565b6001915014155f610dd6565b7ff7250817000000000000000000000000000000000000000000000000000000005f5260045ffd5b637c84ecfb60e01b5f526001600160a01b031660045260245ffd5b50610efb61058582613e1e565b610d76565b60203660031901126101e35760043567ffffffffffffffff81116101e357366023820112156101e357806004013567ffffffffffffffff81116101e3576024820191602436918360051b0101116101e357610f856001600160a01b037f0000000000000000000000000000000000000000000000000000000000000000163314611cac565b6001600160a01b03610fab6001600160a01b035f516020615f835f395f51905f52541690565b1680610fbb57506106f8916135e1565b906040519263d68f602560e01b84525f8480610fdc363433600485016120de565b038183875af19384156104ee575f94610ffb575b5090610954916135e1565b61095492919450611015903d805f833e6109bc8183611b6b565b939091610ff0565b805180835260209291819084018484015e5f828201840152601f01601f1916010190565b346101e3575f3660031901126101e35761109c6110aa61105f613981565b6040929192519384937f0f00000000000000000000000000000000000000000000000000000000000000855260e0602086015260e085019061101d565b90838203604085015261101d565b4660608301523060808301525f60a083015281810360c083015260206060519182815201906080905f5b8181106110e2575050500390f35b82518452859450602093840193909201916001016110d4565b60403660031901126101e35760043567ffffffffffffffff81116101e357611127903690600401610369565b61115b6001600160a01b037f0000000000000000000000000000000000000000000000000000000000000000163314611cac565b6001600160a01b036111816001600160a01b035f516020615f835f395f51905f52541690565b168061119157506106f89061239c565b6040519163d68f602560e01b83525f83806111b1363433600485016120de565b038183865af19283156104ee575f936111cf575b506109549061239c565b6109549193506111e8903d805f833e6109bc8183611b6b565b92906111c5565b6111f8366102b1565b906001600160a01b039392937f0000000000000000000000000000000000000000000000000000000000000000163314801561135f575b61123890611cac565b6112436105856130c4565b611352575b6001600160a01b0384161561132a5760018303611296579061126a9184615260565b5f526020527fd21d0b289f126c4b473ea641963e766833c2f13866e4ff480abd787c100ef12360405fa1005b600283036112ae57906112a99184615160565b61126a565b600383036112c157906112a99184614e7c565b600483036112d457906112a99184614d0f565b6002600719840110156112ed57906112a9918484614b25565b826112fd57906112a991846149fc565b7f098312d2000000000000000000000000000000000000000000000000000000005f52600483905260245ffd5b7f5316c18d000000000000000000000000000000000000000000000000000000005f5260045ffd5b61135a6148c7565b611248565b5033301461122f565b346101e3575f3660031901126101e3576104a9604051611389604082611b6b565b601481527f6269636f6e6f6d792e6e657875732e312e332e31000000000000000000000000602082015260405191829160208352602083019061101d565b6113d0366102b1565b916001600160a01b037f000000000000000000000000000000000000000000000000000000000000000016331480156114a7575b61140d90611cac565b6001600160a01b036114336001600160a01b035f516020615f835f395f51905f52541690565b168061144357506106f8936123f6565b916040939193519363d68f602560e01b85525f8580611467363433600485016120de565b038183885af19485156104ee575f95611487575b506109549394956123f6565b6109549495506114a0903d805f833e6109bc8183611b6b565b949361147b565b50333014611404565b346101e3575f3660031901126101e3577f360894a13ba1a3210667c828492db98dca3e2076cc3735a920a3ca505d382bbc546001600160a01b03811615611506575b6020906001600160a01b0360405191168152f35b5030546114f2565b346101e3575f3660031901126101e35760206040516001600160a01b037f0000000000000000000000000000000000000000000000000000000000000000168152f35b346101e3575f3660031901126101e357306020526370a082315f52602080806024601c7f00000000000000000000000000000000000000000000000000000000000000005afa601f3d1116815102604051908152f35b346101e35760203660031901126101e3576104a96004358060081b6001600160f81b0319821615918215611640575b821561162b575b50816115f7575b5060405190151581529081906020820190565b6001600160f81b031981161591508115611613575b505f6115e4565b6001600160f81b031916600160f81b1490505f61160c565b6001600160f81b03199081161491505f6115dd565b6001600160f81b03198116600160f81b1492506115d6565b9060406003198301126101e357600435916024359067ffffffffffffffff82116101e3576102ed91600401610283565b602081016020825282518091526040820191602060408360051b8301019401925f915b8383106116ba57505050505090565b90919293946020806116d8600193603f19868203018752895161101d565b970193019301919392906116ab565b6116f036611658565b916116fa33613e5e565b15611802576001600160a01b036117256001600160a01b035f516020615f835f395f51905f52541690565b168061174657509161173a916104a993612598565b60405191829182611688565b90926040519263d68f602560e01b84525f8480611768363433600485016120de565b038183875af19384156104ee575f946117e2575b50611788929394612598565b90803b156101e3576117b45f93918492604051958680948193630b9dfbed60e11b835260048301612104565b03925af19182156104ee576104a9926117ce575b5061173a565b8061099d5f6117dc93611b6b565b5f6117c8565b6117889394506117fb903d805f833e6109bc8183611b6b565b939261177c565b7fb927fe5e000000000000000000000000000000000000000000000000000000005f523360045260245ffd5b61183736611658565b9061186c6001600160a01b037f0000000000000000000000000000000000000000000000000000000000000000163314611cac565b6001600160a01b036118926001600160a01b035f516020615f835f395f51905f52541690565b16806118a257506106f8926126ea565b90916040519263d68f602560e01b84525f84806118c4363433600485016120de565b038183875af19384156104ee575f946118e4575b506109549293946126ea565b6109549394506118fd903d805f833e6109bc8183611b6b565b93926118d8565b346101e35760403660031901126101e35760043561192181610265565b6024359060016001600160a01b0382161415806119ee575b610ed3578115610eab579061194d8161465a565b611978610db55f946001600160a01b03165f525f516020615fa35f395f51905f5260205260405f2090565b6001600160a01b03811680151590816119e2575b50806119d9575b15610e3757610e2b610db5826119b06119d394610dfa8988613f46565b6001600160a01b03165f525f516020615fa35f395f51905f5260205260405f2090565b92611978565b50828410611993565b6001915014155f61198c565b506119fb61058582613e5e565b611939565b346101e35760203660031901126101e357602060043561031f6001604051921b1615158152f35b634e487b7160e01b5f52601160045260245ffd5b906177398202918083046177391490151715611a5357565b611a27565b906041116101e35790604190565b90929192836041116101e35783116101e357604101916040190190565b906014116101e35790601490565b90929192836014116101e35783116101e357601401916013190190565b906004116101e35790600490565b90929192836004116101e35783116101e357600401916003190190565b90929192836005116101e35783116101e357600501916004190190565b356bffffffffffffffffffffffff19811692919060148210611b16575050565b6bffffffffffffffffffffffff1960149290920360031b82901b16169150565b634e487b7160e01b5f52604160045260245ffd5b6040810190811067ffffffffffffffff821117611b6657604052565b611b36565b90601f8019910116810190811067ffffffffffffffff821117611b6657604052565b908160209103126101e35751611ba2816105d6565b90565b611ba293926001600160a01b036060931682526020820152816040820152019061101d565b6040513d5f823e3d90fd5b918015611c8e575b90611c17611c3e93611c118480611c0b610429611c05611bff60209a8a611a83565b90611af6565b60601c90565b95611a91565b91612c84565b91906001600160a01b03604051809681958294637aa8f17760e11b84523360048501611ba5565b0392165afa5f9181611c5d575b50611ba257506001600160e01b031990565b611c8091925060203d602011611c87575b611c788183611b6b565b810190611b8d565b905f611c4b565b503d611c6e565b611c9c61ffff821904611a3b565b8303611bdd5790611ba292612b0b565b15611cb357565b7fac52ccbe000000000000000000000000000000000000000000000000000000005f5260045ffd5b6040519061028161012083611b6b565b60405190610281606083611b6b565b60405190610281604083611b6b565b67ffffffffffffffff8111611b6657601f01601f191660200190565b929192611d3182611d09565b91611d3f6040519384611b6b565b8294818452818301116101e3578281602093845f960137010152565b9080601f830112156101e357816020611ba293359101611d25565b919091610120818403126101e357611d8c611cdb565b92611d9682610276565b845260208201356020850152604082013567ffffffffffffffff81116101e35781611dc2918401611d5b565b6040850152606082013567ffffffffffffffff81116101e35781611de7918401611d5b565b60608501526080820135608085015260a082013560a085015260c082013560c085015260e082013567ffffffffffffffff81116101e35781611e2a918401611d5b565b60e085015261010082013567ffffffffffffffff81116101e357611e4e9201611d5b565b610100830152565b15611e5d57565b7fae4edb1b000000000000000000000000000000000000000000000000000000005f5260045ffd5b903590601e19813603018212156101e3570180359067ffffffffffffffff82116101e3576020019181360383136101e357565b908160209103126101e3575190565b80516001600160a01b03168252611ba29160208201516020820152610100611f48611f18611f066040860151610120604087015261012086019061101d565b6060860151858203606087015261101d565b6080850151608085015260a085015160a085015260c085015160c085015260e085015184820360e086015261101d565b9201519061010081840391015261101d565b929190611f71602091604086526040860190611ec7565b930152565b908160209103126101e3575180151581036101e35790565b60405163d60b347f60e01b81523060048201526020816024816001600160a01b037f0000000000000000000000000000000000000000000000000000000000000000165afa9081156104ee575f91611ff4575b508015611feb5790565b50611ba26130c4565b612016915060203d60201161201c575b61200e8183611b6b565b810190611f76565b5f611fe1565b503d612004565b1561202a57565b7f8baa579f000000000000000000000000000000000000000000000000000000005f5260045ffd5b81601f820112156101e35780519061206982611d09565b926120776040519485611b6b565b828452602083830101116101e357815f9260208093018386015e8301015290565b906020828203126101e357815167ffffffffffffffff81116101e357611ba29201612052565b908060209392818452848401375f828201840152601f01601f1916010190565b611ba293926001600160a01b03606093168252602082015281604082015201905f6120be565b906020611ba292818152019061101d565b1561211c57565b7fc970156c000000000000000000000000000000000000000000000000000000005f5260045ffd5b9190916001600160a01b0381169061215d821515612115565b612169813b1515612115565b3055612194307f00000000000000000000000000000000000000000000000000000000000000001490565b610a2c576001600160a01b037f000000000000000000000000000000000000000000000000000000000000000016331480156122bb575b6121d490611cac565b6121dc613154565b612293573d5f526352d1902d6001527f360894a13ba1a3210667c828492db98dca3e2076cc3735a920a3ca505d382bbc602060016004601d855afa510361228557807fbc7cd75a20ee27fd9adebab32041f755214dbc6bffa90cc0225b39da2e5c2d3b5f80a281817f360894a13ba1a3210667c828492db98dca3e2076cc3735a920a3ca505d382bbc5561226f57505050565b815f926040519485378338925af4156108925750565b6355299b496001526004601dfd5b7fdc3b8379000000000000000000000000000000000000000000000000000000005f5260045ffd5b503330146121cb565b35611ba281610265565b156122d65750565b7f41c38b30000000000000000000000000000000000000000000000000000000005f5260045260245ffd5b1561230a575050565b6001600160a01b0392507fbe601672000000000000000000000000000000000000000000000000000000005f526004521660245260445ffd5b90620151808201809211611a5357565b91908201809211611a5357565b908092918237015f815290565b3d15612397573d9061237e82611d09565b9161238c6040519384611b6b565b82523d5f602084013e565b606090565b6123aa906060810190611e85565b806004116101e3576040515f9283929060031982019060040183378101826003198201528160031991030190305af46123e161236d565b50156123e957565b63acfdb4445f526004601cfd5b90917f341347516a9de374859dfda710fa4828b2d48cb57d4fbe4c1149612b8e02276e9361242b8484610ad884868484612a56565b600183036124675761243d9184613ba1565b612445613c9b565b604080519182526001600160a01b03909216602082015290819081015b0390a1565b6002830361247e576124799184613a2c565b612445565b600383036125625761255b916125266125559261251e6040516124a081611b4a565b5f81525f60208201526124bf61060c6124b98588611aae565b90612a20565b8151815460209093015174ff000000000000000000000000000000000000000060589190911c167fffffffffffffffffffffff0000000000000000000000000000000000000000009093166001600160a01b0390911617919091179055565b805a93611abc565b9290612547604051948592638a91b0e360e01b602085015260248401613450565b03601f198101845283611b6b565b84614602565b5050612445565b60048314801561258a575b612578575050612445565b612583918385613461565b5f8061255b565b50600260071984011061256d565b91908260081b926125b1816001600160f81b0319161590565b156125c2575090611ba29291614047565b6001600160f81b03198116600160f81b036125e3575090611ba29291613f80565b6001600160f81b0319808216036126cd5750906125ff916153b8565b9091612609613eb6565b936001600160f81b0319811661263b575091612624926153f7565b61262d82613f39565b5261263781613f39565b5090565b6001600160f81b03198116600160f81b036126b15750818361265c926153d2565b61266585613f39565b521561267057505090565b7f5bd4c60b4b38b664d8fb5944eb974e3d85083d79afe5ce934ccabcc913707c10916126ab61269e85613f39565b5160405193849384613f5a565b0390a190565b6308c3ee0360e11b5f526001600160f81b03191660045260245ffd5b6001600160f81b031990632e5bf3f960e21b5f521660045260245ffd5b91908260081b92612703816001600160f81b0319161590565b15612714575090610281929161417d565b6001600160f81b03198116600160f81b0361273557509061028192916140f4565b6001600160f81b0319808216036126cd575090612751916153b8565b929091906001600160f81b0319811661277f57505f9083604051938437838338925af4156108925701604052565b9192916001600160f81b03198116600160f81b036127e0575081836127a3926153d2565b9290156127af57505050565b6124627f5bd4c60b4b38b664d8fb5944eb974e3d85083d79afe5ce934ccabcc913707c109360405193849384613f5a565b6001600160f81b0319906308c3ee0360e11b5f521660045260245ffd5b5f356001600160e01b0319811690612846826001600160e01b0319165f527f0bb70095b32b9671358306b0339b4c06e7cbd8cb82505941fba30d1eb5b82f0260205260405f2090565b546128656001600160a01b0382169160581b6001600160f81b03191690565b906001600160a01b0381166128ae57505060e01c63bc197c81811463f23a6e6182141763150b7a028214176128a557506308c63e275f526020526024601cfd5b6020526020603cf35b5f516020615f835f395f51905f52546001600160a01b03168015159260609290846129ca575b6001600160f81b03198116607f60f91b0361297857505f80916128f56155f2565b90602082519201905afa9261290861236d565b935b156129705761291c575b825160208401f35b803b156101e3576129475f92918392604051948580948193630b9dfbed60e11b835260048301612104565b03925af180156104ee5761295c575b80612914565b8061099d5f61296a93611b6b565b81612956565b835160208501fd5b6001600160f81b031981166129ae57505f80916129936155f2565b906020825192019034905af1926129a861236d565b9361290a565b632e5bf3f960e21b5f526001600160f81b03191660045260245ffd5b925060405163d68f602560e01b81525f81806129eb363433600485016120de565b038183875af19081156104ee575f91612a06575b50926128d4565b612a1a91503d805f833e6109bc8183611b6b565b856129ff565b919091356001600160e01b031981169260048110612a3c575050565b6001600160e01b0319929350829060040360031b1b161690565b92909160018403612a6d575050611ba29150613e1e565b60028403612a81575050611ba29150613e5e565b60038403612ab057611ba2935060048210612aa857612aa3916124b991611aae565b614273565b50505f614273565b505090600481145f14612ade57505f516020615f835f395f51905f52546001600160a01b0391821691161490565b600260071982011015612b05576001600160a01b03612afd8192614210565b921691161490565b50505f90565b60015f9081525f516020615f635f395f51905f526020527ffe44ceacbf4f03c6ac19f86826dd265fa9ec25125e8b1766c207f24cd3bc73c7546001600160a01b031694939291905b6001600160a01b0386168015159081612bd1575b5015612b8957612b7d848484612b83948a6142bf565b95614397565b94612b53565b612bb59495507f00000000000000000000000000000000000000000000000000000000000000006142bf565b6001600160e01b03198116611ba257506001600160e01b031990565b6001915014155f612b67565b6001600160a01b038116612c1057507f000000000000000000000000000000000000000000000000000000000000000090565b612c1981613e1e565b15612c215790565b636859e01e5f526020526024601cfd5b9190916040818403126101e357805192602082015167ffffffffffffffff81116101e357611ba29201612052565b611ba294926001600160a01b03606093168252602082015281604082015201916120be565b7f0bb70095b32b9671358306b0339b4c06e7cbd8cb82505941fba30d1eb5b82f06549293926001600160a01b031680612cc5575090611ba291933691611d25565b6040517f7a0468b7000000000000000000000000000000000000000000000000000000008152945f93869384928392612d02923360048601612c5f565b03915afa9182156104ee575f905f93612d1a57509190565b90506102ed9192503d805f833e612d318183611b6b565b810190612c31565b9060f911612e43578035906020810135810190602082019135906040810135019360208501943593612d6c368486611d25565b602081519101205f528060a01c602052612dfb6105856001600160a01b0360405f201692835f526001600160a01b0360205f2091608060205216601f526305d78094600b52601960272090604051915f52601b602052846040526060526020604060805f60015afa505f6060523d6060185190604052612df330916001600160a01b031690565b143015151690565b612e3c575b8015612e2f575f527f4f058962bce244bca6c9be42f256083afc66f1f63a1f9a04e31a3042311af38d60205fa1565b63e483bbcb5f526004601cfd5b505f612e00565b63aed595955f526004601cfd5b90601811612eda575f8160208083940135820180358060405193849301833781018481520391355af4612e8161236d565b5015612ecd57612e8f613154565b15612e9657565b612e9e611f8e565b15612ea557565b7f7556034e000000000000000000000000000000000000000000000000000000005f5260045ffd5b63315927c55f526004601cfd5b7ff9c42c60000000000000000000000000000000000000000000000000000000005f5260045ffd5b6001600160a01b03611ba29593606093835216602082015281604082015201916120be565b9290803560601c601482013590603483013560e01c916038840193838101603881013560e01c976038838a603c850194010301998160048c01116101e357612fa387612f998a9460048f612fa89901019e6003199103019c80612f93610429611c05611bff848c611a83565b97611a91565b949093888a6143dc565b61442a565b1561300e57303b156101e357612fed5f9360405195869485947f9517e29f00000000000000000000000000000000000000000000000000000000865260048601612f02565b038183305af180156104ee576130005750565b8061099d5f61028193611b6b565b6346fdc3335f526004601cfd5b92916001600160a01b037f0bb70095b32b9671358306b0339b4c06e7cbd8cb82505941fba30d1eb5b82f05541680155f1461305a575050610100015190565b60405f80948297949751978895869485937fe24f8f930000000000000000000000000000000000000000000000000000000085526130a46004860191606083526060830190611ec7565b936020820152015203925af19182156104ee575f905f93612d1a57509190565b60015f525f516020615f635f395f51905f526020527ffe44ceacbf4f03c6ac19f86826dd265fa9ec25125e8b1766c207f24cd3bc73c7546001600160a01b031615158061310e5790565b5060015f525f516020615fa35f395f51905f526020527fbdfeb076d903611fa58576955630d640569633049bcf40ad9c22db9251b54a13546001600160a01b0316151590565b5f906017303b1461316157565b905060035f80303c5f5160e81c62ef01001490565b7f90b772c2cb8a51aa7a8a65fc23543c6d022d5b3f8e2b92eed79fba7eef8293005c15612e4357565b91909160405192805180604014613204576041146131c957505050505b638baa579f5f526004601cfd5b60209160608201515f1a835260408201516060525b5f5201516040526020600160805f825afa51915f6060526040523d6102815750506131bc565b506020917f7fffffffffffffffffffffffffffffffffffffffffffffffffffffffffffffff6040830151601b8160ff1c018552166060526131de565b1561324757565b7f756688fe000000000000000000000000000000000000000000000000000000005f5260045ffd5b1561327657565b7fbf6b5843000000000000000000000000000000000000000000000000000000005f5260045ffd5b6020916001600160a01b03916133e061340195806132c5610429611c05611bff8489611a83565b946133db6107e361336e6132d8886122c4565b8b8901359861336660606132f26105216040850185611e85565b8f81519101209201359a6133588c60405194602093869485019788909493926080926001600160a01b0360a08401977fd3ddfc12654178cc44d4a7b6b969cfdce7ffe6342326ba37825314cffa0fba9c8552166020840152604083015260608201520152565b03601f198101835282611b6b565b5190206144af565b966133ae6133a961058561078e845f527f0bb70095b32b9671358306b0339b4c06e7cbd8cb82505941fba30d1eb5b82f0760205260405f2090565b613240565b5f527f0bb70095b32b9671358306b0339b4c06e7cbd8cb82505941fba30d1eb5b82f0760205260405f2090565b611a91565b93909160405196879586948593637aa8f17760e11b85523060048601612c5f565b0392165afa80156104ee576001600160e01b0319630b135d3f60e11b91610281935f91613431575b50161461326f565b61344a915060203d602011611c8757611c788183611b6b565b5f613429565b916020611ba29381815201916120be565b6134c4939291600481036134c857505f516020615f835f395f51905f5280546001600160a01b03191690555b6134bf5a926134b1604051958692638a91b0e360e01b602085015260248401613450565b03601f198101855284611b6b565b614602565b5050565b60026007198201106134db575b5061348d565b6008810361351a57507f0bb70095b32b9671358306b0339b4c06e7cbd8cb82505941fba30d1eb5b82f0680546001600160a01b03191690555b5f6134d5565b600903613514577f0bb70095b32b9671358306b0339b4c06e7cbd8cb82505941fba30d1eb5b82f0580546001600160a01b0319169055613514565b634e487b7160e01b5f52603260045260245ffd5b919081101561358b5760051b81013590605e19813603018212156101e3570190565b613555565b903590601e19813603018212156101e3570180359067ffffffffffffffff82116101e357602001918160051b360383136101e357565b604051906135d5602083611b6b565b5f808352366020840137565b91905f5b8181106135f25750509050565b6135fd818386613569565b61360a6020820182613590565b908235613616816105d6565b61361e6146a8565b506040516001600160e01b031990911660208201525f9283916136448160248101613358565b925f91825b8184106136f057505050509160019493916136d893613678613669611ceb565b6001600160a01b039094168452565b602083015260408201526136966107a482516001600160a01b031690565b156136de576136c4816136b36136d093516001600160a01b031690565b906040602082015191015191615995565b915b6040810190613590565b309291614795565b016135e5565b506136d06136ea6135c6565b916136c6565b6137066137018584869a979a6146d8565b61574c565b9361371a6137158985876146d8565b61471d565b6137238161470e565b61385257506002613740602061373a8a86886146d8565b0161471d565b6137498161470e565b146137e6576001811661377a576137716107a46001809317956020808251830101910161475e565b965b0192613649565b604051634d038a6760e11b815260206004820152602660248201527f54415247455420706172616d20747970652063616e206f6e6c7920626520736560448201527f74206f6e636500000000000000000000000000000000000000000000000000006064820152608490fd5b604051635107885760e11b815260206004820152603b60248201527f42414c414e434520666574636865722074797065206973206e6f74207375707060448201527f6f7274656420666f722054415247455420706172616d207479706500000000006064820152608490fd5b969460016138646137158886886146d8565b61386d8161470e565b0361390657506002811661389a576138946002600192179460208082518301019101611eb8565b94613773565b604051634d038a6760e11b815260206004820152602560248201527f56414c554520706172616d20747970652063616e206f6e6c792062652073657460448201527f206f6e63650000000000000000000000000000000000000000000000000000006064820152608490fd5b9495600261391b6137158986889996996146d8565b6139248161470e565b0361393b576001916139359161473c565b95613773565b604051635107885760e11b815260206004820152601260248201527f496e76616c696420706172616d207479706500000000000000000000000000006044820152606490fd5b60405161398f604082611b6b565b600581527f4e657875730000000000000000000000000000000000000000000000000000006020820152906040516139c8604082611b6b565b600581527f312e332e31000000000000000000000000000000000000000000000000000000602082015290565b9190916040818403126101e3578035613a0d81610265565b92602082013567ffffffffffffffff81116101e357611ba29201611d5b565b90613a42906001600160a01b03938101906139f5565b92166001600160a01b03821680158015613b97575b613b84576001600160a01b03613a8b835f516020615fa35f395f51905f52906001600160a01b03165f5260205260405f2090565b541603613b68579181613b0c6134c494613af1613acc610db56134b1975f516020615fa35f395f51905f52906001600160a01b03165f5260205260405f2090565b915f516020615fa35f395f51905f52906001600160a01b03165f5260205260405f2090565b906001600160a01b03166001600160a01b0319825416179055565b613b47613b37825f516020615fa35f395f51905f52906001600160a01b03165f5260205260405f2090565b6001600160a01b03198154169055565b6134bf5a92604051948591638a91b0e360e01b602084015260248301612104565b637c84ecfb60e01b5f526001600160a01b03821660045260245ffd5b50637c84ecfb60e01b5f5260045260245ffd5b5060018114613a57565b90613bb7906001600160a01b03938101906139f5565b92166001600160a01b03821680158015613c91575b613b84576001600160a01b03613c00835f516020615f635f395f51905f52906001600160a01b03165f5260205260405f2090565b541603613b68579181613c666134c494613af1613c41610db56134b1975f516020615f635f395f51905f52906001600160a01b03165f5260205260405f2090565b915f516020615f635f395f51905f52906001600160a01b03165f5260205260405f2090565b613b47613b37825f516020615f635f395f51905f52906001600160a01b03165f5260205260405f2090565b5060018114613bcc565b613ca6610585613154565b80613da4575b613cb257565b60015f525f516020615f635f395f51905f52602052613cf07ffe44ceacbf4f03c6ac19f86826dd265fa9ec25125e8b1766c207f24cd3bc73c7610db5565b6001600160a01b03811680151580613d99575b15613d885760405163d60b347f60e01b815230600482015290602090829060249082905afa9081156104ee575f91613d6a575b50613d4957613d4490614397565b613cf0565b6001600160a01b036001915b1614613d5d57565b63cc319d845f526004601cfd5b613d82915060203d811161201c5761200e8183611b6b565b5f613d36565b506001600160a01b03600191613d55565b506001811415613d03565b5060405163d60b347f60e01b81523060048201526020816024817f00000000000000000000000000000000000000000000000000000000000000006001600160a01b03165afa9081156104ee575f91613dff575b5015613cac565b613e18915060203d60201161201c5761200e8183611b6b565b5f613df8565b6001600160a01b031680600114159081613e36575090565b90505f525f516020615f635f395f51905f526020526001600160a01b0360405f205416151590565b6001600160a01b031680600114159081613e76575090565b90505f525f516020615fa35f395f51905f526020526001600160a01b0360405f205416151590565b67ffffffffffffffff8111611b665760051b60200190565b60408051909190613ec78382611b6b565b6001815291601f1901825f5b828110613edf57505050565b806060602080938501015201613ed3565b90613efa82613e9e565b613f076040519182611b6b565b8281528092613f18601f1991613e9e565b01905f5b828110613f2857505050565b806060602080938501015201613f1c565b80511561358b5760200190565b805182101561358b5760209160051b010190565b91611ba29391613f72916040855260408501916120be565b91602081840391015261101d565b90613f8a9161542a565b916001600160f81b031981166140075750613fa482613ef0565b915f5b818110613fb45750505090565b80613feb613fc56001938587613569565b8035613fd081610265565b613fe36020830135926040810190611e85565b9290916155a9565b613ff58287613f46565b526140008186613f46565b5001613fa7565b9291906001600160f81b03198416600160f81b0361402a57611ba29293506154aa565b6001600160f81b0319846308c3ee0360e11b5f521660045260245ffd5b906140549193929361555a565b91909261405f613eb6565b956001600160f81b0319811661409157509061407b93916155a9565b61408483613f39565b5261408e82613f39565b50565b6001600160f81b03198116600160f81b036127e05750836140b3928492615582565b6140bc86613f39565b52156140c6575050565b7fb5282692b8c578af7fb880895d599035496b5e64d1f14bf428a1ed3bc406f6629161246261269e86613f39565b906140fe9161542a565b90916001600160f81b0319811661415b57505f5b81811061411e57505050565b8061415561412f6001938587613569565b803561413a81610265565b61414d6020830135926040810190611e85565b9290916155d6565b01614112565b92916001600160f81b03198416600160f81b0361402a5761408e9293506154aa565b6001600160f81b0319916141909161555a565b9094909391929116806141a957509061028193916155d6565b600160f81b81036141fe5750836141c1928492615582565b9290156141cd57505050565b6124627fb5282692b8c578af7fb880895d599035496b5e64d1f14bf428a1ed3bc406f6629360405193849384613f5a565b6308c3ee0360e11b5f5260045260245ffd5b600803614245576001600160a01b037f0bb70095b32b9671358306b0339b4c06e7cbd8cb82505941fba30d1eb5b82f06541690565b6001600160a01b037f0bb70095b32b9671358306b0339b4c06e7cbd8cb82505941fba30d1eb5b82f05541690565b6001600160a01b036142b781926001600160e01b0319165f527f0bb70095b32b9671358306b0339b4c06e7cbd8cb82505941fba30d1eb5b82f0260205260405f2090565b541691161490565b6142ef936001600160a01b0360209496939660405196879586948593637aa8f17760e11b85523360048601612c5f565b0392165afa9081156104ee575f91614378575b507f77390000000000000000000000000000000000000000000000000000000000007fffff0000000000000000000000000000000000000000000000000000000000008216148061435b575b614356575090565b905090565b506001600160e01b031982166001600160e01b031982161161434e565b614391915060203d602011611c8757611c788183611b6b565b5f614302565b6001600160a01b031680156143ca575f525f516020615f635f395f51905f526020526001600160a01b0360405f20541690565b637c84ecfb60e01b5f5260045260245ffd5b92909160a09492604051947ff6c866c1cd985ce61f030431e576c0e82887de0643dfa8a2e6efc3463e638ed08652602086015260408501526060840152818484019182372060808201522090565b92602092916001600160a01b03614443614461966144af565b60405196879586948593637aa8f17760e11b85523060048601612c5f565b0392165afa5f918161448e575b5061447857505f90565b6001600160e01b031916630b135d3f60e11b1490565b6144a891925060203d602011611c8757611c788183611b6b565b905f61446e565b7f00000000000000000000000000000000000000000000000000000000000000007f000000000000000000000000000000000000000000000000000000000000000030147f00000000000000000000000000000000000000000000000000000000000000004614161561453a575b6719010000000000005f52601a52603a526042601820905f603a52565b5060a06040517f8b73c3c69bb8fe3d512ecc4cf759cc79239f7b179b0ffacaa9a75d522b39400f81527f000000000000000000000000000000000000000000000000000000000000000060208201527f000000000000000000000000000000000000000000000000000000000000000060408201524660608201523060808201522061451d565b6001600160a01b0361028191166001600160a01b03166001600160a01b03195f516020615f835f395f51905f525416175f516020615f835f395f51905f5255565b92915f919082918261461381611d09565b966146216040519889611b6b565b818852601f1961463083611d09565b013660208a013760208451940192f13d80614653575b8084525f602085013e9190565b505f614646565b9061466482613e9e565b6146716040519182611b6b565b8281528092614682601f1991613e9e565b0190602036910137565b5f198114611a535760010190565b5f19810191908211611a5357565b604051906060820182811067ffffffffffffffff821117611b665760405260606040835f81525f60208201520152565b919081101561358b5760051b81013590607e19813603018212156101e3570190565b634e487b7160e01b5f52602160045260245ffd5b6003111561471857565b6146fa565b3560038110156101e35790565b805191908290602001825e015f815290565b610281906125476147589493604051958693602085019061472a565b9061472a565b908160209103126101e35751611ba281610265565b919081101561358b5760051b81013590603e19813603018212156101e3570190565b91905f5b8181106147a7575050505050565b6147b2818386614773565b90856147bd836159cd565b6147c6816159c3565b6147f8576147f2906147de8460206001960190611e85565b506040810135908760208201359135615e8e565b01614799565b50906001614805826159cd565b61480e816159c3565b0361489f57806020614821920190611e85565b50905f806148416040850135850160405191828260208294359101612360565b039060208601355afa61485261236d565b901561487757866148729184608060019601359160608201359135615e8e565b6147f2565b7f6e47f619000000000000000000000000000000000000000000000000000000005f5260045ffd5b7fe2121978000000000000000000000000000000000000000000000000000000005f5260045ffd5b60015f525f516020615fa35f395f51905f526020527fbdfeb076d903611fa58576955630d640569633049bcf40ad9c22db9251b54a13546001600160a01b03166149ad5760015f525f516020615fa35f395f51905f5260205261493a60405f2060016001600160a01b0319825416179055565b60015f525f516020615f635f395f51905f526020526001600160a01b037ffe44ceacbf4f03c6ac19f86826dd265fa9ec25125e8b1766c207f24cd3bc73c754166149ad5760015f525f516020615f635f395f51905f5260205261028160405f2060016001600160a01b0319825416179055565b7f53c85e66000000000000000000000000000000000000000000000000000000005f5260045ffd5b919081101561358b5760051b0190565b9082101561358b576102ed9160051b810190611e85565b9150614a1e908035810191602083019235916020810135019060208201913590565b929391808403614afd575f5b818110614a3957505050505050565b80614a4760019284896149d5565b35828103614a6b5750614a65614a5e8288876149e5565b9087615260565b01614a2a565b60028103614a8e5750614a89614a828288876149e5565b9087615160565b614a65565b60038103614aac5750614a89614aa58288876149e5565b9087614e7c565b60048103614aca5750614a89614ac38288876149e5565b9087614d0f565b856002600719830110614adf575b5050614a65565b614af691614aee848a896149e5565b929091614b25565b5f85614ad8565b7fb4fa3fb3000000000000000000000000000000000000000000000000000000005f5260045ffd5b9291906001600160a01b03614b4e6001600160a01b035f516020615f835f395f51905f52541690565b1680614b5e575061028193614c3b565b916040939193519363d68f602560e01b85525f8580614b82363433600485016120de565b038183885af19485156104ee575f95614bde575b50614ba2939495614c3b565b803b156101e357614bcd5f92918392604051948580948193630b9dfbed60e11b835260048301612104565b03925af180156104ee576130005750565b614ba2949550614bf7903d805f833e6109bc8183611b6b565b9493614b96565b15614c065750565b6001600160a01b03907fc689cd97000000000000000000000000000000000000000000000000000000005f521660045260245ffd5b60405163ecd0596160e01b8152600481018290526001600160a01b038316949290602081602481895afa9081156104ee575f91614cf0575b5015614cc85781614c99614c89614c9e94614210565b6001600160a01b03811615614bfe565b61561f565b823b156101e357614bcd925f92836040518096819582946306d61fe760e41b845260048401613450565b7fe27c1dd8000000000000000000000000000000000000000000000000000000005f5260045ffd5b614d09915060203d60201161201c5761200e8183611b6b565b5f614c73565b91906001600160a01b03614d376001600160a01b035f516020615f835f395f51905f52541690565b1680614d47575061028192614de6565b90916040519263d68f602560e01b84525f8480614d69363433600485016120de565b038183875af19384156104ee575f94614d89575b50614ba2929394614de6565b614ba2939450614da2903d805f833e6109bc8183611b6b565b9392614d7d565b15614db15750565b6001600160a01b03907f741cbe03000000000000000000000000000000000000000000000000000000005f521660045260245ffd5b60405163ecd0596160e01b81526004808201526001600160a01b038216939190602081602481885afa9081156104ee575f91614e5d575b5015614cc857614c9e90614e58614e486001600160a01b035f516020615f835f395f51905f52541690565b6001600160a01b03811615614da9565b6145c1565b614e76915060203d60201161201c5761200e8183611b6b565b5f614e1d565b91906001600160a01b03614ea46001600160a01b035f516020615f835f395f51905f52541690565b1680614eb4575061028192614fc1565b90916040519263d68f602560e01b84525f8480614ed6363433600485016120de565b038183875af19384156104ee575f94614ef6575b50614ba2929394614fc1565b614ba2939450614f0f903d805f833e6109bc8183611b6b565b9392614eea565b906004101561358b5760040190565b15614f2c57565b7f867a1dcf000000000000000000000000000000000000000000000000000000005f5260045ffd5b15614f5b57565b7fc001660b000000000000000000000000000000000000000000000000000000005f5260045ffd5b15614f8b5750565b6001600160e01b0319907fa56a04dd000000000000000000000000000000000000000000000000000000005f521660045260245ffd5b90916001600160a01b0382169160405163ecd0596160e01b815260208180614ff160048201906003602083019252565b0381875afa9081156104ee575f91615141575b5015614cc8576124bf8461060c6150766105218680615054615047615039836150336124b96150e59e8c611aae565b99614f16565b356001600160f81b03191690565b6001600160f81b03191690565b9a6001600160f81b03198c1615801561512a575b61507190614f25565b611ad9565b966150a56001600160e01b031984166306d61fe760e41b8114908115615119575b8115615110575b5015614f54565b6150ba836150b5610585826159da565b614f83565b6150d46150c5611cfa565b6001600160a01b039096168652565b6001600160f81b0319166020850152565b803b156101e357614bcd5f929183926040519485809481936306d61fe760e41b835260048301612104565b9050155f61509e565b638a91b0e360e01b81149150615097565b50607f60f91b6001600160f81b03198d1614615068565b61515a915060203d60201161201c5761200e8183611b6b565b5f615004565b91906001600160a01b036151886001600160a01b035f516020615f835f395f51905f52541690565b16806151985750610281926151fa565b90916040519263d68f602560e01b84525f84806151ba363433600485016120de565b038183875af19384156104ee575f946151da575b50614ba29293946151fa565b614ba29394506151f3903d805f833e6109bc8183611b6b565b93926151ce565b60405163ecd0596160e01b8152600260048201526001600160a01b038216939190602081602481885afa9081156104ee575f91615241575b5015614cc857614c9e90615a24565b61525a915060203d60201161201c5761200e8183611b6b565b5f615232565b91906001600160a01b036152886001600160a01b035f516020615f835f395f51905f52541690565b16806152985750610281926152fa565b90916040519263d68f602560e01b84525f84806152ba363433600485016120de565b038183875af19384156104ee575f946152da575b50614ba29293946152fa565b614ba29394506152f3903d805f833e6109bc8183611b6b565b93926152ce565b60405163ecd0596160e01b8152600160048201526001600160a01b038216939190602081602481885afa9081156104ee575f91615399575b5015614cc8576001600160a01b037f000000000000000000000000000000000000000000000000000000000000000016841461537157614c9e90615b48565b7fabc3af79000000000000000000000000000000000000000000000000000000005f5260045ffd5b6153b2915060203d60201161201c5761200e8183611b6b565b5f615332565b91816014116101e357823560601c92601401916013190190565b5f9192806040519485378338925af4913d82523d5f602084013e60203d830101604052565b5f919392806040519586378438925af415615421573d82523d5f602084013e60203d830101604052565b503d5f823e3d90fd5b909181359182810193601f199101016020840193803593828560051b8301119060401c1761549d578361545b575050565b835b5f190160208160051b8301013580830160608101908135809101918680602080860135809601011191111792171760401c1761549d578061545d57505050565b63ba597e7e5f526004601cfd5b9190916154b683613ef0565b925f5b8181106154c557505050565b806154d36001928486613569565b8035906154df82610265565b6154fe602082013560408301936154f68585611e85565b929091615582565b615508858b613f46565b5215615517575b5050016154b9565b7fb5282692b8c578af7fb880895d599035496b5e64d1f14bf428a1ed3bc406f6629161554291611e85565b9061555061269e858b613f46565b0390a15f8061550f565b90806014116101e357813560601c92603482106101e357601483013592603401916033190190565b905f928491604051958692833738935af1913d82523d5f602084013e60203d830101604052565b90925f92819594604051968792833738935af115615421573d82523d5f602084013e60203d830101604052565b8380935f93604051958692833738935af1156108925701604052565b60405190602036830101604052816014360181525f602036920137604051601481016040523360601b9052565b6008810361568f57506001600160a01b0361028191166001600160a01b03166001600160a01b03197f0bb70095b32b9671358306b0339b4c06e7cbd8cb82505941fba30d1eb5b82f065416177f0bb70095b32b9671358306b0339b4c06e7cbd8cb82505941fba30d1eb5b82f0655565b6009146156995750565b6001600160a01b0361028191166001600160a01b03166001600160a01b03197f0bb70095b32b9671358306b0339b4c06e7cbd8cb82505941fba30d1eb5b82f055416177f0bb70095b32b9671358306b0339b4c06e7cbd8cb82505941fba30d1eb5b82f0555565b1561570757565b6064604051635107885760e11b815260206004820152601860248201527f496e76616c696420706172616d44617461206c656e67746800000000000000006044820152fd5b6060906020810161575c8161471d565b6157658161470e565b6157a95750611ba291508060406105219201906157a46157858383611e85565b61579f6157956060860186613590565b9390923691611d25565b615d32565b611e85565b60016157b48261471d565b6157bd8161470e565b03615827575090505f806157d46040840184611e85565b50604051806157ee81602085810135860180359101612360565b0391355afa906157fc61236d565b911561581a57615813816060611ba2930190613590565b9083615d32565b636533cc8d5f526004601cfd5b61583260029161471d565b61583b8161470e565b0361594f57602861585a6158526040840184611e85565b909214615700565b6014810135831c9035831c806158c75750906158b3613358936158ad611ba29431935b604051926158a58461589788602083019190602083019252565b03601f198101865285611b6b565b810190613590565b91615d32565b604051928391602083019190602083019252565b6040517f70a082310000000000000000000000000000000000000000000000000000000081526001600160a01b03929092166004830152909190602090839060249082905afa80156104ee57613358936158ad6158b392611ba2955f91615930575b509361587d565b615949915060203d6020116104e7576104d98183611b6b565b5f615929565b604051635107885760e11b815260206004820152601a60248201527f496e76616c696420706172616d206665746368657220747970650000000000006044820152606490fd5b9291905f91604051943892602083519301915af115615421573d82523d5f602084013e60203d830101604052565b6002111561471857565b3560028110156101e35790565b615a1d6001600160a01b03916001600160e01b0319165f527f0bb70095b32b9671358306b0339b4c06e7cbd8cb82505941fba30d1eb5b82f0260205260405f2090565b5416151590565b6001600160a01b03811680158015615b3e575b6143ca575f9081525f516020615fa35f395f51905f5260205260409020546001600160a01b0316615b0a5760015f525f516020615fa35f395f51905f5260205261028190615acf615aa77fbdfeb076d903611fa58576955630d640569633049bcf40ad9c22db9251b54a13610db5565b613af1835f516020615fa35f395f51905f52906001600160a01b03165f5260205260405f2090565b60015f525f516020615fa35f395f51905f526020527fbdfeb076d903611fa58576955630d640569633049bcf40ad9c22db9251b54a13613af1565b7f40d3d1a4000000000000000000000000000000000000000000000000000000005f526001600160a01b031660045260245ffd5b5060018114615a37565b6001600160a01b03811680158015615c2e575b6143ca575f9081525f516020615f635f395f51905f5260205260409020546001600160a01b0316615b0a5760015f525f516020615f635f395f51905f5260205261028190615bf3615bcb7ffe44ceacbf4f03c6ac19f86826dd265fa9ec25125e8b1766c207f24cd3bc73c7610db5565b613af1835f516020615f635f395f51905f52906001600160a01b03165f5260205260405f2090565b60015f525f516020615f635f395f51905f526020527ffe44ceacbf4f03c6ac19f86826dd265fa9ec25125e8b1766c207f24cd3bc73c7613af1565b5060018114615b5b565b6040813603126101e35760405190615c4f82611b4a565b803560048110156101e357825260208101359067ffffffffffffffff82116101e357615c7d91369101611d5b565b602082015290565b6004111561471857565b91908260409103126101e3576020825192015190565b15615cac57565b630a31844b60e41b5f52600360045260245ffd5b15615cc757565b630a31844b60e41b5f52600260045260245ffd5b15615ce257565b630a31844b60e41b5f52600160045260245ffd5b15615cfd57565b630a31844b60e41b5f525f60045260245ffd5b602081519101519060208110615d24575090565b5f199060200360031b1b1690565b9180615d3d57505050565b5f5b818110615d4c5750505050565b615d5f615d5a828486614773565b615c38565b9060208160051b86010151918051615d7681615c85565b615d7f81615c85565b615da257600192615d966020615d9c930151615d10565b14615cf6565b01615d3f565b60018151615daf81615c85565b615db881615c85565b03615ddc57600192615dd06020615dd7930151615d10565b1115615cdb565b615d9c565b60028151615de981615c85565b615df281615c85565b03615e1157600192615e0a6020615dd7930151615d10565b1015615cc0565b60038151615e1e81615c85565b615e2781615c85565b03615e6657600192615e496020615dd793015160208082518301019101615c8f565b908210159182615e5b575b5050615ca5565b111590505f80615e54565b7f2c50c45e000000000000000000000000000000000000000000000000000000005f5260045ffd5b929193905f5b848110615ea357505050505050565b60208160051b83010151906001600160a01b038716916040516020810190615edb81613358868b869091604092825260208201520190565b519020833b156101e3576040517fa39e0787000000000000000000000000000000000000000000000000000000008152600481019190915260248101919091526001600160a01b0385166044820152915f908390606490829084905af19182156104ee57600192615f4e575b5001615e94565b8061099d5f615f5c93611b6b565b5f615f4756fe0bb70095b32b9671358306b0339b4c06e7cbd8cb82505941fba30d1eb5b82f000bb70095b32b9671358306b0339b4c06e7cbd8cb82505941fba30d1eb5b82f030bb70095b32b9671358306b0339b4c06e7cbd8cb82505941fba30d1eb5b82f01a164736f6c634300081b000a","linkReferences":{}},"methodIdentifiers":{"accountId()":"9cfd7cff","addDeposit()":"4a58db19","eip712Domain()":"84b0196e","emergencyUninstallHook((address,uint256,bytes,uint256),bytes)":"5bfeadbb","entryPoint()":"b0d691fe","execute(bytes32,bytes)":"e9ae5c53","executeComposable((bytes4,(uint8,uint8,bytes,(uint8,bytes)[])[],(uint8,bytes)[])[])":"7eba07b8","executeFromExecutor(bytes32,bytes)":"d691c964","executeUserOp((address,uint256,bytes,bytes,bytes32,uint256,bytes32,bytes,bytes),bytes32)":"8dd7712f","getActiveHook()":"0a664dba","getDefaultValidator()":"0b3dc354","getDeposit()":"c399ec88","getExecutorsPaginated(address,uint256)":"ea5f61d0","getFallbackHandlerBySelector(bytes4)":"481ddd23","getImplementation()":"aaf10f42","getValidatorsPaginated(address,uint256)":"5faac46b","initializeAccount(bytes)":"4b6a1419","installModule(uint256,address,bytes)":"9517e29f","isInitialized()":"392e53cd","isModuleInstalled(uint256,address,bytes)":"112d3a7d","isValidSignature(bytes32,bytes)":"1626ba7e","proxiableUUID()":"52d1902d","supportsExecutionMode(bytes32)":"d03c7914","supportsModule(uint256)":"f2dc691d","uninstallModule(uint256,address,bytes)":"a71763a8","upgradeToAndCall(address,bytes)":"4f1ef286","validateUserOp((address,uint256,bytes,bytes,bytes32,uint256,bytes32,bytes,bytes),bytes32,uint256)":"19822f7c","withdrawDepositTo(address,uint256)":"4d44560d"},"id":34}