{"abi":[{"type":"constructor","inputs":[{"name":"anEntryPoint","type":"address","internalType":"address"},{"name":"defaultValidator","type":"address","internalType":"address"},{"name":"initData","type":"bytes","internalType":"bytes"}],"stateMutability":"nonpayable"},{"type":"fallback","stateMutability":"payable"},{"type":"receive","stateMutability":"payable"},{"type":"function","name":"accountId","inputs":[],"outputs":[{"name":"","type":"string","internalType":"string"}],"stateMutability":"pure"},{"type":"function","name":"addDeposit","inputs":[],"outputs":[],"stateMutability":"payable"},{"type":"function","name":"eip712Domain","inputs":[],"outputs":[{"name":"fields","type":"bytes1","internalType":"bytes1"},{"name":"name","type":"string","internalType":"string"},{"name":"version","type":"string","internalType":"string"},{"name":"chainId","type":"uint256","internalType":"uint256"},{"name":"verifyingContract","type":"address","internalType":"address"},{"name":"salt","type":"bytes32","internalType":"bytes32"},{"name":"extensions","type":"uint256[]","internalType":"uint256[]"}],"stateMutability":"view"},{"type":"function","name":"emergencyUninstallHook","inputs":[{"name":"data","type":"tuple","internalType":"struct EmergencyUninstall","components":[{"name":"hook","type":"address","internalType":"address"},{"name":"hookType","type":"uint256","internalType":"uint256"},{"name":"deInitData","type":"bytes","internalType":"bytes"},{"name":"nonce","type":"uint256","internalType":"uint256"}]},{"name":"signature","type":"bytes","internalType":"bytes"}],"outputs":[],"stateMutability":"payable"},{"type":"function","name":"entryPoint","inputs":[],"outputs":[{"name":"","type":"address","internalType":"address"}],"stateMutability":"view"},{"type":"function","name":"execute","inputs":[{"name":"mode","type":"bytes32","internalType":"ExecutionMode"},{"name":"executionCalldata","type":"bytes","internalType":"bytes"}],"outputs":[],"stateMutability":"payable"},{"type":"function","name":"executeComposable","inputs":[{"name":"executions","type":"tuple[]","internalType":"struct ComposableExecution[]","components":[{"name":"functionSig","type":"bytes4","internalType":"bytes4"},{"name":"inputParams","type":"tuple[]","internalType":"struct InputParam[]","components":[{"name":"paramType","type":"uint8","internalType":"enum InputParamType"},{"name":"fetcherType","type":"uint8","internalType":"enum InputParamFetcherType"},{"name":"paramData","type":"bytes","internalType":"bytes"},{"name":"constraints","type":"tuple[]","internalType":"struct Constraint[]","components":[{"name":"constraintType","type":"uint8","internalType":"enum ConstraintType"},{"name":"referenceData","type":"bytes","internalType":"bytes"}]}]},{"name":"outputParams","type":"tuple[]","internalType":"struct OutputParam[]","components":[{"name":"fetcherType","type":"uint8","internalType":"enum OutputParamFetcherType"},{"name":"paramData","type":"bytes","internalType":"bytes"}]}]}],"outputs":[],"stateMutability":"payable"},{"type":"function","name":"executeFromExecutor","inputs":[{"name":"mode","type":"bytes32","internalType":"ExecutionMode"},{"name":"executionCalldata","type":"bytes","internalType":"bytes"}],"outputs":[{"name":"returnData","type":"bytes[]","internalType":"bytes[]"}],"stateMutability":"payable"},{"type":"function","name":"executeUserOp","inputs":[{"name":"userOp","type":"tuple","internalType":"struct PackedUserOperation","components":[{"name":"sender","type":"address","internalType":"address"},{"name":"nonce","type":"uint256","internalType":"uint256"},{"name":"initCode","type":"bytes","internalType":"bytes"},{"name":"callData","type":"bytes","internalType":"bytes"},{"name":"accountGasLimits","type":"bytes32","internalType":"bytes32"},{"name":"preVerificationGas","type":"uint256","internalType":"uint256"},{"name":"gasFees","type":"bytes32","internalType":"bytes32"},{"name":"paymasterAndData","type":"bytes","internalType":"bytes"},{"name":"signature","type":"bytes","internalType":"bytes"}]},{"name":"","type":"bytes32","internalType":"bytes32"}],"outputs":[],"stateMutability":"payable"},{"type":"function","name":"getActiveHook","inputs":[],"outputs":[{"name":"hook","type":"address","internalType":"address"}],"stateMutability":"view"},{"type":"function","name":"getDefaultValidator","inputs":[],"outputs":[{"name":"","type":"address","internalType":"address"}],"stateMutability":"view"},{"type":"function","name":"getDeposit","inputs":[],"outputs":[{"name":"result","type":"uint256","internalType":"uint256"}],"stateMutability":"view"},{"type":"function","name":"getExecutorsPaginated","inputs":[{"name":"cursor","type":"address","internalType":"address"},{"name":"size","type":"uint256","internalType":"uint256"}],"outputs":[{"name":"array","type":"address[]","internalType":"address[]"},{"name":"next","type":"address","internalType":"address"}],"stateMutability":"view"},{"type":"function","name":"getFallbackHandlerBySelector","inputs":[{"name":"selector","type":"bytes4","internalType":"bytes4"}],"outputs":[{"name":"","type":"bytes1","internalType":"CallType"},{"name":"","type":"address","internalType":"address"}],"stateMutability":"view"},{"type":"function","name":"getImplementation","inputs":[],"outputs":[{"name":"implementation","type":"address","internalType":"address"}],"stateMutability":"view"},{"type":"function","name":"getValidatorsPaginated","inputs":[{"name":"cursor","type":"address","internalType":"address"},{"name":"size","type":"uint256","internalType":"uint256"}],"outputs":[{"name":"array","type":"address[]","internalType":"address[]"},{"name":"next","type":"address","internalType":"address"}],"stateMutability":"view"},{"type":"function","name":"initializeAccount","inputs":[{"name":"initData","type":"bytes","internalType":"bytes"}],"outputs":[],"stateMutability":"payable"},{"type":"function","name":"installModule","inputs":[{"name":"moduleTypeId","type":"uint256","internalType":"uint256"},{"name":"module","type":"address","internalType":"address"},{"name":"initData","type":"bytes","internalType":"bytes"}],"outputs":[],"stateMutability":"payable"},{"type":"function","name":"isInitialized","inputs":[],"outputs":[{"name":"","type":"bool","internalType":"bool"}],"stateMutability":"view"},{"type":"function","name":"isModuleInstalled","inputs":[{"name":"moduleTypeId","type":"uint256","internalType":"uint256"},{"name":"module","type":"address","internalType":"address"},{"name":"additionalContext","type":"bytes","internalType":"bytes"}],"outputs":[{"name":"","type":"bool","internalType":"bool"}],"stateMutability":"view"},{"type":"function","name":"isValidSignature","inputs":[{"name":"hash","type":"bytes32","internalType":"bytes32"},{"name":"signature","type":"bytes","internalType":"bytes"}],"outputs":[{"name":"","type":"bytes4","internalType":"bytes4"}],"stateMutability":"view"},{"type":"function","name":"proxiableUUID","inputs":[],"outputs":[{"name":"","type":"bytes32","internalType":"bytes32"}],"stateMutability":"view"},{"type":"function","name":"supportsExecutionMode","inputs":[{"name":"mode","type":"bytes32","internalType":"ExecutionMode"}],"outputs":[{"name":"isSupported","type":"bool","internalType":"bool"}],"stateMutability":"view"},{"type":"function","name":"supportsModule","inputs":[{"name":"moduleTypeId","type":"uint256","internalType":"uint256"}],"outputs":[{"name":"","type":"bool","internalType":"bool"}],"stateMutability":"view"},{"type":"function","name":"uninstallModule","inputs":[{"name":"moduleTypeId","type":"uint256","internalType":"uint256"},{"name":"module","type":"address","internalType":"address"},{"name":"deInitData","type":"bytes","internalType":"bytes"}],"outputs":[],"stateMutability":"payable"},{"type":"function","name":"upgradeToAndCall","inputs":[{"name":"newImplementation","type":"address","internalType":"address"},{"name":"data","type":"bytes","internalType":"bytes"}],"outputs":[],"stateMutability":"payable"},{"type":"function","name":"validateUserOp","inputs":[{"name":"op","type":"tuple","internalType":"struct PackedUserOperation","components":[{"name":"sender","type":"address","internalType":"address"},{"name":"nonce","type":"uint256","internalType":"uint256"},{"name":"initCode","type":"bytes","internalType":"bytes"},{"name":"callData","type":"bytes","internalType":"bytes"},{"name":"accountGasLimits","type":"bytes32","internalType":"bytes32"},{"name":"preVerificationGas","type":"uint256","internalType":"uint256"},{"name":"gasFees","type":"bytes32","internalType":"bytes32"},{"name":"paymasterAndData","type":"bytes","internalType":"bytes"},{"name":"signature","type":"bytes","internalType":"bytes"}]},{"name":"userOpHash","type":"bytes32","internalType":"bytes32"},{"name":"missingAccountFunds","type":"uint256","internalType":"uint256"}],"outputs":[{"name":"validationData","type":"uint256","internalType":"uint256"}],"stateMutability":"nonpayable"},{"type":"function","name":"withdrawDepositTo","inputs":[{"name":"to","type":"address","internalType":"address"},{"name":"amount","type":"uint256","internalType":"uint256"}],"outputs":[],"stateMutability":"payable"},{"type":"event","name":"EmergencyHookUninstallRequest","inputs":[{"name":"hook","type":"address","indexed":false,"internalType":"address"},{"name":"timestamp","type":"uint256","indexed":false,"internalType":"uint256"}],"anonymous":false},{"type":"event","name":"EmergencyHookUninstallRequestReset","inputs":[{"name":"hook","type":"address","indexed":false,"internalType":"address"},{"name":"timestamp","type":"uint256","indexed":false,"internalType":"uint256"}],"anonymous":false},{"type":"event","name":"ModuleInstalled","inputs":[{"name":"moduleTypeId","type":"uint256","indexed":false,"internalType":"uint256"},{"name":"module","type":"address","indexed":false,"internalType":"address"}],"anonymous":false},{"type":"event","name":"ModuleUninstalled","inputs":[{"name":"moduleTypeId","type":"uint256","indexed":false,"internalType":"uint256"},{"name":"module","type":"address","indexed":false,"internalType":"address"}],"anonymous":false},{"type":"event","name":"TryDelegateCallUnsuccessful","inputs":[{"name":"callData","type":"bytes","indexed":false,"internalType":"bytes"},{"name":"result","type":"bytes","indexed":false,"internalType":"bytes"}],"anonymous":false},{"type":"event","name":"TryExecuteUnsuccessful","inputs":[{"name":"callData","type":"bytes","indexed":false,"internalType":"bytes"},{"name":"result","type":"bytes","indexed":false,"internalType":"bytes"}],"anonymous":false},{"type":"event","name":"Upgraded","inputs":[{"name":"implementation","type":"address","indexed":true,"internalType":"address"}],"anonymous":false},{"type":"error","name":"AccountAccessUnauthorized","inputs":[]},{"type":"error","name":"AccountAlreadyInitialized","inputs":[]},{"type":"error","name":"AccountNotInitialized","inputs":[]},{"type":"error","name":"ConstraintNotMet","inputs":[{"name":"constraintType","type":"uint8","internalType":"enum ConstraintType"}]},{"type":"error","name":"DefaultValidatorAlreadyInstalled","inputs":[]},{"type":"error","name":"ERC7702AccountCannotBeUpgradedThisWay","inputs":[]},{"type":"error","name":"EmergencyTimeLockNotExpired","inputs":[]},{"type":"error","name":"EmergencyUninstallSigError","inputs":[]},{"type":"error","name":"EntryPointCanNotBeZero","inputs":[]},{"type":"error","name":"FallbackAlreadyInstalledForSelector","inputs":[{"name":"selector","type":"bytes4","internalType":"bytes4"}]},{"type":"error","name":"FallbackCallTypeInvalid","inputs":[]},{"type":"error","name":"FallbackNotInstalledForSelector","inputs":[{"name":"selector","type":"bytes4","internalType":"bytes4"}]},{"type":"error","name":"FallbackSelectorForbidden","inputs":[]},{"type":"error","name":"HookAlreadyInstalled","inputs":[{"name":"currentHook","type":"address","internalType":"address"}]},{"type":"error","name":"HookPostCheckFailed","inputs":[]},{"type":"error","name":"InvalidConstraintType","inputs":[]},{"type":"error","name":"InvalidImplementationAddress","inputs":[]},{"type":"error","name":"InvalidInitData","inputs":[]},{"type":"error","name":"InvalidInput","inputs":[]},{"type":"error","name":"InvalidModule","inputs":[{"name":"module","type":"address","internalType":"address"}]},{"type":"error","name":"InvalidModuleTypeId","inputs":[{"name":"moduleTypeId","type":"uint256","internalType":"uint256"}]},{"type":"error","name":"InvalidNonce","inputs":[]},{"type":"error","name":"InvalidOutputParamFetcherType","inputs":[]},{"type":"error","name":"InvalidParameterEncoding","inputs":[{"name":"message","type":"string","internalType":"string"}]},{"type":"error","name":"InvalidSetOfInputParams","inputs":[{"name":"message","type":"string","internalType":"string"}]},{"type":"error","name":"InvalidSignature","inputs":[]},{"type":"error","name":"LinkedList_AlreadyInitialized","inputs":[]},{"type":"error","name":"LinkedList_EntryAlreadyInList","inputs":[{"name":"entry","type":"address","internalType":"address"}]},{"type":"error","name":"LinkedList_InvalidEntry","inputs":[{"name":"entry","type":"address","internalType":"address"}]},{"type":"error","name":"LinkedList_InvalidPage","inputs":[]},{"type":"error","name":"MismatchModuleTypeId","inputs":[]},{"type":"error","name":"ModuleAddressCanNotBeZero","inputs":[]},{"type":"error","name":"ModuleAlreadyInstalled","inputs":[{"name":"moduleTypeId","type":"uint256","internalType":"uint256"},{"name":"module","type":"address","internalType":"address"}]},{"type":"error","name":"ModuleNotInstalled","inputs":[{"name":"moduleTypeId","type":"uint256","internalType":"uint256"},{"name":"module","type":"address","internalType":"address"}]},{"type":"error","name":"Output_StaticCallFailed","inputs":[]},{"type":"error","name":"PrevalidationHookAlreadyInstalled","inputs":[{"name":"currentPreValidationHook","type":"address","internalType":"address"}]},{"type":"error","name":"UnauthorizedCallContext","inputs":[]},{"type":"error","name":"UnauthorizedOperation","inputs":[{"name":"operator","type":"address","internalType":"address"}]},{"type":"error","name":"UnsupportedCallType","inputs":[{"name":"callType","type":"bytes1","internalType":"CallType"}]},{"type":"error","name":"UnsupportedExecType","inputs":[{"name":"execType","type":"bytes1","internalType":"ExecType"}]},{"type":"error","name":"UnsupportedModuleType","inputs":[{"name":"moduleTypeId","type":"uint256","internalType":"uint256"}]},{"type":"error","name":"UpgradeFailed","inputs":[]}],"bytecode":{"object":"0x610180806040523461030a576163a9803803809161001d8285610376565b833981019060608183031261030a5761003581610399565b9061004260208201610399565b604082015190916001600160401b03821161030a57019280601f8501121561030a5783516001600160401b038111610362576040519461008c601f8301601f191660200187610376565b81865260208601926020838301011161030a57815f926020809301855e860101523060a0524660c05260409360a085516100c68782610376565b600581526020810190644e6578757360d81b82528751916100e78984610376565b60058352640312e332e360dc1b6020938401529051902060e08190527f6a08c3e203132c561752255a4d52ffae85bb9c5d33cb3291520dea1b8435638961010081905288517f8b73c3c69bb8fe3d512ecc4cf759cc79239f7b179b0ffacaa9a75d522b39400f815280840192909252818901524660608201523060808201529190912061012052855163ecd0596160e01b8152600160048201526001600160a01b038516939181602481875afa908115610358575f9161031d575b501561030e57823b1561030a576044925f928388519586809581946306d61fe760e41b8352602060048401525180918160248501528484015e8181018301849052601f01601f191681010301925af18015610300576102f0575b506101405230610160526001600160a01b038116156102e15760805251615ffb90816103ae82396080518181816103c90152818161068f0152818161082901528181610f640152818161113a0152818161120c015281816113e1015281816115330152818161157c0152818161184b01526121a8015260a051816144fe015260c05181614521015260e05181614591015261010051816145b7015261012051816144dd01526101405181818161024101528181611fb701528181612b9701528181612bf401528181613dc6015261536e0152610160518181816109e401526121770152f35b6307e355bf60e31b5f5260045ffd5b5f6102fa91610376565b5f6101fc565b84513d5f823e3d90fd5b5f80fd5b631c4f83bb60e31b5f5260045ffd5b90506020813d602011610350575b8161033860209383610376565b8101031261030a5751801515810361030a575f6101a2565b3d915061032b565b87513d5f823e3d90fd5b634e487b7160e01b5f52604160045260245ffd5b601f909101601f19168101906001600160401b0382119082101761036257604052565b51906001600160a01b038216820361030a5756fe60806040526004361015610015575b3661280357005b5f3560e01c80630a664dba146101d45780630b3dc354146101cf578063112d3a7d146101ca5780631626ba7e146101c557806319822f7c146101c0578063392e53cd146101bb578063481ddd23146101b65780634a58db19146101b15780634b6a1419146101ac5780634d44560d146101a75780634f1ef286146101a257806352d1902d1461019d5780635bfeadbb146101985780635faac46b146101935780637eba07b81461018e57806384b0196e146101895780638dd7712f146101845780639517e29f1461017f5780639cfd7cff1461017a578063a71763a814610175578063aaf10f4214610170578063b0d691fe1461016b578063c399ec8814610166578063d03c791414610161578063d691c9641461015c578063e9ae5c5314610157578063ea5f61d0146101525763f2dc691d0361000e57611a06565b61190a565b611834565b6116ed565b6115ad565b611557565b611514565b6114b6565b6113cd565b61136e565b6111f5565b611101565b611047565b610f06565b610d47565b610a3f565b6109d1565b6108a9565b61080e565b6106b7565b61067d565b6105e8565b6105bc565b610378565b610317565b6102f1565b610222565b6101e7565b5f9103126101e357565b5f80fd5b346101e3575f3660031901126101e35760206001600160a01b035f516020615faf5f395f51905f5254166001600160a01b0360405191168152f35b346101e3575f3660031901126101e35760206040516001600160a01b037f0000000000000000000000000000000000000000000000000000000000000000168152f35b6001600160a01b038116036101e357565b359061028182610265565b565b9181601f840112156101e35782359167ffffffffffffffff83116101e357602083818601950101116101e357565b60606003198201126101e357600435916024356102cd81610265565b916044359067ffffffffffffffff82116101e3576102ed91600401610283565b9091565b346101e357602061030d610304366102b1565b92919091612a5c565b6040519015158152f35b346101e35760403660031901126101e35760043560243567ffffffffffffffff81116101e357602091610351610357923690600401610283565b91611bdb565b6001600160e01b031960405191168152f35b90816101209103126101e35790565b346101e35760603660031901126101e35760043567ffffffffffffffff81116101e3576103ac61047a913690600401610369565b602061042960243561043460443580956103f06001600160a01b037f0000000000000000000000000000000000000000000000000000000000000000163314611cb2565b61042e6103fd3683611d7c565b95869288810135906104138260031a60f81b1590565b156104f3575b5060401c6001600160a01b031690565b612be3565b93613021565b61010084929401525f6001600160a01b036040518098819682957f9700320300000000000000000000000000000000000000000000000000000000845260048401611f60565b0393165af19081156104ee576104a9925f926104bd575b50806104ad575b506040519081529081906020820190565b0390f35b5f9081803892335af1505f610498565b8192506104e19060203d6020116104e7575b6104d98183611b71565b810190611ebe565b91610491565b503d6104cf565b611bd0565b600382901a60f81b600160f81b036105355761052161051a82610100610528940190611e8b565b908a612f2d565b3691611d2b565b6101008501525b5f610419565b600382901a60f81b7f02000000000000000000000000000000000000000000000000000000000000001461056a575b5061052f565b6105ab61059f6105996105b69361058e610589610585611f94565b1590565b611e5c565b610100810190611e8b565b90612d3f565b93919290923691611d2b565b610100880152612e56565b5f610564565b346101e3575f3660031901126101e357602061030d611f94565b6001600160e01b03198116036101e357565b346101e35760203660031901126101e3576040602061064360043561060c816105d6565b6001600160e01b0319165f527f0bb70095b32b9671358306b0339b4c06e7cbd8cb82505941fba30d1eb5b82f0260205260405f2090565b82519061064f82611b50565b54906001600160f81b03196001600160a01b0383169283835260581b16928391015282519182526020820152f35b5f3660031901126101e3575f388180347f00000000000000000000000000000000000000000000000000000000000000005af1156101e357005b60203660031901126101e35760043567ffffffffffffffff81116101e3576106e66106f8913690600401610283565b9080823033036106fa575b5050612e56565b005b9161070693919361315a565b156107fd5750506107f66107e98361072d84610725816107bc98611a5e565b969093611a6c565b9590946107b66107aa6107a4610744368b8b611d2b565b602081519101209561075a610589610585611f94565b61079b6105896105856107948a5f527f0bb70095b32b9671358306b0339b4c06e7cbd8cb82505941fba30d1eb5b82f0960205260405f2090565b5460ff1690565b30943691611d2b565b856131a5565b6001600160a01b031690565b14612029565b5f527f0bb70095b32b9671358306b0339b4c06e7cbd8cb82505941fba30d1eb5b82f0960205260405f2090565b805460ff19166001179055565b5f806106f1565b9150915061080961317c565b6107f6565b60403660031901126101e35760043561082681610265565b5f7f0000000000000000000000000000000000000000000000000000000000000000602435336001600160a01b0383161480156108a0575b61086790611cb2565b604051936014526034526f205c28780000000000000000000000008252604460108338935af115610898575f603452005b3d5f823e3d90fd5b5033301461085e565b60403660031901126101e3576004356108c181610265565b60243567ffffffffffffffff81116101e3576108e1903690600401610283565b906001600160a01b036109086001600160a01b035f516020615faf5f395f51905f52541690565b168061091857506106f89261214a565b90916040519263d68f602560e01b84525f848061093a363433600485016120e4565b038183875af19384156104ee575f946109a9575b5061095a92939461214a565b803b156101e3576109855f92918392604051948580948193630b9dfbed60e11b83526004830161210a565b03925af180156104ee5761099557005b806109a35f6106f893611b71565b806101d9565b61095a9394506109ca903d805f833e6109c28183611b71565b81019061209e565b939261094e565b346101e3575f3660031901126101e357307f000000000000000000000000000000000000000000000000000000000000000003610a325760206040517f360894a13ba1a3210667c828492db98dca3e2076cc3735a920a3ca505d382bbc8152f35b639f03a0265f526004601cfd5b60403660031901126101e35760043567ffffffffffffffff81116101e3578060040190608060031982360301126101e35760243567ffffffffffffffff81116101e357610a93610a9a913690600401610283565b90846132a4565b610ab66024820135926044610aae826122ca565b930190611e8b565b929060048214828115610ce1575b610acd916122d4565b610ae38383610ade87858484612a5c565b612307565b610b1d836001600160a01b03165f527f0bb70095b32b9671358306b0339b4c06e7cbd8cb82505941fba30d1eb5b82f0460205260405f2090565b5480610bae575050507f2841d18703faaff388732165e48fe431468531b1b1e626b1b7cbcbfc0d79c7409150610ba99042610b88826001600160a01b03165f527f0bb70095b32b9671358306b0339b4c06e7cbd8cb82505941fba30d1eb5b82f0460205260405f2090565b55604080516001600160a01b03909216825242602083015290918291820190565b0390a1005b610bbb6203f48082612359565b4210610c26575050507fcbd44a75f6935b5837022648b6c8487db984701200c5381c7c0f8c2b1d69b9da9150610ba99042610b88826001600160a01b03165f527f0bb70095b32b9671358306b0339b4c06e7cbd8cb82505941fba30d1eb5b82f0460205260405f2090565b610c2f90612349565b4210610cb9577f341347516a9de374859dfda710fa4828b2d48cb57d4fbe4c1149612b8e02276e93610c9e915f610c96866001600160a01b03165f527f0bb70095b32b9671358306b0339b4c06e7cbd8cb82505941fba30d1eb5b82f0460205260405f2090565b558385613467565b604080519182526001600160a01b03929092166020820152a1005b7f07f2f2d2000000000000000000000000000000000000000000000000000000005f5260045ffd5b60026007198201109150610ac4565b90929192604082016040835281518091526020606084019201905f5b818110610d28575050506001600160a01b036020919416910152565b82516001600160a01b0316845260209384019390920191600101610d0c565b346101e35760403660031901126101e357600435610d6481610265565b6024359060016001600160a01b038216141580610ef4575b610ed9578115610eb15790610d9081614686565b610dc8610dbb5f946001600160a01b03165f525f516020615f8f5f395f51905f5260205260405f2090565b546001600160a01b031690565b6001600160a01b0381168015159081610ea5575b5080610e9c575b15610e3d57610e31610dbb82610e0e610e3794610e008988613f4c565b906001600160a01b03169052565b6001600160a01b03165f525f516020615f8f5f395f51905f5260205260405f2090565b936146b8565b92610dc8565b908360016001600160a01b038416141580610e93575b610e69575b81526104a960405192839283610cf0565b9150610e8d610e80610e7a846146c6565b83613f4c565b516001600160a01b031690565b91610e58565b50801515610e53565b50828410610de3565b6001915014155f610ddc565b7ff7250817000000000000000000000000000000000000000000000000000000005f5260045ffd5b637c84ecfb60e01b5f526001600160a01b031660045260245ffd5b50610f0161058582613e24565b610d7c565b60203660031901126101e35760043567ffffffffffffffff81116101e357366023820112156101e357806004013567ffffffffffffffff81116101e3576024820191602436918360051b0101116101e357610f8b6001600160a01b037f0000000000000000000000000000000000000000000000000000000000000000163314611cb2565b6001600160a01b03610fb16001600160a01b035f516020615faf5f395f51905f52541690565b1680610fc157506106f8916135e7565b906040519263d68f602560e01b84525f8480610fe2363433600485016120e4565b038183875af19384156104ee575f94611001575b509061095a916135e7565b61095a9291945061101b903d805f833e6109c28183611b71565b939091610ff6565b805180835260209291819084018484015e5f828201840152601f01601f1916010190565b346101e3575f3660031901126101e3576110a26110b0611065613987565b6040929192519384937f0f00000000000000000000000000000000000000000000000000000000000000855260e0602086015260e0850190611023565b908382036040850152611023565b4660608301523060808301525f60a083015281810360c083015260206060519182815201906080905f5b8181106110e8575050500390f35b82518452859450602093840193909201916001016110da565b60403660031901126101e35760043567ffffffffffffffff81116101e35761112d903690600401610369565b6111616001600160a01b037f0000000000000000000000000000000000000000000000000000000000000000163314611cb2565b6001600160a01b036111876001600160a01b035f516020615faf5f395f51905f52541690565b168061119757506106f8906123a2565b6040519163d68f602560e01b83525f83806111b7363433600485016120e4565b038183865af19283156104ee575f936111d5575b5061095a906123a2565b61095a9193506111ee903d805f833e6109c28183611b71565b92906111cb565b6111fe366102b1565b906001600160a01b039392937f00000000000000000000000000000000000000000000000000000000000000001633148015611365575b61123e90611cb2565b6112496105856130ca565b611358575b6001600160a01b03841615611330576001830361129c5790611270918461528c565b5f526020527fd21d0b289f126c4b473ea641963e766833c2f13866e4ff480abd787c100ef12360405fa1005b600283036112b457906112af918461518c565b611270565b600383036112c757906112af9184614ea8565b600483036112da57906112af9184614d3b565b6002600719840110156112f357906112af918484614b51565b8261130357906112af9184614a28565b7f098312d2000000000000000000000000000000000000000000000000000000005f52600483905260245ffd5b7f5316c18d000000000000000000000000000000000000000000000000000000005f5260045ffd5b6113606148f3565b61124e565b50333014611235565b346101e3575f3660031901126101e3576104a960405161138f604082611b71565b601481527f6269636f6e6f6d792e6e657875732e312e332e300000000000000000000000006020820152604051918291602083526020830190611023565b6113d6366102b1565b916001600160a01b037f000000000000000000000000000000000000000000000000000000000000000016331480156114ad575b61141390611cb2565b6001600160a01b036114396001600160a01b035f516020615faf5f395f51905f52541690565b168061144957506106f8936123fc565b916040939193519363d68f602560e01b85525f858061146d363433600485016120e4565b038183885af19485156104ee575f9561148d575b5061095a9394956123fc565b61095a9495506114a6903d805f833e6109c28183611b71565b9493611481565b5033301461140a565b346101e3575f3660031901126101e3577f360894a13ba1a3210667c828492db98dca3e2076cc3735a920a3ca505d382bbc546001600160a01b0381161561150c575b6020906001600160a01b0360405191168152f35b5030546114f8565b346101e3575f3660031901126101e35760206040516001600160a01b037f0000000000000000000000000000000000000000000000000000000000000000168152f35b346101e3575f3660031901126101e357306020526370a082315f52602080806024601c7f00000000000000000000000000000000000000000000000000000000000000005afa601f3d1116815102604051908152f35b346101e35760203660031901126101e3576104a96004358060081b6001600160f81b0319821615918215611646575b8215611631575b50816115fd575b5060405190151581529081906020820190565b6001600160f81b031981161591508115611619575b505f6115ea565b6001600160f81b031916600160f81b1490505f611612565b6001600160f81b03199081161491505f6115e3565b6001600160f81b03198116600160f81b1492506115dc565b9060406003198301126101e357600435916024359067ffffffffffffffff82116101e3576102ed91600401610283565b602081016020825282518091526040820191602060408360051b8301019401925f915b8383106116c057505050505090565b90919293946020806116de600193603f198682030187528951611023565b970193019301919392906116b1565b6116f63661165e565b9161170033613e64565b15611808576001600160a01b0361172b6001600160a01b035f516020615faf5f395f51905f52541690565b168061174c575091611740916104a99361259e565b6040519182918261168e565b90926040519263d68f602560e01b84525f848061176e363433600485016120e4565b038183875af19384156104ee575f946117e8575b5061178e92939461259e565b90803b156101e3576117ba5f93918492604051958680948193630b9dfbed60e11b83526004830161210a565b03925af19182156104ee576104a9926117d4575b50611740565b806109a35f6117e293611b71565b5f6117ce565b61178e939450611801903d805f833e6109c28183611b71565b9392611782565b7fb927fe5e000000000000000000000000000000000000000000000000000000005f523360045260245ffd5b61183d3661165e565b906118726001600160a01b037f0000000000000000000000000000000000000000000000000000000000000000163314611cb2565b6001600160a01b036118986001600160a01b035f516020615faf5f395f51905f52541690565b16806118a857506106f8926126f0565b90916040519263d68f602560e01b84525f84806118ca363433600485016120e4565b038183875af19384156104ee575f946118ea575b5061095a9293946126f0565b61095a939450611903903d805f833e6109c28183611b71565b93926118de565b346101e35760403660031901126101e35760043561192781610265565b6024359060016001600160a01b0382161415806119f4575b610ed9578115610eb1579061195381614686565b61197e610dbb5f946001600160a01b03165f525f516020615fcf5f395f51905f5260205260405f2090565b6001600160a01b03811680151590816119e8575b50806119df575b15610e3d57610e31610dbb826119b66119d994610e008988613f4c565b6001600160a01b03165f525f516020615fcf5f395f51905f5260205260405f2090565b9261197e565b50828410611999565b6001915014155f611992565b50611a0161058582613e64565b61193f565b346101e35760203660031901126101e357602060043561031f6001604051921b1615158152f35b634e487b7160e01b5f52601160045260245ffd5b906177398202918083046177391490151715611a5957565b611a2d565b906041116101e35790604190565b90929192836041116101e35783116101e357604101916040190190565b906014116101e35790601490565b90929192836014116101e35783116101e357601401916013190190565b906004116101e35790600490565b90929192836004116101e35783116101e357600401916003190190565b90929192836005116101e35783116101e357600501916004190190565b356bffffffffffffffffffffffff19811692919060148210611b1c575050565b6bffffffffffffffffffffffff1960149290920360031b82901b16169150565b634e487b7160e01b5f52604160045260245ffd5b6040810190811067ffffffffffffffff821117611b6c57604052565b611b3c565b90601f8019910116810190811067ffffffffffffffff821117611b6c57604052565b908160209103126101e35751611ba8816105d6565b90565b611ba893926001600160a01b0360609316825260208201528160408201520190611023565b6040513d5f823e3d90fd5b918015611c94575b90611c1d611c4493611c178480611c11610429611c0b611c0560209a8a611a89565b90611afc565b60601c90565b95611a97565b91612c8a565b91906001600160a01b03604051809681958294637aa8f17760e11b84523360048501611bab565b0392165afa5f9181611c63575b50611ba857506001600160e01b031990565b611c8691925060203d602011611c8d575b611c7e8183611b71565b810190611b93565b905f611c51565b503d611c74565b611ca261ffff821904611a41565b8303611be35790611ba892612b11565b15611cb957565b7fac52ccbe000000000000000000000000000000000000000000000000000000005f5260045ffd5b6040519061028161012083611b71565b60405190610281606083611b71565b60405190610281604083611b71565b67ffffffffffffffff8111611b6c57601f01601f191660200190565b929192611d3782611d0f565b91611d456040519384611b71565b8294818452818301116101e3578281602093845f960137010152565b9080601f830112156101e357816020611ba893359101611d2b565b919091610120818403126101e357611d92611ce1565b92611d9c82610276565b845260208201356020850152604082013567ffffffffffffffff81116101e35781611dc8918401611d61565b6040850152606082013567ffffffffffffffff81116101e35781611ded918401611d61565b60608501526080820135608085015260a082013560a085015260c082013560c085015260e082013567ffffffffffffffff81116101e35781611e30918401611d61565b60e085015261010082013567ffffffffffffffff81116101e357611e549201611d61565b610100830152565b15611e6357565b7fae4edb1b000000000000000000000000000000000000000000000000000000005f5260045ffd5b903590601e19813603018212156101e3570180359067ffffffffffffffff82116101e3576020019181360383136101e357565b908160209103126101e3575190565b80516001600160a01b03168252611ba89160208201516020820152610100611f4e611f1e611f0c60408601516101206040870152610120860190611023565b60608601518582036060870152611023565b6080850151608085015260a085015160a085015260c085015160c085015260e085015184820360e0860152611023565b92015190610100818403910152611023565b929190611f77602091604086526040860190611ecd565b930152565b908160209103126101e3575180151581036101e35790565b60405163d60b347f60e01b81523060048201526020816024816001600160a01b037f0000000000000000000000000000000000000000000000000000000000000000165afa9081156104ee575f91611ffa575b508015611ff15790565b50611ba86130ca565b61201c915060203d602011612022575b6120148183611b71565b810190611f7c565b5f611fe7565b503d61200a565b1561203057565b7f8baa579f000000000000000000000000000000000000000000000000000000005f5260045ffd5b81601f820112156101e35780519061206f82611d0f565b9261207d6040519485611b71565b828452602083830101116101e357815f9260208093018386015e8301015290565b906020828203126101e357815167ffffffffffffffff81116101e357611ba89201612058565b908060209392818452848401375f828201840152601f01601f1916010190565b611ba893926001600160a01b03606093168252602082015281604082015201905f6120c4565b906020611ba8928181520190611023565b1561212257565b7fc970156c000000000000000000000000000000000000000000000000000000005f5260045ffd5b9190916001600160a01b0381169061216382151561211b565b61216f813b151561211b565b305561219a307f00000000000000000000000000000000000000000000000000000000000000001490565b610a32576001600160a01b037f000000000000000000000000000000000000000000000000000000000000000016331480156122c1575b6121da90611cb2565b6121e261315a565b612299573d5f526352d1902d6001527f360894a13ba1a3210667c828492db98dca3e2076cc3735a920a3ca505d382bbc602060016004601d855afa510361228b57807fbc7cd75a20ee27fd9adebab32041f755214dbc6bffa90cc0225b39da2e5c2d3b5f80a281817f360894a13ba1a3210667c828492db98dca3e2076cc3735a920a3ca505d382bbc5561227557505050565b815f926040519485378338925af4156108985750565b6355299b496001526004601dfd5b7fdc3b8379000000000000000000000000000000000000000000000000000000005f5260045ffd5b503330146121d1565b35611ba881610265565b156122dc5750565b7f41c38b30000000000000000000000000000000000000000000000000000000005f5260045260245ffd5b15612310575050565b6001600160a01b0392507fbe601672000000000000000000000000000000000000000000000000000000005f526004521660245260445ffd5b90620151808201809211611a5957565b91908201809211611a5957565b908092918237015f815290565b3d1561239d573d9061238482611d0f565b916123926040519384611b71565b82523d5f602084013e565b606090565b6123b0906060810190611e8b565b806004116101e3576040515f9283929060031982019060040183378101826003198201528160031991030190305af46123e7612373565b50156123ef57565b63acfdb4445f526004601cfd5b90917f341347516a9de374859dfda710fa4828b2d48cb57d4fbe4c1149612b8e02276e936124318484610ade84868484612a5c565b6001830361246d576124439184613ba7565b61244b613ca1565b604080519182526001600160a01b03909216602082015290819081015b0390a1565b600283036124845761247f9184613a32565b61244b565b60038303612568576125619161252c61255b926125246040516124a681611b50565b5f81525f60208201526124c561060c6124bf8588611ab4565b90612a26565b8151815460209093015174ff000000000000000000000000000000000000000060589190911c167fffffffffffffffffffffff0000000000000000000000000000000000000000009093166001600160a01b0390911617919091179055565b805a93611ac2565b929061254d604051948592638a91b0e360e01b602085015260248401613456565b03601f198101845283611b71565b8461462e565b505061244b565b600483148015612590575b61257e57505061244b565b612589918385613467565b5f80612561565b506002600719840110612573565b91908260081b926125b7816001600160f81b0319161590565b156125c8575090611ba8929161404d565b6001600160f81b03198116600160f81b036125e9575090611ba89291613f86565b6001600160f81b0319808216036126d3575090612605916153e4565b909161260f613ebc565b936001600160f81b0319811661264157509161262a92615423565b61263382613f3f565b5261263d81613f3f565b5090565b6001600160f81b03198116600160f81b036126b757508183612662926153fe565b61266b85613f3f565b521561267657505090565b7f5bd4c60b4b38b664d8fb5944eb974e3d85083d79afe5ce934ccabcc913707c10916126b16126a485613f3f565b5160405193849384613f60565b0390a190565b6308c3ee0360e11b5f526001600160f81b03191660045260245ffd5b6001600160f81b031990632e5bf3f960e21b5f521660045260245ffd5b91908260081b92612709816001600160f81b0319161590565b1561271a5750906102819291614183565b6001600160f81b03198116600160f81b0361273b57509061028192916140fa565b6001600160f81b0319808216036126d3575090612757916153e4565b929091906001600160f81b0319811661278557505f9083604051938437838338925af4156108985701604052565b9192916001600160f81b03198116600160f81b036127e6575081836127a9926153fe565b9290156127b557505050565b6124687f5bd4c60b4b38b664d8fb5944eb974e3d85083d79afe5ce934ccabcc913707c109360405193849384613f60565b6001600160f81b0319906308c3ee0360e11b5f521660045260245ffd5b5f356001600160e01b031981169061284c826001600160e01b0319165f527f0bb70095b32b9671358306b0339b4c06e7cbd8cb82505941fba30d1eb5b82f0260205260405f2090565b5461286b6001600160a01b0382169160581b6001600160f81b03191690565b906001600160a01b0381166128b457505060e01c63bc197c81811463f23a6e6182141763150b7a028214176128ab57506308c63e275f526020526024601cfd5b6020526020603cf35b5f516020615faf5f395f51905f52546001600160a01b03168015159260609290846129d0575b6001600160f81b03198116607f60f91b0361297e57505f80916128fb61561e565b90602082519201905afa9261290e612373565b935b1561297657612922575b825160208401f35b803b156101e35761294d5f92918392604051948580948193630b9dfbed60e11b83526004830161210a565b03925af180156104ee57612962575b8061291a565b806109a35f61297093611b71565b8161295c565b835160208501fd5b6001600160f81b031981166129b457505f809161299961561e565b906020825192019034905af1926129ae612373565b93612910565b632e5bf3f960e21b5f526001600160f81b03191660045260245ffd5b925060405163d68f602560e01b81525f81806129f1363433600485016120e4565b038183875af19081156104ee575f91612a0c575b50926128da565b612a2091503d805f833e6109c28183611b71565b85612a05565b919091356001600160e01b031981169260048110612a42575050565b6001600160e01b0319929350829060040360031b1b161690565b92909160018403612a73575050611ba89150613e24565b60028403612a87575050611ba89150613e64565b60038403612ab657611ba8935060048210612aae57612aa9916124bf91611ab4565b614279565b50505f614279565b505090600481145f14612ae457505f516020615faf5f395f51905f52546001600160a01b0391821691161490565b600260071982011015612b0b576001600160a01b03612b038192614216565b921691161490565b50505f90565b60015f9081525f516020615f8f5f395f51905f526020527ffe44ceacbf4f03c6ac19f86826dd265fa9ec25125e8b1766c207f24cd3bc73c7546001600160a01b031694939291905b6001600160a01b0386168015159081612bd7575b5015612b8f57612b83848484612b89948a6142c5565b9561439d565b94612b59565b612bbb9495507f00000000000000000000000000000000000000000000000000000000000000006142c5565b6001600160e01b03198116611ba857506001600160e01b031990565b6001915014155f612b6d565b6001600160a01b038116612c1657507f000000000000000000000000000000000000000000000000000000000000000090565b612c1f81613e24565b15612c275790565b636859e01e5f526020526024601cfd5b9190916040818403126101e357805192602082015167ffffffffffffffff81116101e357611ba89201612058565b611ba894926001600160a01b03606093168252602082015281604082015201916120c4565b7f0bb70095b32b9671358306b0339b4c06e7cbd8cb82505941fba30d1eb5b82f06549293926001600160a01b031680612ccb575090611ba891933691611d2b565b6040517f7a0468b7000000000000000000000000000000000000000000000000000000008152945f93869384928392612d08923360048601612c65565b03915afa9182156104ee575f905f93612d2057509190565b90506102ed9192503d805f833e612d378183611b71565b810190612c37565b9060f911612e49578035906020810135810190602082019135906040810135019360208501943593612d72368486611d2b565b602081519101205f528060a01c602052612e016105856001600160a01b0360405f201692835f526001600160a01b0360205f2091608060205216601f526305d78094600b52601960272090604051915f52601b602052846040526060526020604060805f60015afa505f6060523d6060185190604052612df930916001600160a01b031690565b143015151690565b612e42575b8015612e35575f527f4f058962bce244bca6c9be42f256083afc66f1f63a1f9a04e31a3042311af38d60205fa1565b63e483bbcb5f526004601cfd5b505f612e06565b63aed595955f526004601cfd5b90601811612ee0575f8160208083940135820180358060405193849301833781018481520391355af4612e87612373565b5015612ed357612e9561315a565b15612e9c57565b612ea4611f94565b15612eab57565b7f7556034e000000000000000000000000000000000000000000000000000000005f5260045ffd5b63315927c55f526004601cfd5b7ff9c42c60000000000000000000000000000000000000000000000000000000005f5260045ffd5b6001600160a01b03611ba89593606093835216602082015281604082015201916120c4565b9290803560601c601482013590603483013560e01c916038840193838101603881013560e01c976038838a603c850194010301998160048c01116101e357612fa987612f9f8a9460048f612fae9901019e6003199103019c80612f99610429611c0b611c05848c611a89565b97611a97565b949093888a6143e2565b614456565b1561301457303b156101e357612ff35f9360405195869485947f9517e29f00000000000000000000000000000000000000000000000000000000865260048601612f08565b038183305af180156104ee576130065750565b806109a35f61028193611b71565b6346fdc3335f526004601cfd5b92916001600160a01b037f0bb70095b32b9671358306b0339b4c06e7cbd8cb82505941fba30d1eb5b82f05541680155f14613060575050610100015190565b60405f80948297949751978895869485937fe24f8f930000000000000000000000000000000000000000000000000000000085526130aa6004860191606083526060830190611ecd565b936020820152015203925af19182156104ee575f905f93612d2057509190565b60015f525f516020615f8f5f395f51905f526020527ffe44ceacbf4f03c6ac19f86826dd265fa9ec25125e8b1766c207f24cd3bc73c7546001600160a01b03161515806131145790565b5060015f525f516020615fcf5f395f51905f526020527fbdfeb076d903611fa58576955630d640569633049bcf40ad9c22db9251b54a13546001600160a01b0316151590565b5f906017303b1461316757565b905060035f80303c5f5160e81c62ef01001490565b7f90b772c2cb8a51aa7a8a65fc23543c6d022d5b3f8e2b92eed79fba7eef8293005c15612e4957565b9190916040519280518060401461320a576041146131cf57505050505b638baa579f5f526004601cfd5b60209160608201515f1a835260408201516060525b5f5201516040526020600160805f825afa51915f6060526040523d6102815750506131c2565b506020917f7fffffffffffffffffffffffffffffffffffffffffffffffffffffffffffffff6040830151601b8160ff1c018552166060526131e4565b1561324d57565b7f756688fe000000000000000000000000000000000000000000000000000000005f5260045ffd5b1561327c57565b7fbf6b5843000000000000000000000000000000000000000000000000000000005f5260045ffd5b6020916001600160a01b03916133e661340795806132cb610429611c0b611c058489611a89565b946133e16107e96133746132de886122ca565b8b8901359861336c60606132f86105216040850185611e8b565b8f81519101209201359a61335e8c60405194602093869485019788909493926080926001600160a01b0360a08401977fd3ddfc12654178cc44d4a7b6b969cfdce7ffe6342326ba37825314cffa0fba9c8552166020840152604083015260608201520152565b03601f198101835282611b71565b5190206144db565b966133b46133af610585610794845f527f0bb70095b32b9671358306b0339b4c06e7cbd8cb82505941fba30d1eb5b82f0760205260405f2090565b613246565b5f527f0bb70095b32b9671358306b0339b4c06e7cbd8cb82505941fba30d1eb5b82f0760205260405f2090565b611a97565b93909160405196879586948593637aa8f17760e11b85523060048601612c65565b0392165afa80156104ee576001600160e01b0319630b135d3f60e11b91610281935f91613437575b501614613275565b613450915060203d602011611c8d57611c7e8183611b71565b5f61342f565b916020611ba89381815201916120c4565b6134ca939291600481036134ce57505f516020615faf5f395f51905f5280546001600160a01b03191690555b6134c55a926134b7604051958692638a91b0e360e01b602085015260248401613456565b03601f198101855284611b71565b61462e565b5050565b60026007198201106134e1575b50613493565b6008810361352057507f0bb70095b32b9671358306b0339b4c06e7cbd8cb82505941fba30d1eb5b82f0680546001600160a01b03191690555b5f6134db565b60090361351a577f0bb70095b32b9671358306b0339b4c06e7cbd8cb82505941fba30d1eb5b82f0580546001600160a01b031916905561351a565b634e487b7160e01b5f52603260045260245ffd5b91908110156135915760051b81013590605e19813603018212156101e3570190565b61355b565b903590601e19813603018212156101e3570180359067ffffffffffffffff82116101e357602001918160051b360383136101e357565b604051906135db602083611b71565b5f808352366020840137565b91905f5b8181106135f85750509050565b61360381838661356f565b6136106020820182613596565b90823561361c816105d6565b6136246146d4565b506040516001600160e01b031990911660208201525f92839161364a816024810161335e565b925f91825b8184106136f657505050509160019493916136de9361367e61366f611cf1565b6001600160a01b039094168452565b6020830152604082015261369c6107aa82516001600160a01b031690565b156136e4576136ca816136b96136d693516001600160a01b031690565b9060406020820151910151916159c1565b915b6040810190613596565b3092916147c1565b016135eb565b506136d66136f06135cc565b916136cc565b61370c6137078584869a979a614704565b615778565b9361372061371b898587614704565b614749565b6137298161473a565b6138585750600261374660206137408a8688614704565b01614749565b61374f8161473a565b146137ec5760018116613780576137776107aa6001809317956020808251830101910161478a565b965b019261364f565b604051634d038a6760e11b815260206004820152602660248201527f54415247455420706172616d20747970652063616e206f6e6c7920626520736560448201527f74206f6e636500000000000000000000000000000000000000000000000000006064820152608490fd5b604051635107885760e11b815260206004820152603b60248201527f42414c414e434520666574636865722074797065206973206e6f74207375707060448201527f6f7274656420666f722054415247455420706172616d207479706500000000006064820152608490fd5b9694600161386a61371b888688614704565b6138738161473a565b0361390c5750600281166138a05761389a6002600192179460208082518301019101611ebe565b94613779565b604051634d038a6760e11b815260206004820152602560248201527f56414c554520706172616d20747970652063616e206f6e6c792062652073657460448201527f206f6e63650000000000000000000000000000000000000000000000000000006064820152608490fd5b9495600261392161371b898688999699614704565b61392a8161473a565b036139415760019161393b91614768565b95613779565b604051635107885760e11b815260206004820152601260248201527f496e76616c696420706172616d207479706500000000000000000000000000006044820152606490fd5b604051613995604082611b71565b600581527f4e657875730000000000000000000000000000000000000000000000000000006020820152906040516139ce604082611b71565b600581527f312e332e30000000000000000000000000000000000000000000000000000000602082015290565b9190916040818403126101e3578035613a1381610265565b92602082013567ffffffffffffffff81116101e357611ba89201611d61565b90613a48906001600160a01b03938101906139fb565b92166001600160a01b03821680158015613b9d575b613b8a576001600160a01b03613a91835f516020615fcf5f395f51905f52906001600160a01b03165f5260205260405f2090565b541603613b6e579181613b126134ca94613af7613ad2610dbb6134b7975f516020615fcf5f395f51905f52906001600160a01b03165f5260205260405f2090565b915f516020615fcf5f395f51905f52906001600160a01b03165f5260205260405f2090565b906001600160a01b03166001600160a01b0319825416179055565b613b4d613b3d825f516020615fcf5f395f51905f52906001600160a01b03165f5260205260405f2090565b6001600160a01b03198154169055565b6134c55a92604051948591638a91b0e360e01b60208401526024830161210a565b637c84ecfb60e01b5f526001600160a01b03821660045260245ffd5b50637c84ecfb60e01b5f5260045260245ffd5b5060018114613a5d565b90613bbd906001600160a01b03938101906139fb565b92166001600160a01b03821680158015613c97575b613b8a576001600160a01b03613c06835f516020615f8f5f395f51905f52906001600160a01b03165f5260205260405f2090565b541603613b6e579181613c6c6134ca94613af7613c47610dbb6134b7975f516020615f8f5f395f51905f52906001600160a01b03165f5260205260405f2090565b915f516020615f8f5f395f51905f52906001600160a01b03165f5260205260405f2090565b613b4d613b3d825f516020615f8f5f395f51905f52906001600160a01b03165f5260205260405f2090565b5060018114613bd2565b613cac61058561315a565b80613daa575b613cb857565b60015f525f516020615f8f5f395f51905f52602052613cf67ffe44ceacbf4f03c6ac19f86826dd265fa9ec25125e8b1766c207f24cd3bc73c7610dbb565b6001600160a01b03811680151580613d9f575b15613d8e5760405163d60b347f60e01b815230600482015290602090829060249082905afa9081156104ee575f91613d70575b50613d4f57613d4a9061439d565b613cf6565b6001600160a01b036001915b1614613d6357565b63cc319d845f526004601cfd5b613d88915060203d8111612022576120148183611b71565b5f613d3c565b506001600160a01b03600191613d5b565b506001811415613d09565b5060405163d60b347f60e01b81523060048201526020816024817f00000000000000000000000000000000000000000000000000000000000000006001600160a01b03165afa9081156104ee575f91613e05575b5015613cb2565b613e1e915060203d602011612022576120148183611b71565b5f613dfe565b6001600160a01b031680600114159081613e3c575090565b90505f525f516020615f8f5f395f51905f526020526001600160a01b0360405f205416151590565b6001600160a01b031680600114159081613e7c575090565b90505f525f516020615fcf5f395f51905f526020526001600160a01b0360405f205416151590565b67ffffffffffffffff8111611b6c5760051b60200190565b60408051909190613ecd8382611b71565b6001815291601f1901825f5b828110613ee557505050565b806060602080938501015201613ed9565b90613f0082613ea4565b613f0d6040519182611b71565b8281528092613f1e601f1991613ea4565b01905f5b828110613f2e57505050565b806060602080938501015201613f22565b8051156135915760200190565b80518210156135915760209160051b010190565b91611ba89391613f78916040855260408501916120c4565b916020818403910152611023565b90613f9091615456565b916001600160f81b0319811661400d5750613faa82613ef6565b915f5b818110613fba5750505090565b80613ff1613fcb600193858761356f565b8035613fd681610265565b613fe96020830135926040810190611e8b565b9290916155d5565b613ffb8287613f4c565b526140068186613f4c565b5001613fad565b9291906001600160f81b03198416600160f81b0361403057611ba89293506154d6565b6001600160f81b0319846308c3ee0360e11b5f521660045260245ffd5b9061405a91939293615586565b919092614065613ebc565b956001600160f81b0319811661409757509061408193916155d5565b61408a83613f3f565b5261409482613f3f565b50565b6001600160f81b03198116600160f81b036127e65750836140b99284926155ae565b6140c286613f3f565b52156140cc575050565b7fb5282692b8c578af7fb880895d599035496b5e64d1f14bf428a1ed3bc406f662916124686126a486613f3f565b9061410491615456565b90916001600160f81b0319811661416157505f5b81811061412457505050565b8061415b614135600193858761356f565b803561414081610265565b6141536020830135926040810190611e8b565b929091615602565b01614118565b92916001600160f81b03198416600160f81b03614030576140949293506154d6565b6001600160f81b03199161419691615586565b9094909391929116806141af5750906102819391615602565b600160f81b81036142045750836141c79284926155ae565b9290156141d357505050565b6124687fb5282692b8c578af7fb880895d599035496b5e64d1f14bf428a1ed3bc406f6629360405193849384613f60565b6308c3ee0360e11b5f5260045260245ffd5b60080361424b576001600160a01b037f0bb70095b32b9671358306b0339b4c06e7cbd8cb82505941fba30d1eb5b82f06541690565b6001600160a01b037f0bb70095b32b9671358306b0339b4c06e7cbd8cb82505941fba30d1eb5b82f05541690565b6001600160a01b036142bd81926001600160e01b0319165f527f0bb70095b32b9671358306b0339b4c06e7cbd8cb82505941fba30d1eb5b82f0260205260405f2090565b541691161490565b6142f5936001600160a01b0360209496939660405196879586948593637aa8f17760e11b85523360048601612c65565b0392165afa9081156104ee575f9161437e575b507f77390000000000000000000000000000000000000000000000000000000000007fffff00000000000000000000000000000000000000000000000000000000000082161480614361575b61435c575090565b905090565b506001600160e01b031982166001600160e01b0319821611614354565b614397915060203d602011611c8d57611c7e8183611b71565b5f614308565b6001600160a01b031680156143d0575f525f516020615f8f5f395f51905f526020526001600160a01b0360405f20541690565b637c84ecfb60e01b5f5260045260245ffd5b93926143f091933691611d2b565b6020815191012090604051926001600160a01b0360208501957ff6c866c1cd985ce61f030431e576c0e82887de0643dfa8a2e6efc3463e638ed087521660408501526060840152608083015260a082015260a0815261445060c082611b71565b51902090565b92602092916001600160a01b0361446f61448d966144db565b60405196879586948593637aa8f17760e11b85523060048601612c65565b0392165afa5f91816144ba575b506144a457505f90565b6001600160e01b031916630b135d3f60e11b1490565b6144d491925060203d602011611c8d57611c7e8183611b71565b905f61449a565b7f00000000000000000000000000000000000000000000000000000000000000007f000000000000000000000000000000000000000000000000000000000000000030147f000000000000000000000000000000000000000000000000000000000000000046141615614566575b6719010000000000005f52601a52603a526042601820905f603a52565b5060a06040517f8b73c3c69bb8fe3d512ecc4cf759cc79239f7b179b0ffacaa9a75d522b39400f81527f000000000000000000000000000000000000000000000000000000000000000060208201527f0000000000000000000000000000000000000000000000000000000000000000604082015246606082015230608082015220614549565b6001600160a01b0361028191166001600160a01b03166001600160a01b03195f516020615faf5f395f51905f525416175f516020615faf5f395f51905f5255565b92915f919082918261463f81611d0f565b9661464d6040519889611b71565b818852601f1961465c83611d0f565b013660208a013760208451940192f13d8061467f575b8084525f602085013e9190565b505f614672565b9061469082613ea4565b61469d6040519182611b71565b82815280926146ae601f1991613ea4565b0190602036910137565b5f198114611a595760010190565b5f19810191908211611a5957565b604051906060820182811067ffffffffffffffff821117611b6c5760405260606040835f81525f60208201520152565b91908110156135915760051b81013590607e19813603018212156101e3570190565b634e487b7160e01b5f52602160045260245ffd5b6003111561474457565b614726565b3560038110156101e35790565b805191908290602001825e015f815290565b6102819061254d61478494936040519586936020850190614756565b90614756565b908160209103126101e35751611ba881610265565b91908110156135915760051b81013590603e19813603018212156101e3570190565b91905f5b8181106147d3575050505050565b6147de81838661479f565b90856147e9836159f9565b6147f2816159ef565b6148245761481e9061480a8460206001960190611e8b565b506040810135908760208201359135615eba565b016147c5565b50906001614831826159f9565b61483a816159ef565b036148cb5780602061484d920190611e8b565b50905f8061486d6040850135850160405191828260208294359101612366565b039060208601355afa61487e612373565b90156148a3578661489e9184608060019601359160608201359135615eba565b61481e565b7f6e47f619000000000000000000000000000000000000000000000000000000005f5260045ffd5b7fe2121978000000000000000000000000000000000000000000000000000000005f5260045ffd5b60015f525f516020615fcf5f395f51905f526020527fbdfeb076d903611fa58576955630d640569633049bcf40ad9c22db9251b54a13546001600160a01b03166149d95760015f525f516020615fcf5f395f51905f5260205261496660405f2060016001600160a01b0319825416179055565b60015f525f516020615f8f5f395f51905f526020526001600160a01b037ffe44ceacbf4f03c6ac19f86826dd265fa9ec25125e8b1766c207f24cd3bc73c754166149d95760015f525f516020615f8f5f395f51905f5260205261028160405f2060016001600160a01b0319825416179055565b7f53c85e66000000000000000000000000000000000000000000000000000000005f5260045ffd5b91908110156135915760051b0190565b90821015613591576102ed9160051b810190611e8b565b9150614a4a908035810191602083019235916020810135019060208201913590565b929391808403614b29575f5b818110614a6557505050505050565b80614a736001928489614a01565b35828103614a975750614a91614a8a828887614a11565b908761528c565b01614a56565b60028103614aba5750614ab5614aae828887614a11565b908761518c565b614a91565b60038103614ad85750614ab5614ad1828887614a11565b9087614ea8565b60048103614af65750614ab5614aef828887614a11565b9087614d3b565b856002600719830110614b0b575b5050614a91565b614b2291614b1a848a89614a11565b929091614b51565b5f85614b04565b7fb4fa3fb3000000000000000000000000000000000000000000000000000000005f5260045ffd5b9291906001600160a01b03614b7a6001600160a01b035f516020615faf5f395f51905f52541690565b1680614b8a575061028193614c67565b916040939193519363d68f602560e01b85525f8580614bae363433600485016120e4565b038183885af19485156104ee575f95614c0a575b50614bce939495614c67565b803b156101e357614bf95f92918392604051948580948193630b9dfbed60e11b83526004830161210a565b03925af180156104ee576130065750565b614bce949550614c23903d805f833e6109c28183611b71565b9493614bc2565b15614c325750565b6001600160a01b03907fc689cd97000000000000000000000000000000000000000000000000000000005f521660045260245ffd5b60405163ecd0596160e01b8152600481018290526001600160a01b038316949290602081602481895afa9081156104ee575f91614d1c575b5015614cf45781614cc5614cb5614cca94614216565b6001600160a01b03811615614c2a565b61564b565b823b156101e357614bf9925f92836040518096819582946306d61fe760e41b845260048401613456565b7fe27c1dd8000000000000000000000000000000000000000000000000000000005f5260045ffd5b614d35915060203d602011612022576120148183611b71565b5f614c9f565b91906001600160a01b03614d636001600160a01b035f516020615faf5f395f51905f52541690565b1680614d73575061028192614e12565b90916040519263d68f602560e01b84525f8480614d95363433600485016120e4565b038183875af19384156104ee575f94614db5575b50614bce929394614e12565b614bce939450614dce903d805f833e6109c28183611b71565b9392614da9565b15614ddd5750565b6001600160a01b03907f741cbe03000000000000000000000000000000000000000000000000000000005f521660045260245ffd5b60405163ecd0596160e01b81526004808201526001600160a01b038216939190602081602481885afa9081156104ee575f91614e89575b5015614cf457614cca90614e84614e746001600160a01b035f516020615faf5f395f51905f52541690565b6001600160a01b03811615614dd5565b6145ed565b614ea2915060203d602011612022576120148183611b71565b5f614e49565b91906001600160a01b03614ed06001600160a01b035f516020615faf5f395f51905f52541690565b1680614ee0575061028192614fed565b90916040519263d68f602560e01b84525f8480614f02363433600485016120e4565b038183875af19384156104ee575f94614f22575b50614bce929394614fed565b614bce939450614f3b903d805f833e6109c28183611b71565b9392614f16565b90600410156135915760040190565b15614f5857565b7f867a1dcf000000000000000000000000000000000000000000000000000000005f5260045ffd5b15614f8757565b7fc001660b000000000000000000000000000000000000000000000000000000005f5260045ffd5b15614fb75750565b6001600160e01b0319907fa56a04dd000000000000000000000000000000000000000000000000000000005f521660045260245ffd5b90916001600160a01b0382169160405163ecd0596160e01b81526020818061501d60048201906003602083019252565b0381875afa9081156104ee575f9161516d575b5015614cf4576124c58461060c6150a261052186806150806150736150658361505f6124bf6151119e8c611ab4565b99614f42565b356001600160f81b03191690565b6001600160f81b03191690565b9a6001600160f81b03198c16158015615156575b61509d90614f51565b611adf565b966150d16001600160e01b031984166306d61fe760e41b8114908115615145575b811561513c575b5015614f80565b6150e6836150e161058582615a06565b614faf565b6151006150f1611d00565b6001600160a01b039096168652565b6001600160f81b0319166020850152565b803b156101e357614bf95f929183926040519485809481936306d61fe760e41b83526004830161210a565b9050155f6150ca565b638a91b0e360e01b811491506150c3565b50607f60f91b6001600160f81b03198d1614615094565b615186915060203d602011612022576120148183611b71565b5f615030565b91906001600160a01b036151b46001600160a01b035f516020615faf5f395f51905f52541690565b16806151c4575061028192615226565b90916040519263d68f602560e01b84525f84806151e6363433600485016120e4565b038183875af19384156104ee575f94615206575b50614bce929394615226565b614bce93945061521f903d805f833e6109c28183611b71565b93926151fa565b60405163ecd0596160e01b8152600260048201526001600160a01b038216939190602081602481885afa9081156104ee575f9161526d575b5015614cf457614cca90615a50565b615286915060203d602011612022576120148183611b71565b5f61525e565b91906001600160a01b036152b46001600160a01b035f516020615faf5f395f51905f52541690565b16806152c4575061028192615326565b90916040519263d68f602560e01b84525f84806152e6363433600485016120e4565b038183875af19384156104ee575f94615306575b50614bce929394615326565b614bce93945061531f903d805f833e6109c28183611b71565b93926152fa565b60405163ecd0596160e01b8152600160048201526001600160a01b038216939190602081602481885afa9081156104ee575f916153c5575b5015614cf4576001600160a01b037f000000000000000000000000000000000000000000000000000000000000000016841461539d57614cca90615b74565b7fabc3af79000000000000000000000000000000000000000000000000000000005f5260045ffd5b6153de915060203d602011612022576120148183611b71565b5f61535e565b91816014116101e357823560601c92601401916013190190565b5f9192806040519485378338925af4913d82523d5f602084013e60203d830101604052565b5f919392806040519586378438925af41561544d573d82523d5f602084013e60203d830101604052565b503d5f823e3d90fd5b909181359182810193601f199101016020840193803593828560051b8301119060401c176154c95783615487575050565b835b5f190160208160051b8301013580830160608101908135809101918680602080860135809601011191111792171760401c176154c9578061548957505050565b63ba597e7e5f526004601cfd5b9190916154e283613ef6565b925f5b8181106154f157505050565b806154ff600192848661356f565b80359061550b82610265565b61552a602082013560408301936155228585611e8b565b9290916155ae565b615534858b613f4c565b5215615543575b5050016154e5565b7fb5282692b8c578af7fb880895d599035496b5e64d1f14bf428a1ed3bc406f6629161556e91611e8b565b9061557c6126a4858b613f4c565b0390a15f8061553b565b90806014116101e357813560601c92603482106101e357601483013592603401916033190190565b905f928491604051958692833738935af1913d82523d5f602084013e60203d830101604052565b90925f92819594604051968792833738935af11561544d573d82523d5f602084013e60203d830101604052565b8380935f93604051958692833738935af1156108985701604052565b60405190602036830101604052816014360181525f602036920137604051601481016040523360601b9052565b600881036156bb57506001600160a01b0361028191166001600160a01b03166001600160a01b03197f0bb70095b32b9671358306b0339b4c06e7cbd8cb82505941fba30d1eb5b82f065416177f0bb70095b32b9671358306b0339b4c06e7cbd8cb82505941fba30d1eb5b82f0655565b6009146156c55750565b6001600160a01b0361028191166001600160a01b03166001600160a01b03197f0bb70095b32b9671358306b0339b4c06e7cbd8cb82505941fba30d1eb5b82f055416177f0bb70095b32b9671358306b0339b4c06e7cbd8cb82505941fba30d1eb5b82f0555565b1561573357565b6064604051635107885760e11b815260206004820152601860248201527f496e76616c696420706172616d44617461206c656e67746800000000000000006044820152fd5b6060906020810161578881614749565b6157918161473a565b6157d55750611ba891508060406105219201906157d06157b18383611e8b565b6157cb6157c16060860186613596565b9390923691611d2b565b615d5e565b611e8b565b60016157e082614749565b6157e98161473a565b03615853575090505f806158006040840184611e8b565b506040518061581a81602085810135860180359101612366565b0391355afa90615828612373565b91156158465761583f816060611ba8930190613596565b9083615d5e565b636533cc8d5f526004601cfd5b61585e600291614749565b6158678161473a565b0361597b57602861588661587e6040840184611e8b565b90921461572c565b6014810135831c9035831c806158f35750906158df61335e936158d9611ba89431935b604051926158d1846158c388602083019190602083019252565b03601f198101865285611b71565b810190613596565b91615d5e565b604051928391602083019190602083019252565b6040517f70a082310000000000000000000000000000000000000000000000000000000081526001600160a01b03929092166004830152909190602090839060249082905afa80156104ee5761335e936158d96158df92611ba8955f9161595c575b50936158a9565b615975915060203d6020116104e7576104d98183611b71565b5f615955565b604051635107885760e11b815260206004820152601a60248201527f496e76616c696420706172616d206665746368657220747970650000000000006044820152606490fd5b9291905f91604051943892602083519301915af11561544d573d82523d5f602084013e60203d830101604052565b6002111561474457565b3560028110156101e35790565b615a496001600160a01b03916001600160e01b0319165f527f0bb70095b32b9671358306b0339b4c06e7cbd8cb82505941fba30d1eb5b82f0260205260405f2090565b5416151590565b6001600160a01b03811680158015615b6a575b6143d0575f9081525f516020615fcf5f395f51905f5260205260409020546001600160a01b0316615b365760015f525f516020615fcf5f395f51905f5260205261028190615afb615ad37fbdfeb076d903611fa58576955630d640569633049bcf40ad9c22db9251b54a13610dbb565b613af7835f516020615fcf5f395f51905f52906001600160a01b03165f5260205260405f2090565b60015f525f516020615fcf5f395f51905f526020527fbdfeb076d903611fa58576955630d640569633049bcf40ad9c22db9251b54a13613af7565b7f40d3d1a4000000000000000000000000000000000000000000000000000000005f526001600160a01b031660045260245ffd5b5060018114615a63565b6001600160a01b03811680158015615c5a575b6143d0575f9081525f516020615f8f5f395f51905f5260205260409020546001600160a01b0316615b365760015f525f516020615f8f5f395f51905f5260205261028190615c1f615bf77ffe44ceacbf4f03c6ac19f86826dd265fa9ec25125e8b1766c207f24cd3bc73c7610dbb565b613af7835f516020615f8f5f395f51905f52906001600160a01b03165f5260205260405f2090565b60015f525f516020615f8f5f395f51905f526020527ffe44ceacbf4f03c6ac19f86826dd265fa9ec25125e8b1766c207f24cd3bc73c7613af7565b5060018114615b87565b6040813603126101e35760405190615c7b82611b50565b803560048110156101e357825260208101359067ffffffffffffffff82116101e357615ca991369101611d61565b602082015290565b6004111561474457565b91908260409103126101e3576020825192015190565b15615cd857565b630a31844b60e41b5f52600360045260245ffd5b15615cf357565b630a31844b60e41b5f52600260045260245ffd5b15615d0e57565b630a31844b60e41b5f52600160045260245ffd5b15615d2957565b630a31844b60e41b5f525f60045260245ffd5b602081519101519060208110615d50575090565b5f199060200360031b1b1690565b9180615d6957505050565b5f5b818110615d785750505050565b615d8b615d8682848661479f565b615c64565b9060208160051b86010151918051615da281615cb1565b615dab81615cb1565b615dce57600192615dc26020615dc8930151615d3c565b14615d22565b01615d6b565b60018151615ddb81615cb1565b615de481615cb1565b03615e0857600192615dfc6020615e03930151615d3c565b1115615d07565b615dc8565b60028151615e1581615cb1565b615e1e81615cb1565b03615e3d57600192615e366020615e03930151615d3c565b1015615cec565b60038151615e4a81615cb1565b615e5381615cb1565b03615e9257600192615e756020615e0393015160208082518301019101615cbb565b908210159182615e87575b5050615cd1565b111590505f80615e80565b7f2c50c45e000000000000000000000000000000000000000000000000000000005f5260045ffd5b929193905f5b848110615ecf57505050505050565b60208160051b83010151906001600160a01b038716916040516020810190615f078161335e868b869091604092825260208201520190565b519020833b156101e3576040517fa39e0787000000000000000000000000000000000000000000000000000000008152600481019190915260248101919091526001600160a01b0385166044820152915f908390606490829084905af19182156104ee57600192615f7a575b5001615ec0565b806109a35f615f8893611b71565b5f615f7356fe0bb70095b32b9671358306b0339b4c06e7cbd8cb82505941fba30d1eb5b82f000bb70095b32b9671358306b0339b4c06e7cbd8cb82505941fba30d1eb5b82f030bb70095b32b9671358306b0339b4c06e7cbd8cb82505941fba30d1eb5b82f01a164736f6c634300081b000a","linkReferences":{}},"methodIdentifiers":{"accountId()":"9cfd7cff","addDeposit()":"4a58db19","eip712Domain()":"84b0196e","emergencyUninstallHook((address,uint256,bytes,uint256),bytes)":"5bfeadbb","entryPoint()":"b0d691fe","execute(bytes32,bytes)":"e9ae5c53","executeComposable((bytes4,(uint8,uint8,bytes,(uint8,bytes)[])[],(uint8,bytes)[])[])":"7eba07b8","executeFromExecutor(bytes32,bytes)":"d691c964","executeUserOp((address,uint256,bytes,bytes,bytes32,uint256,bytes32,bytes,bytes),bytes32)":"8dd7712f","getActiveHook()":"0a664dba","getDefaultValidator()":"0b3dc354","getDeposit()":"c399ec88","getExecutorsPaginated(address,uint256)":"ea5f61d0","getFallbackHandlerBySelector(bytes4)":"481ddd23","getImplementation()":"aaf10f42","getValidatorsPaginated(address,uint256)":"5faac46b","initializeAccount(bytes)":"4b6a1419","installModule(uint256,address,bytes)":"9517e29f","isInitialized()":"392e53cd","isModuleInstalled(uint256,address,bytes)":"112d3a7d","isValidSignature(bytes32,bytes)":"1626ba7e","proxiableUUID()":"52d1902d","supportsExecutionMode(bytes32)":"d03c7914","supportsModule(uint256)":"f2dc691d","uninstallModule(uint256,address,bytes)":"a71763a8","upgradeToAndCall(address,bytes)":"4f1ef286","validateUserOp((address,uint256,bytes,bytes,bytes32,uint256,bytes32,bytes,bytes),bytes32,uint256)":"19822f7c","withdrawDepositTo(address,uint256)":"4d44560d"},"id":32}