{"abi":[{"type":"constructor","inputs":[{"name":"anEntryPoint","type":"address","internalType":"address"},{"name":"defaultValidator","type":"address","internalType":"address"},{"name":"initData","type":"bytes","internalType":"bytes"}],"stateMutability":"nonpayable"},{"type":"fallback","stateMutability":"payable"},{"type":"receive","stateMutability":"payable"},{"type":"function","name":"accountId","inputs":[],"outputs":[{"name":"","type":"string","internalType":"string"}],"stateMutability":"pure"},{"type":"function","name":"addDeposit","inputs":[],"outputs":[],"stateMutability":"payable"},{"type":"function","name":"checkERC7739Support","inputs":[{"name":"hash","type":"bytes32","internalType":"bytes32"},{"name":"signature","type":"bytes","internalType":"bytes"}],"outputs":[{"name":"","type":"bytes4","internalType":"bytes4"}],"stateMutability":"view"},{"type":"function","name":"eip712Domain","inputs":[],"outputs":[{"name":"fields","type":"bytes1","internalType":"bytes1"},{"name":"name","type":"string","internalType":"string"},{"name":"version","type":"string","internalType":"string"},{"name":"chainId","type":"uint256","internalType":"uint256"},{"name":"verifyingContract","type":"address","internalType":"address"},{"name":"salt","type":"bytes32","internalType":"bytes32"},{"name":"extensions","type":"uint256[]","internalType":"uint256[]"}],"stateMutability":"view"},{"type":"function","name":"emergencyUninstallHook","inputs":[{"name":"data","type":"tuple","internalType":"struct EmergencyUninstall","components":[{"name":"hook","type":"address","internalType":"address"},{"name":"hookType","type":"uint256","internalType":"uint256"},{"name":"deInitData","type":"bytes","internalType":"bytes"},{"name":"nonce","type":"uint256","internalType":"uint256"}]},{"name":"signature","type":"bytes","internalType":"bytes"}],"outputs":[],"stateMutability":"payable"},{"type":"function","name":"entryPoint","inputs":[],"outputs":[{"name":"","type":"address","internalType":"address"}],"stateMutability":"view"},{"type":"function","name":"execute","inputs":[{"name":"mode","type":"bytes32","internalType":"ExecutionMode"},{"name":"executionCalldata","type":"bytes","internalType":"bytes"}],"outputs":[],"stateMutability":"payable"},{"type":"function","name":"executeComposable","inputs":[{"name":"executions","type":"tuple[]","internalType":"struct ComposableExecution[]","components":[{"name":"functionSig","type":"bytes4","internalType":"bytes4"},{"name":"inputParams","type":"tuple[]","internalType":"struct InputParam[]","components":[{"name":"paramType","type":"uint8","internalType":"enum InputParamType"},{"name":"fetcherType","type":"uint8","internalType":"enum InputParamFetcherType"},{"name":"paramData","type":"bytes","internalType":"bytes"},{"name":"constraints","type":"tuple[]","internalType":"struct Constraint[]","components":[{"name":"constraintType","type":"uint8","internalType":"enum ConstraintType"},{"name":"referenceData","type":"bytes","internalType":"bytes"}]}]},{"name":"outputParams","type":"tuple[]","internalType":"struct OutputParam[]","components":[{"name":"fetcherType","type":"uint8","internalType":"enum OutputParamFetcherType"},{"name":"paramData","type":"bytes","internalType":"bytes"}]}]}],"outputs":[],"stateMutability":"payable"},{"type":"function","name":"executeFromExecutor","inputs":[{"name":"mode","type":"bytes32","internalType":"ExecutionMode"},{"name":"executionCalldata","type":"bytes","internalType":"bytes"}],"outputs":[{"name":"returnData","type":"bytes[]","internalType":"bytes[]"}],"stateMutability":"payable"},{"type":"function","name":"executeUserOp","inputs":[{"name":"userOp","type":"tuple","internalType":"struct PackedUserOperation","components":[{"name":"sender","type":"address","internalType":"address"},{"name":"nonce","type":"uint256","internalType":"uint256"},{"name":"initCode","type":"bytes","internalType":"bytes"},{"name":"callData","type":"bytes","internalType":"bytes"},{"name":"accountGasLimits","type":"bytes32","internalType":"bytes32"},{"name":"preVerificationGas","type":"uint256","internalType":"uint256"},{"name":"gasFees","type":"bytes32","internalType":"bytes32"},{"name":"paymasterAndData","type":"bytes","internalType":"bytes"},{"name":"signature","type":"bytes","internalType":"bytes"}]},{"name":"","type":"bytes32","internalType":"bytes32"}],"outputs":[],"stateMutability":"nonpayable"},{"type":"function","name":"getActiveHook","inputs":[],"outputs":[{"name":"hook","type":"address","internalType":"address"}],"stateMutability":"view"},{"type":"function","name":"getDefaultValidator","inputs":[],"outputs":[{"name":"","type":"address","internalType":"address"}],"stateMutability":"view"},{"type":"function","name":"getDeposit","inputs":[],"outputs":[{"name":"result","type":"uint256","internalType":"uint256"}],"stateMutability":"view"},{"type":"function","name":"getExecutorsPaginated","inputs":[{"name":"cursor","type":"address","internalType":"address"},{"name":"size","type":"uint256","internalType":"uint256"}],"outputs":[{"name":"array","type":"address[]","internalType":"address[]"},{"name":"next","type":"address","internalType":"address"}],"stateMutability":"view"},{"type":"function","name":"getFallbackHandlerBySelector","inputs":[{"name":"selector","type":"bytes4","internalType":"bytes4"}],"outputs":[{"name":"","type":"bytes1","internalType":"CallType"},{"name":"","type":"address","internalType":"address"}],"stateMutability":"view"},{"type":"function","name":"getImplementation","inputs":[],"outputs":[{"name":"implementation","type":"address","internalType":"address"}],"stateMutability":"view"},{"type":"function","name":"getValidatorsPaginated","inputs":[{"name":"cursor","type":"address","internalType":"address"},{"name":"size","type":"uint256","internalType":"uint256"}],"outputs":[{"name":"array","type":"address[]","internalType":"address[]"},{"name":"next","type":"address","internalType":"address"}],"stateMutability":"view"},{"type":"function","name":"initializeAccount","inputs":[{"name":"initData","type":"bytes","internalType":"bytes"}],"outputs":[],"stateMutability":"payable"},{"type":"function","name":"installModule","inputs":[{"name":"moduleTypeId","type":"uint256","internalType":"uint256"},{"name":"module","type":"address","internalType":"address"},{"name":"initData","type":"bytes","internalType":"bytes"}],"outputs":[],"stateMutability":"payable"},{"type":"function","name":"isInitialized","inputs":[],"outputs":[{"name":"","type":"bool","internalType":"bool"}],"stateMutability":"view"},{"type":"function","name":"isModuleInstalled","inputs":[{"name":"moduleTypeId","type":"uint256","internalType":"uint256"},{"name":"module","type":"address","internalType":"address"},{"name":"additionalContext","type":"bytes","internalType":"bytes"}],"outputs":[{"name":"","type":"bool","internalType":"bool"}],"stateMutability":"view"},{"type":"function","name":"isValidSignature","inputs":[{"name":"hash","type":"bytes32","internalType":"bytes32"},{"name":"signature","type":"bytes","internalType":"bytes"}],"outputs":[{"name":"","type":"bytes4","internalType":"bytes4"}],"stateMutability":"view"},{"type":"function","name":"nonce","inputs":[{"name":"key","type":"uint192","internalType":"uint192"}],"outputs":[{"name":"","type":"uint256","internalType":"uint256"}],"stateMutability":"view"},{"type":"function","name":"proxiableUUID","inputs":[],"outputs":[{"name":"","type":"bytes32","internalType":"bytes32"}],"stateMutability":"view"},{"type":"function","name":"supportsExecutionMode","inputs":[{"name":"mode","type":"bytes32","internalType":"ExecutionMode"}],"outputs":[{"name":"isSupported","type":"bool","internalType":"bool"}],"stateMutability":"view"},{"type":"function","name":"supportsModule","inputs":[{"name":"moduleTypeId","type":"uint256","internalType":"uint256"}],"outputs":[{"name":"","type":"bool","internalType":"bool"}],"stateMutability":"view"},{"type":"function","name":"uninstallModule","inputs":[{"name":"moduleTypeId","type":"uint256","internalType":"uint256"},{"name":"module","type":"address","internalType":"address"},{"name":"deInitData","type":"bytes","internalType":"bytes"}],"outputs":[],"stateMutability":"payable"},{"type":"function","name":"upgradeToAndCall","inputs":[{"name":"newImplementation","type":"address","internalType":"address"},{"name":"data","type":"bytes","internalType":"bytes"}],"outputs":[],"stateMutability":"payable"},{"type":"function","name":"validateUserOp","inputs":[{"name":"op","type":"tuple","internalType":"struct PackedUserOperation","components":[{"name":"sender","type":"address","internalType":"address"},{"name":"nonce","type":"uint256","internalType":"uint256"},{"name":"initCode","type":"bytes","internalType":"bytes"},{"name":"callData","type":"bytes","internalType":"bytes"},{"name":"accountGasLimits","type":"bytes32","internalType":"bytes32"},{"name":"preVerificationGas","type":"uint256","internalType":"uint256"},{"name":"gasFees","type":"bytes32","internalType":"bytes32"},{"name":"paymasterAndData","type":"bytes","internalType":"bytes"},{"name":"signature","type":"bytes","internalType":"bytes"}]},{"name":"userOpHash","type":"bytes32","internalType":"bytes32"},{"name":"missingAccountFunds","type":"uint256","internalType":"uint256"}],"outputs":[{"name":"validationData","type":"uint256","internalType":"uint256"}],"stateMutability":"nonpayable"},{"type":"function","name":"withdrawDepositTo","inputs":[{"name":"to","type":"address","internalType":"address"},{"name":"amount","type":"uint256","internalType":"uint256"}],"outputs":[],"stateMutability":"payable"},{"type":"event","name":"EmergencyHookUninstallRequest","inputs":[{"name":"hook","type":"address","indexed":false,"internalType":"address"},{"name":"timestamp","type":"uint256","indexed":false,"internalType":"uint256"}],"anonymous":false},{"type":"event","name":"EmergencyHookUninstallRequestReset","inputs":[{"name":"hook","type":"address","indexed":false,"internalType":"address"},{"name":"timestamp","type":"uint256","indexed":false,"internalType":"uint256"}],"anonymous":false},{"type":"event","name":"ModuleInstalled","inputs":[{"name":"moduleTypeId","type":"uint256","indexed":false,"internalType":"uint256"},{"name":"module","type":"address","indexed":false,"internalType":"address"}],"anonymous":false},{"type":"event","name":"ModuleUninstalled","inputs":[{"name":"moduleTypeId","type":"uint256","indexed":false,"internalType":"uint256"},{"name":"module","type":"address","indexed":false,"internalType":"address"}],"anonymous":false},{"type":"event","name":"PREPInitialized","inputs":[{"name":"r","type":"bytes32","indexed":false,"internalType":"bytes32"}],"anonymous":false},{"type":"event","name":"TryDelegateCallUnsuccessful","inputs":[{"name":"callData","type":"bytes","indexed":false,"internalType":"bytes"},{"name":"result","type":"bytes","indexed":false,"internalType":"bytes"}],"anonymous":false},{"type":"event","name":"TryExecuteUnsuccessful","inputs":[{"name":"callData","type":"bytes","indexed":false,"internalType":"bytes"},{"name":"result","type":"bytes","indexed":false,"internalType":"bytes"}],"anonymous":false},{"type":"event","name":"Upgraded","inputs":[{"name":"implementation","type":"address","indexed":true,"internalType":"address"}],"anonymous":false},{"type":"error","name":"AccountAccessUnauthorized","inputs":[]},{"type":"error","name":"AccountAlreadyInitialized","inputs":[]},{"type":"error","name":"AccountNotInitialized","inputs":[]},{"type":"error","name":"CanNotRemoveLastValidator","inputs":[]},{"type":"error","name":"ComposableExecutionFailed","inputs":[]},{"type":"error","name":"ConstraintNotMet","inputs":[{"name":"constraintType","type":"uint8","internalType":"enum ConstraintType"}]},{"type":"error","name":"DefaultValidatorAlreadyInstalled","inputs":[]},{"type":"error","name":"ERC7702AccountCannotBeUpgradedThisWay","inputs":[]},{"type":"error","name":"EmergencyTimeLockNotExpired","inputs":[]},{"type":"error","name":"EmergencyUninstallSigError","inputs":[]},{"type":"error","name":"EnableModeSigError","inputs":[]},{"type":"error","name":"EntryPointCanNotBeZero","inputs":[]},{"type":"error","name":"ExecutionFailed","inputs":[]},{"type":"error","name":"FallbackAlreadyInstalledForSelector","inputs":[{"name":"selector","type":"bytes4","internalType":"bytes4"}]},{"type":"error","name":"FallbackCallTypeInvalid","inputs":[]},{"type":"error","name":"FallbackHandlerUninstallFailed","inputs":[]},{"type":"error","name":"FallbackNotInstalledForSelector","inputs":[{"name":"selector","type":"bytes4","internalType":"bytes4"}]},{"type":"error","name":"FallbackSelectorForbidden","inputs":[]},{"type":"error","name":"HookAlreadyInstalled","inputs":[{"name":"currentHook","type":"address","internalType":"address"}]},{"type":"error","name":"HookPostCheckFailed","inputs":[]},{"type":"error","name":"ImplementationIsNotAContract","inputs":[]},{"type":"error","name":"InnerCallFailed","inputs":[]},{"type":"error","name":"InvalidConstraintType","inputs":[]},{"type":"error","name":"InvalidImplementationAddress","inputs":[]},{"type":"error","name":"InvalidInitData","inputs":[]},{"type":"error","name":"InvalidInput","inputs":[]},{"type":"error","name":"InvalidModule","inputs":[{"name":"module","type":"address","internalType":"address"}]},{"type":"error","name":"InvalidModuleTypeId","inputs":[{"name":"moduleTypeId","type":"uint256","internalType":"uint256"}]},{"type":"error","name":"InvalidNonce","inputs":[]},{"type":"error","name":"InvalidOutputParamFetcherType","inputs":[]},{"type":"error","name":"InvalidPREP","inputs":[]},{"type":"error","name":"InvalidParameterEncoding","inputs":[{"name":"message","type":"string","internalType":"string"}]},{"type":"error","name":"InvalidSetOfInputParams","inputs":[{"name":"message","type":"string","internalType":"string"}]},{"type":"error","name":"InvalidSignature","inputs":[]},{"type":"error","name":"LinkedList_AlreadyInitialized","inputs":[]},{"type":"error","name":"LinkedList_EntryAlreadyInList","inputs":[{"name":"entry","type":"address","internalType":"address"}]},{"type":"error","name":"LinkedList_InvalidEntry","inputs":[{"name":"entry","type":"address","internalType":"address"}]},{"type":"error","name":"LinkedList_InvalidPage","inputs":[]},{"type":"error","name":"MismatchModuleTypeId","inputs":[]},{"type":"error","name":"MissingFallbackHandler","inputs":[{"name":"selector","type":"bytes4","internalType":"bytes4"}]},{"type":"error","name":"ModuleAddressCanNotBeZero","inputs":[]},{"type":"error","name":"ModuleAlreadyInstalled","inputs":[{"name":"moduleTypeId","type":"uint256","internalType":"uint256"},{"name":"module","type":"address","internalType":"address"}]},{"type":"error","name":"ModuleNotInstalled","inputs":[{"name":"moduleTypeId","type":"uint256","internalType":"uint256"},{"name":"module","type":"address","internalType":"address"}]},{"type":"error","name":"NexusInitializationFailed","inputs":[]},{"type":"error","name":"NoValidatorInstalled","inputs":[]},{"type":"error","name":"Output_StaticCallFailed","inputs":[]},{"type":"error","name":"PrevalidationHookAlreadyInstalled","inputs":[{"name":"currentPreValidationHook","type":"address","internalType":"address"}]},{"type":"error","name":"UnauthorizedCallContext","inputs":[]},{"type":"error","name":"UnauthorizedOperation","inputs":[{"name":"operator","type":"address","internalType":"address"}]},{"type":"error","name":"UnsupportedCallType","inputs":[{"name":"callType","type":"bytes1","internalType":"CallType"}]},{"type":"error","name":"UnsupportedExecType","inputs":[{"name":"execType","type":"bytes1","internalType":"ExecType"}]},{"type":"error","name":"UnsupportedModuleType","inputs":[{"name":"moduleTypeId","type":"uint256","internalType":"uint256"}]},{"type":"error","name":"UpgradeFailed","inputs":[]},{"type":"error","name":"ValidatorNotInstalled","inputs":[{"name":"module","type":"address","internalType":"address"}]}],"bytecode":{"object":"0x610180806040523461031157616738803803809161001d828561037d565b833981019060608183031261031157610035816103a0565b90610042602082016103a0565b604082015190916001600160401b03821161031157019280601f850112156103115783516001600160401b038111610369576040519461008c601f8301601f19166020018761037d565b81865260208601926020838301011161031157815f926020809301855e860101523060a0524660c05260409360a085516100c6878261037d565b600581526020810190644e6578757360d81b82528751916100e7898461037d565b60058352640312e332e360dc1b6020938401529051902060e08190527f6a08c3e203132c561752255a4d52ffae85bb9c5d33cb3291520dea1b8435638961010081905288517f8b73c3c69bb8fe3d512ecc4cf759cc79239f7b179b0ffacaa9a75d522b39400f815280840192909252818901524660608201523060808201529190912061012052855163ecd0596160e01b8152600160048201526001600160a01b038516939181602481875afa90811561035f575f91610324575b501561031557823b15610311576044925f928388519586809581946306d61fe760e41b8352602060048401525180918160248501528484015e8181018301849052601f01601f191681010301925af18015610307576102f7575b506101405230610160526001600160a01b038116156102e8576080525161638390816103b582396080518181816103f2015281816106b80152818161085201528181610f9a0152818161117501528181611243015281816114e6015281816116380152818161169a0152818161199a01528181611a130152612371015260a051816158c9015260c051816158ec015260e0518161595c01526101005181615982015261012051816158a8015261014051818181610261015281816121590152818161274401528181612dcc0152818161409f01526155c9015261016051818181610a0d01526123400152f35b6307e355bf60e31b5f5260045ffd5b5f6103019161037d565b5f6101fc565b84513d5f823e3d90fd5b5f80fd5b631c4f83bb60e31b5f5260045ffd5b90506020813d602011610357575b8161033f6020938361037d565b8101031261031157518015158103610311575f6101a2565b3d9150610332565b87513d5f823e3d90fd5b634e487b7160e01b5f52604160045260245ffd5b601f909101601f19168101906001600160401b0382119082101761036957604052565b51906001600160a01b03821682036103115756fe60806040526004361015610015575b36612a7257005b5f3560e01c80630a664dba146101f45780630b3dc354146101ef578063112d3a7d146101ea5780631626ba7e146101e557806319822f7c146101e0578063392e53cd146101db578063481ddd23146101d65780634a58db19146101d15780634b6a1419146101cc5780634d44560d146101c75780634f1ef286146101c257806352d1902d146101bd5780635bfeadbb146101b85780635faac46b146101b35780637eba07b8146101ae57806384b0196e146101a95780638dd7712f146101a45780639517e29f1461019f5780639cfd7cff1461019a578063a71763a814610195578063aaf10f4214610190578063b0d691fe1461018b578063b46b61a914610186578063c399ec8814610181578063d03c79141461017c578063d691c96414610177578063d86f2b3c14610172578063e9ae5c531461016d578063ea5f61d0146101685763f2dc691d0361000e57611bce565b611ad2565b6119fc565b611922565b6117db565b6116cb565b611675565b61165c565b611619565b6115bb565b6114d2565b611473565b61122f565b611137565b61107d565b610f3c565b610d7d565b610a68565b6109fa565b6108d2565b610837565b6106e0565b6106a6565b610611565b6105e5565b6103a1565b610367565b610311565b610242565b610207565b5f91031261020357565b5f80fd5b34610203575f3660031901126102035760206001600160a01b035f5160206163375f395f51905f5254166001600160a01b0360405191168152f35b34610203575f3660031901126102035760206040516001600160a01b037f0000000000000000000000000000000000000000000000000000000000000000168152f35b6001600160a01b0381160361020357565b35906102a182610285565b565b9181601f840112156102035782359167ffffffffffffffff8311610203576020838186019501011161020357565b606060031982011261020357600435916024356102ed81610285565b916044359067ffffffffffffffff82116102035761030d916004016102a3565b9091565b3461020357602061032d610324366102d1565b92919091612cf1565b6040519015158152f35b90604060031983011261020357600435916024359067ffffffffffffffff82116102035761030d916004016102a3565b3461020357602061038061037a36610337565b91611d7d565b6001600160e01b031960405191168152f35b90816101209103126102035790565b346102035760603660031901126102035760043567ffffffffffffffff8111610203576103d56104a3913690600401610392565b602061045260243561045d60443580956104196001600160a01b037f0000000000000000000000000000000000000000000000000000000000000000163314611e54565b6104576104263683611f1e565b958692888101359061043c8260031a60f81b1590565b1561051c575b5060401c6001600160a01b031690565b612db9565b93613274565b61010084929401525f6001600160a01b036040518098819682957f9700320300000000000000000000000000000000000000000000000000000000845260048401612102565b0393165af1908115610517576104d2925f926104e6575b50806104d6575b506040519081529081906020820190565b0390f35b5f9081803892335af1505f6104c1565b81925061050a9060203d602011610510575b6105028183611d13565b810190612060565b916104ba565b503d6104f8565b611d72565b600382901a60f81b600160f81b0361055e5761054a6105438261010061055194019061202d565b908a61315e565b3691611ecd565b6101008501525b5f610442565b600382901a60f81b7f020000000000000000000000000000000000000000000000000000000000000014610593575b50610558565b6105d46105c86105c26105df936105b76105b26105ae612136565b1590565b611ffe565b61010081019061202d565b90612f33565b93919290923691611ecd565b61010088015261306c565b5f61058d565b34610203575f36600319011261020357602061032d612136565b6001600160e01b031981160361020357565b34610203576020366003190112610203576040602061066c600435610635816105ff565b6001600160e01b0319165f527f0bb70095b32b9671358306b0339b4c06e7cbd8cb82505941fba30d1eb5b82f0260205260405f2090565b82519061067882611cf2565b54906001600160f81b03196001600160a01b0383169283835260581b16928391015282519182526020820152f35b5f366003190112610203575f388180347f00000000000000000000000000000000000000000000000000000000000000005af11561020357005b60203660031901126102035760043567ffffffffffffffff81116102035761070f6107219136906004016102a3565b908082303303610723575b505061306c565b005b9161072f9391936133ad565b1561082657505061081f610812836107568461074e816107e598611c1d565b969093611c2b565b9590946107df6107d36107cd61076d368b8b611ecd565b60208151910120956107836105b26105ae612136565b6107c46105b26105ae6107bd8a5f527f0bb70095b32b9671358306b0339b4c06e7cbd8cb82505941fba30d1eb5b82f0960205260405f2090565b5460ff1690565b30943691611ecd565b856133f8565b6001600160a01b031690565b146121cb565b5f527f0bb70095b32b9671358306b0339b4c06e7cbd8cb82505941fba30d1eb5b82f0960205260405f2090565b805460ff19166001179055565b5f8061071a565b915091506108326133cf565b61081f565b60403660031901126102035760043561084f81610285565b5f7f0000000000000000000000000000000000000000000000000000000000000000602435336001600160a01b0383161480156108c9575b61089090611e54565b604051936014526034526f205c28780000000000000000000000008252604460108338935af1156108c1575f603452005b3d5f823e3d90fd5b50333014610887565b6040366003190112610203576004356108ea81610285565b60243567ffffffffffffffff81116102035761090a9036906004016102a3565b906001600160a01b036109316001600160a01b035f5160206163375f395f51905f52541690565b1680610941575061072192612313565b90916040519263d68f602560e01b84525f848061096336343360048501612286565b038183875af1938415610517575f946109d2575b50610983929394612313565b803b15610203576109ae5f92918392604051948580948193630b9dfbed60e11b8352600483016122d3565b03925af18015610517576109be57005b806109cc5f61072193611d13565b806101f9565b6109839394506109f3903d805f833e6109eb8183611d13565b810190612240565b9392610977565b34610203575f36600319011261020357307f000000000000000000000000000000000000000000000000000000000000000003610a5b5760206040517f360894a13ba1a3210667c828492db98dca3e2076cc3735a920a3ca505d382bbc8152f35b639f03a0265f526004601cfd5b60403660031901126102035760043567ffffffffffffffff8111610203578060040190608060031982360301126102035760243567ffffffffffffffff811161020357610abc610ac39136906004016102a3565b90846134f7565b610adf6024820135926044610ad782612493565b93019061202d565b9290600482148015610d1c575b828115610d11575b610afd9161249d565b610b138383610b0e87858484612cf1565b6124d0565b610b4d836001600160a01b03165f527f0bb70095b32b9671358306b0339b4c06e7cbd8cb82505941fba30d1eb5b82f0460205260405f2090565b5480610bde575050507f2841d18703faaff388732165e48fe431468531b1b1e626b1b7cbcbfc0d79c7409150610bd99042610bb8826001600160a01b03165f527f0bb70095b32b9671358306b0339b4c06e7cbd8cb82505941fba30d1eb5b82f0460205260405f2090565b55604080516001600160a01b03909216825242602083015290918291820190565b0390a1005b610beb6203f48082612522565b4210610c56575050507fcbd44a75f6935b5837022648b6c8487db984701200c5381c7c0f8c2b1d69b9da9150610bd99042610bb8826001600160a01b03165f527f0bb70095b32b9671358306b0339b4c06e7cbd8cb82505941fba30d1eb5b82f0460205260405f2090565b610c5f90612512565b4210610ce9577f341347516a9de374859dfda710fa4828b2d48cb57d4fbe4c1149612b8e02276e93610cce915f610cc6866001600160a01b03165f527f0bb70095b32b9671358306b0339b4c06e7cbd8cb82505941fba30d1eb5b82f0460205260405f2090565b558385613645565b604080519182526001600160a01b03929092166020820152a1005b7f07f2f2d2000000000000000000000000000000000000000000000000000000005f5260045ffd5b600981149150610af4565b5060088214610aec565b90929192604082016040835281518091526020606084019201905f5b818110610d5e575050506001600160a01b036020919416910152565b82516001600160a01b0316845260209384019390920191600101610d42565b3461020357604036600319011261020357600435610d9a81610285565b6024359060016001600160a01b038216141580610f2a575b610f0f578115610ee75790610dc6816148c6565b610dfe610df15f946001600160a01b03165f525f5160206163175f395f51905f5260205260405f2090565b546001600160a01b031690565b6001600160a01b0381168015159081610edb575b5080610ed2575b15610e7357610e67610df182610e44610e6d94610e368988614342565b906001600160a01b03169052565b6001600160a01b03165f525f5160206163175f395f51905f5260205260405f2090565b936148f8565b92610dfe565b908360016001600160a01b038416141580610ec9575b610e9f575b81526104d260405192839283610d26565b9150610ec3610eb6610eb084614906565b83614342565b516001600160a01b031690565b91610e8e565b50801515610e89565b50828410610e19565b6001915014155f610e12565b7ff7250817000000000000000000000000000000000000000000000000000000005f5260045ffd5b637c84ecfb60e01b5f526001600160a01b031660045260245ffd5b50610f376105ae8261421a565b610db2565b60203660031901126102035760043567ffffffffffffffff8111610203573660238201121561020357806004013567ffffffffffffffff8111610203576024820191602436918360051b01011161020357610fc16001600160a01b037f0000000000000000000000000000000000000000000000000000000000000000163314611e54565b6001600160a01b03610fe76001600160a01b035f5160206163375f395f51905f52541690565b1680610ff75750610721916137d2565b906040519263d68f602560e01b84525f848061101836343360048501612286565b038183875af1938415610517575f94611037575b5090610983916137d2565b61098392919450611051903d805f833e6109eb8183611d13565b93909161102c565b805180835260209291819084018484015e5f828201840152601f01601f1916010190565b34610203575f366003190112610203576110d86110e661109b613b7c565b6040929192519384937f0f00000000000000000000000000000000000000000000000000000000000000855260e0602086015260e0850190611059565b908382036040850152611059565b4660608301523060808301525f60a083015281810360c083015260206060519182815201906080905f5b81811061111e575050500390f35b8251845285945060209384019390920191600101611110565b346102035760403660031901126102035760043567ffffffffffffffff811161020357611168903690600401610392565b61119c6001600160a01b037f0000000000000000000000000000000000000000000000000000000000000000163314611e54565b6001600160a01b036111c26001600160a01b035f5160206163375f395f51905f52541690565b16806111d257506107219061256b565b6040519163d68f602560e01b83525f83806111f13633600484016122ac565b038183865af1928315610517575f9361120f575b506109839061256b565b610983919350611228903d805f833e6109eb8183611d13565b9290611205565b611238366102d1565b906001600160a01b037f0000000000000000000000000000000000000000000000000000000000000000163314801561146a575b61127590611e54565b6112806105ae61331d565b61145d575b6001600160a01b0383161561143557600184036112ea577fd21d0b289f126c4b473ea641963e766833c2f13866e4ff480abd787c100ef12393916112c991846154e7565b604080519182526001600160a01b0390921660208201529081908101610bd9565b60028403611324577fd21d0b289f126c4b473ea641963e766833c2f13866e4ff480abd787c100ef123939161131f91846153e7565b6112c9565b60038403611359577fd21d0b289f126c4b473ea641963e766833c2f13866e4ff480abd787c100ef123939161131f9184615103565b6004840361138e577fd21d0b289f126c4b473ea641963e766833c2f13866e4ff480abd787c100ef123939161131f9184614f96565b60088414801561142b575b156113cc57839161131f91847fd21d0b289f126c4b473ea641963e766833c2f13866e4ff480abd787c100ef12396614dac565b836113fe577fd21d0b289f126c4b473ea641963e766833c2f13866e4ff480abd787c100ef123939161131f9184614c76565b7f098312d2000000000000000000000000000000000000000000000000000000005f52600484905260245ffd5b5060098414611399565b7f5316c18d000000000000000000000000000000000000000000000000000000005f5260045ffd5b611465614b41565b611285565b5033301461126c565b34610203575f366003190112610203576104d2604051611494604082611d13565b601481527f6269636f6e6f6d792e6e657875732e312e332e300000000000000000000000006020820152604051918291602083526020830190611059565b6114db366102d1565b916001600160a01b037f000000000000000000000000000000000000000000000000000000000000000016331480156115b2575b61151890611e54565b6001600160a01b0361153e6001600160a01b035f5160206163375f395f51905f52541690565b168061154e5750610721936125e0565b916040939193519363d68f602560e01b85525f858061157236343360048501612286565b038183885af1948515610517575f95611592575b506109839394956125e0565b6109839495506115ab903d805f833e6109eb8183611d13565b9493611586565b5033301461150f565b34610203575f366003190112610203577f360894a13ba1a3210667c828492db98dca3e2076cc3735a920a3ca505d382bbc546001600160a01b03811615611611575b6020906001600160a01b0360405191168152f35b5030546115fd565b34610203575f3660031901126102035760206040516001600160a01b037f0000000000000000000000000000000000000000000000000000000000000000168152f35b3461020357602061038061166f36610337565b916126be565b34610203575f36600319011261020357306020526370a082315f52602080806024601c7f00000000000000000000000000000000000000000000000000000000000000005afa601f3d1116815102604051908152f35b34610203576020366003190112610203576104d26004358060081b6001600160f81b0319821615918215611764575b821561174f575b508161171b575b5060405190151581529081906020820190565b6001600160f81b031981161591508115611737575b505f611708565b6001600160f81b031916600160f81b1490505f611730565b6001600160f81b03199081161491505f611701565b6001600160f81b03198116600160f81b1492506116fa565b602081016020825282518091526040820191602060408360051b8301019401925f915b8383106117ae57505050505090565b90919293946020806117cc600193603f198682030187528951611059565b9701930193019193929061179f565b6117e436610337565b916117ee3361425a565b156118f6576001600160a01b036118196001600160a01b035f5160206163375f395f51905f52541690565b168061183a57509161182e916104d293612790565b6040519182918261177c565b90926040519263d68f602560e01b84525f848061185c36343360048501612286565b038183875af1938415610517575f946118d6575b5061187c929394612790565b90803b15610203576118a85f93918492604051958680948193630b9dfbed60e11b8352600483016122d3565b03925af1918215610517576104d2926118c2575b5061182e565b806109cc5f6118d093611d13565b5f6118bc565b61187c9394506118ef903d805f833e6109eb8183611d13565b9392611870565b7fb927fe5e000000000000000000000000000000000000000000000000000000005f523360045260245ffd5b346102035760203660031901126102035760043577ffffffffffffffffffffffffffffffffffffffffffffffff811680910361020357604051907f35567e1a00000000000000000000000000000000000000000000000000000000825230600483015260248201526020816044816001600160a01b037f0000000000000000000000000000000000000000000000000000000000000000165afa8015610517576104d2915f916119dd57506040519081529081906020820190565b6119f6915060203d602011610510576105028183611d13565b5f6104c1565b611a0536610337565b90611a3a6001600160a01b037f0000000000000000000000000000000000000000000000000000000000000000163314611e54565b6001600160a01b03611a606001600160a01b035f5160206163375f395f51905f52541690565b1680611a705750610721926128e2565b90916040519263d68f602560e01b84525f8480611a9236343360048501612286565b038183875af1938415610517575f94611ab2575b506109839293946128e2565b610983939450611acb903d805f833e6109eb8183611d13565b9392611aa6565b3461020357604036600319011261020357600435611aef81610285565b6024359060016001600160a01b038216141580611bbc575b610f0f578115610ee75790611b1b816148c6565b611b46610df15f946001600160a01b03165f525f5160206163575f395f51905f5260205260405f2090565b6001600160a01b0381168015159081611bb0575b5080611ba7575b15610e7357610e67610df182611b7e611ba194610e368988614342565b6001600160a01b03165f525f5160206163575f395f51905f5260205260405f2090565b92611b46565b50828410611b61565b6001915014155f611b5a565b50611bc96105ae8261425a565b611b07565b3461020357602036600319011261020357602061032d6004356129f5565b634e487b7160e01b5f52601160045260245ffd5b906177398202918083046177391490151715611c1857565b611bec565b906041116102035790604190565b909291928360411161020357831161020357604101916040190190565b906014116102035790601490565b909291928360141161020357831161020357601401916013190190565b906004116102035790600490565b909291928360051161020357831161020357600501916004190190565b356bffffffffffffffffffffffff19811692919060148210611cbe575050565b6bffffffffffffffffffffffff1960149290920360031b82901b16169150565b634e487b7160e01b5f52604160045260245ffd5b6040810190811067ffffffffffffffff821117611d0e57604052565b611cde565b90601f8019910116810190811067ffffffffffffffff821117611d0e57604052565b908160209103126102035751611d4a816105ff565b90565b611d4a93926001600160a01b0360609316825260208201528160408201520190611059565b6040513d5f823e3d90fd5b918015611e36575b90611dbf611de693611db98480611db3610452611dad611da760209a8a611c48565b90611c9e565b60601c90565b95611c56565b91612e7e565b91906001600160a01b03604051809681958294637aa8f17760e11b84523360048501611d4d565b0392165afa5f9181611e05575b50611d4a57506001600160e01b031990565b611e2891925060203d602011611e2f575b611e208183611d13565b810190611d35565b905f611df3565b503d611e16565b611e4461ffff821904611c00565b8303611d855790611d4a926126be565b15611e5b57565b7fac52ccbe000000000000000000000000000000000000000000000000000000005f5260045ffd5b604051906102a161012083611d13565b604051906102a1606083611d13565b604051906102a1604083611d13565b67ffffffffffffffff8111611d0e57601f01601f191660200190565b929192611ed982611eb1565b91611ee76040519384611d13565b829481845281830111610203578281602093845f960137010152565b9080601f8301121561020357816020611d4a93359101611ecd565b9190916101208184031261020357611f34611e83565b92611f3e82610296565b845260208201356020850152604082013567ffffffffffffffff81116102035781611f6a918401611f03565b6040850152606082013567ffffffffffffffff81116102035781611f8f918401611f03565b60608501526080820135608085015260a082013560a085015260c082013560c085015260e082013567ffffffffffffffff81116102035781611fd2918401611f03565b60e085015261010082013567ffffffffffffffff811161020357611ff69201611f03565b610100830152565b1561200557565b7fae4edb1b000000000000000000000000000000000000000000000000000000005f5260045ffd5b903590601e1981360301821215610203570180359067ffffffffffffffff82116102035760200191813603831361020357565b90816020910312610203575190565b80516001600160a01b03168252611d4a91602082015160208201526101006120f06120c06120ae60408601516101206040870152610120860190611059565b60608601518582036060870152611059565b6080850151608085015260a085015160a085015260c085015160c085015260e085015184820360e0860152611059565b92015190610100818403910152611059565b92919061211960209160408652604086019061206f565b930152565b90816020910312610203575180151581036102035790565b60405163d60b347f60e01b81523060048201526020816024816001600160a01b037f0000000000000000000000000000000000000000000000000000000000000000165afa908115610517575f9161219c575b5080156121935790565b50611d4a61331d565b6121be915060203d6020116121c4575b6121b68183611d13565b81019061211e565b5f612189565b503d6121ac565b156121d257565b7f8baa579f000000000000000000000000000000000000000000000000000000005f5260045ffd5b81601f820112156102035780519061221182611eb1565b9261221f6040519485611d13565b8284526020838301011161020357815f9260208093018386015e8301015290565b9060208282031261020357815167ffffffffffffffff811161020357611d4a92016121fa565b908060209392818452848401375f828201840152601f01601f1916010190565b611d4a93926001600160a01b03606093168252602082015281604082015201905f612266565b6060906001600160a01b03611d4a94931681525f602082015281604082015201905f612266565b906020611d4a928181520190611059565b156122eb57565b7fc970156c000000000000000000000000000000000000000000000000000000005f5260045ffd5b9190916001600160a01b0381169061232c8215156122e4565b612338813b15156122e4565b3055612363307f00000000000000000000000000000000000000000000000000000000000000001490565b610a5b576001600160a01b037f0000000000000000000000000000000000000000000000000000000000000000163314801561248a575b6123a390611e54565b6123ab6133ad565b612462573d5f526352d1902d6001527f360894a13ba1a3210667c828492db98dca3e2076cc3735a920a3ca505d382bbc602060016004601d855afa510361245457807fbc7cd75a20ee27fd9adebab32041f755214dbc6bffa90cc0225b39da2e5c2d3b5f80a281817f360894a13ba1a3210667c828492db98dca3e2076cc3735a920a3ca505d382bbc5561243e57505050565b815f926040519485378338925af4156108c15750565b6355299b496001526004601dfd5b7fdc3b8379000000000000000000000000000000000000000000000000000000005f5260045ffd5b5033301461239a565b35611d4a81610285565b156124a55750565b7f41c38b30000000000000000000000000000000000000000000000000000000005f5260045260245ffd5b156124d9575050565b6001600160a01b0392507fbe601672000000000000000000000000000000000000000000000000000000005f526004521660245260445ffd5b90620151808201809211611c1857565b91908201809211611c1857565b908092918237015f815290565b3d15612566573d9061254d82611eb1565b9161255b6040519384611d13565b82523d5f602084013e565b606090565b61257990606081019061202d565b80600411610203576040515f9283929060031982019060040183378101826003198201528160031991030190305af46125b061253c565b50156125b857565b7facfdb444000000000000000000000000000000000000000000000000000000005f5260045ffd5b90917f341347516a9de374859dfda710fa4828b2d48cb57d4fbe4c1149612b8e02276e936126158484610b0e84868484612cf1565b60018303612651576126279184613e65565b61262f613f5f565b604080519182526001600160a01b03909216602082015290819081015b0390a1565b60028303612668576126639184613cf0565b61262f565b6003830361267a576126639184613bf0565b6004831480156126b4575b80156126aa575b612698575b505061262f565b6126a3918385613645565b5f80612691565b506009831461268c565b5060088314612685565b60015f9081525f5160206163175f395f51905f526020527ffe44ceacbf4f03c6ac19f86826dd265fa9ec25125e8b1766c207f24cd3bc73c7546001600160a01b031694939291905b6001600160a01b0386168015159081612784575b501561273c57612730848484612736948a6140fd565b956141d5565b94612706565b6127689495507f00000000000000000000000000000000000000000000000000000000000000006140fd565b6001600160e01b03198116611d4a57506001600160e01b031990565b6001915014155f61271a565b91908260081b926127a9816001600160f81b0319161590565b156127ba575090611d4a9291614443565b6001600160f81b03198116600160f81b036127db575090611d4a929161437c565b6001600160f81b0319808216036128c55750906127f79161563f565b90916128016142b2565b936001600160f81b0319811661283357509161281c9261567e565b61282582614335565b5261282f81614335565b5090565b6001600160f81b03198116600160f81b036128a95750818361285492615659565b61285d85614335565b521561286857505090565b7f5bd4c60b4b38b664d8fb5944eb974e3d85083d79afe5ce934ccabcc913707c10916128a361289685614335565b5160405193849384614356565b0390a190565b6308c3ee0360e11b5f526001600160f81b03191660045260245ffd5b6001600160f81b031990632e5bf3f960e21b5f521660045260245ffd5b91908260081b926128fb816001600160f81b0319161590565b1561290c5750906102a19291614579565b6001600160f81b03198116600160f81b0361292d5750906102a192916144f0565b6001600160f81b0319808216036128c55750906129499161563f565b929091906001600160f81b0319811661297757505f9083604051938437838338925af4156108c15701604052565b9192916001600160f81b03198116600160f81b036129d85750818361299b92615659565b9290156129a757505050565b61264c7f5bd4c60b4b38b664d8fb5944eb974e3d85083d79afe5ce934ccabcc913707c109360405193849384614356565b6001600160f81b0319906308c3ee0360e11b5f521660045260245ffd5b60018114908115612a67575b8115612a5c575b8115612a51575b8115612a46575b8115612a3b575b8115612a32575b50612a2d575f90565b600190565b9050155f612a24565b600981149150612a1d565b600881149150612a16565b600481149150612a0f565b600381149150612a08565b600281149150612a01565b5f356001600160e01b0319811690612abb826001600160e01b0319165f527f0bb70095b32b9671358306b0339b4c06e7cbd8cb82505941fba30d1eb5b82f0260205260405f2090565b54612ada6001600160a01b0382169160581b6001600160f81b03191690565b906001600160a01b038116612b4957505060e01c9063bc197c81821463f23a6e6183141763150b7a02831417612b3f577f08c63e27000000000000000000000000000000000000000000000000000000005f526001600160e01b03191660045260245ffd5b506020526020603cf35b5f5160206163375f395f51905f52546001600160a01b0316801515926060929084612c65575b6001600160f81b03198116607f60f91b03612c1357505f8091612b90615879565b90602082519201905afa92612ba361253c565b935b15612c0b57612bb7575b825160208401f35b803b1561020357612be25f92918392604051948580948193630b9dfbed60e11b8352600483016122d3565b03925af1801561051757612bf7575b80612baf565b806109cc5f612c0593611d13565b81612bf1565b835160208501fd5b6001600160f81b03198116612c4957505f8091612c2e615879565b906020825192019034905af192612c4361253c565b93612ba5565b632e5bf3f960e21b5f526001600160f81b03191660045260245ffd5b925060405163d68f602560e01b81525f8180612c8636343360048501612286565b038183875af1908115610517575f91612ca1575b5092612b6f565b612cb591503d805f833e6109eb8183611d13565b85612c9a565b919091356001600160e01b031981169260048110612cd7575050565b6001600160e01b0319929350829060040360031b1b161690565b92909160018403612d08575050611d4a915061421a565b60028403612d1c575050611d4a915061425a565b60038403612d5157611d4a935060048210612d4957612d4491612d3e91611c73565b90612cbb565b61466f565b50505f61466f565b505090600481145f14612d7f57505f5160206163375f395f51905f52546001600160a01b0391821691161490565b600881148015612daf575b15612da9576001600160a01b03612da1819261460c565b921691161490565b50505f90565b5060098114612d8a565b6001600160a01b03811680612dee5750507f000000000000000000000000000000000000000000000000000000000000000090565b612df78261421a565b15612e00575090565b7f6859e01e000000000000000000000000000000000000000000000000000000005f5260045260245ffd5b91909160408184031261020357805192602082015167ffffffffffffffff811161020357611d4a92016121fa565b611d4a94926001600160a01b0360609316825260208201528160408201520191612266565b7f0bb70095b32b9671358306b0339b4c06e7cbd8cb82505941fba30d1eb5b82f06549293926001600160a01b031680612ebf575090611d4a91933691611ecd565b6040517f7a0468b7000000000000000000000000000000000000000000000000000000008152945f93869384928392612efc923360048601612e59565b03915afa918215610517575f905f93612f1457509190565b905061030d9192503d805f833e612f2b8183611d13565b810190612e2b565b9060f91161305f578035906020810135810190602082019135906040810135019360208501943593612f66368486611ecd565b602081519101205f528060a01c6020526001600160a01b0360405f201690815f526001600160a01b0360205f2091608060205216601f526305d78094600b52601960272090604051915f52601b602052826040526060526020604060805f60015afa505f606052612ff56105ae3d6060185183604052612fed30916001600160a01b031690565b143015151690565b613057575b811561302f579081527f4f058962bce244bca6c9be42f256083afc66f1f63a1f9a04e31a3042311af38d90806020810161264c565b7fe483bbcb000000000000000000000000000000000000000000000000000000005f5260045ffd5b5f9150612ffa565b63aed595955f526004601cfd5b90601811613111575f8160208083940135820180358060405193849301833781018481520391355af461309d61253c565b50156130e9576130ab6133ad565b156130b257565b6130ba612136565b156130c157565b7f7556034e000000000000000000000000000000000000000000000000000000005f5260045ffd5b7f315927c5000000000000000000000000000000000000000000000000000000005f5260045ffd5b7ff9c42c60000000000000000000000000000000000000000000000000000000005f5260045ffd5b6001600160a01b03611d4a959360609383521660208201528160408201520191612266565b92909192823560601c601484013590603485013560e01c91603886019383870196603888013560e01c976038828a603c840193010301998060048c0111610203576131e7936131e2886131d88b948f6004906105ae9901019f6003199103019d806131d2610452611dad611da7848c611c48565b97611c56565b949093898b6146bb565b61472f565b61324c57303b156102035761322b5f9360405195869485947f9517e29f00000000000000000000000000000000000000000000000000000000865260048601613139565b038183305af180156105175761323e5750565b806109cc5f6102a193611d13565b7f46fdc333000000000000000000000000000000000000000000000000000000005f5260045ffd5b92916001600160a01b037f0bb70095b32b9671358306b0339b4c06e7cbd8cb82505941fba30d1eb5b82f05541680155f146132b3575050610100015190565b60405f80948297949751978895869485937fe24f8f930000000000000000000000000000000000000000000000000000000085526132fd600486019160608352606083019061206f565b936020820152015203925af1918215610517575f905f93612f1457509190565b60015f525f5160206163175f395f51905f526020527ffe44ceacbf4f03c6ac19f86826dd265fa9ec25125e8b1766c207f24cd3bc73c7546001600160a01b03161515806133675790565b5060015f525f5160206163575f395f51905f526020527fbdfeb076d903611fa58576955630d640569633049bcf40ad9c22db9251b54a13546001600160a01b0316151590565b5f906017303b146133ba57565b905060035f80303c5f5160e81c62ef01001490565b7f90b772c2cb8a51aa7a8a65fc23543c6d022d5b3f8e2b92eed79fba7eef8293005c1561305f57565b9190916040519280518060401461345d5760411461342257505050505b638baa579f5f526004601cfd5b60209160608201515f1a835260408201516060525b5f5201516040526020600160805f825afa51915f6060526040523d6102a1575050613415565b506020917f7fffffffffffffffffffffffffffffffffffffffffffffffffffffffffffffff6040830151601b8160ff1c01855216606052613437565b156134a057565b7f756688fe000000000000000000000000000000000000000000000000000000005f5260045ffd5b156134cf57565b7fbf6b5843000000000000000000000000000000000000000000000000000000005f5260045ffd5b6020916001600160a01b03916135c46135e5958061351e610452611dad611da78489611c48565b946135bf61081261355261353188612493565b60608c8a013599613545604082018261202d565b92909101359a8b936147b4565b9661359261358d6105ae6107bd845f527f0bb70095b32b9671358306b0339b4c06e7cbd8cb82505941fba30d1eb5b82f0760205260405f2090565b613499565b5f527f0bb70095b32b9671358306b0339b4c06e7cbd8cb82505941fba30d1eb5b82f0760205260405f2090565b611c56565b93909160405196879586948593637aa8f17760e11b85523060048601612e59565b0392165afa8015610517576001600160e01b0319630b135d3f60e11b916102a1935f91613615575b5016146134c8565b61362e915060203d602011611e2f57611e208183611d13565b5f61360d565b916020611d4a938181520191612266565b6136a8939291600481036136ac57505f5160206163375f395f51905f5280546001600160a01b03191690555b6136a35a92613695604051958692638a91b0e360e01b602085015260248401613634565b03601f198101855284611d13565b61486e565b5050565b6008811480801561373c575b6136c4575b5050613671565b1561370157507f0bb70095b32b9671358306b0339b4c06e7cbd8cb82505941fba30d1eb5b82f0680546001600160a01b03191690555b5f806136bd565b6009036136fa577f0bb70095b32b9671358306b0339b4c06e7cbd8cb82505941fba30d1eb5b82f0580546001600160a01b03191690556136fa565b50600982146136b8565b634e487b7160e01b5f52603260045260245ffd5b919081101561377c5760051b81013590605e1981360301821215610203570190565b613746565b903590601e1981360301821215610203570180359067ffffffffffffffff821161020357602001918160051b3603831361020357565b604051906137c6602083611d13565b5f808352366020840137565b91905f5b8181106137e35750509050565b6137ee81838661375a565b6137fb6020820182613781565b908235613807816105ff565b61380f614914565b506040516001600160e01b031990911660208201525f92839161383f81602481015b03601f198101835282611d13565b925f91825b8184106138eb57505050509160019493916138d393613873613864611e93565b6001600160a01b039094168452565b602083015260408201526138916107d382516001600160a01b031690565b156138d9576138bf816138ae6138cb93516001600160a01b031690565b906040602082015191015191615d49565b915b6040810190613781565b309291614a0f565b016137d6565b506138cb6138e56137b7565b916138c1565b6139016138fc8584869a979a614944565b615ae5565b93613915613910898587614944565b614989565b61391e8161497a565b613a4d5750600261393b60206139358a8688614944565b01614989565b6139448161497a565b146139e157600181166139755761396c6107d3600180931795602080825183010191016149d8565b965b0192613844565b604051634d038a6760e11b815260206004820152602660248201527f54415247455420706172616d20747970652063616e206f6e6c7920626520736560448201527f74206f6e636500000000000000000000000000000000000000000000000000006064820152608490fd5b604051635107885760e11b815260206004820152603b60248201527f42414c414e434520666574636865722074797065206973206e6f74207375707060448201527f6f7274656420666f722054415247455420706172616d207479706500000000006064820152608490fd5b96946001613a5f613910888688614944565b613a688161497a565b03613b01575060028116613a9557613a8f6002600192179460208082518301019101612060565b9461396e565b604051634d038a6760e11b815260206004820152602560248201527f56414c554520706172616d20747970652063616e206f6e6c792062652073657460448201527f206f6e63650000000000000000000000000000000000000000000000000000006064820152608490fd5b94956002613b16613910898688999699614944565b613b1f8161497a565b03613b3657600191613b30916149a8565b9561396e565b604051635107885760e11b815260206004820152601260248201527f496e76616c696420706172616d207479706500000000000000000000000000006044820152606490fd5b604051613b8a604082611d13565b600581527f4e65787573000000000000000000000000000000000000000000000000000000602082015290604051613bc3604082611d13565b600581527f312e332e30000000000000000000000000000000000000000000000000000000602082015290565b919091613c7a604051613c0281611cf2565b5f81525f6020820152613c1b610635612d3e8688611c73565b8151815460209093015174ff000000000000000000000000000000000000000060589190911c167fffffffffffffffffffffff0000000000000000000000000000000000000000009093166001600160a01b0390911617919091179055565b5a9082600411610203576136a360046136a895019360031901613695604051958692638a91b0e360e01b60208501526020602485018181520191612266565b919091604081840312610203578035613cd181610285565b92602082013567ffffffffffffffff811161020357611d4a9201611f03565b90613d06906001600160a01b0393810190613cb9565b92166001600160a01b03821680158015613e5b575b613e48576001600160a01b03613d4f835f5160206163575f395f51905f52906001600160a01b03165f5260205260405f2090565b541603613e2c579181613dd06136a894613db5613d90610df1613695975f5160206163575f395f51905f52906001600160a01b03165f5260205260405f2090565b915f5160206163575f395f51905f52906001600160a01b03165f5260205260405f2090565b906001600160a01b03166001600160a01b0319825416179055565b613e0b613dfb825f5160206163575f395f51905f52906001600160a01b03165f5260205260405f2090565b6001600160a01b03198154169055565b6136a35a92604051948591638a91b0e360e01b6020840152602483016122d3565b637c84ecfb60e01b5f526001600160a01b03821660045260245ffd5b50637c84ecfb60e01b5f5260045260245ffd5b5060018114613d1b565b90613e7b906001600160a01b0393810190613cb9565b92166001600160a01b03821680158015613f55575b613e48576001600160a01b03613ec4835f5160206163175f395f51905f52906001600160a01b03165f5260205260405f2090565b541603613e2c579181613f2a6136a894613db5613f05610df1613695975f5160206163175f395f51905f52906001600160a01b03165f5260205260405f2090565b915f5160206163175f395f51905f52906001600160a01b03165f5260205260405f2090565b613e0b613dfb825f5160206163175f395f51905f52906001600160a01b03165f5260205260405f2090565b5060018114613e90565b613f6a6105ae6133ad565b80614083575b613f7657565b60015f525f5160206163175f395f51905f52602052613fb47ffe44ceacbf4f03c6ac19f86826dd265fa9ec25125e8b1766c207f24cd3bc73c7610df1565b6001600160a01b03811680151580614078575b156140675760405163d60b347f60e01b815230600482015290602090829060249082905afa908115610517575f91614049575b5061400d57614008906141d5565b613fb4565b6001600160a01b036001915b161461402157565b7fcc319d84000000000000000000000000000000000000000000000000000000005f5260045ffd5b614061915060203d81116121c4576121b68183611d13565b5f613ffa565b506001600160a01b03600191614019565b506001811415613fc7565b5060405163d60b347f60e01b81523060048201526020816024817f00000000000000000000000000000000000000000000000000000000000000006001600160a01b03165afa908115610517575f916140de575b5015613f70565b6140f7915060203d6020116121c4576121b68183611d13565b5f6140d7565b61412d936001600160a01b0360209496939660405196879586948593637aa8f17760e11b85523360048601612e59565b0392165afa908115610517575f916141b6575b507f77390000000000000000000000000000000000000000000000000000000000007fffff00000000000000000000000000000000000000000000000000000000000082161480614199575b614194575090565b905090565b506001600160e01b031982166001600160e01b031982161161418c565b6141cf915060203d602011611e2f57611e208183611d13565b5f614140565b6001600160a01b03168015614208575f525f5160206163175f395f51905f526020526001600160a01b0360405f20541690565b637c84ecfb60e01b5f5260045260245ffd5b6001600160a01b031680600114159081614232575090565b90505f525f5160206163175f395f51905f526020526001600160a01b0360405f205416151590565b6001600160a01b031680600114159081614272575090565b90505f525f5160206163575f395f51905f526020526001600160a01b0360405f205416151590565b67ffffffffffffffff8111611d0e5760051b60200190565b604080519091906142c38382611d13565b6001815291601f1901825f5b8281106142db57505050565b8060606020809385010152016142cf565b906142f68261429a565b6143036040519182611d13565b8281528092614314601f199161429a565b01905f5b82811061432457505050565b806060602080938501015201614318565b80511561377c5760200190565b805182101561377c5760209160051b010190565b91611d4a939161436e91604085526040850191612266565b916020818403910152611059565b90614386916156b1565b916001600160f81b0319811661440357506143a0826142ec565b915f5b8181106143b05750505090565b806143e76143c1600193858761375a565b80356143cc81610285565b6143df602083013592604081019061202d565b929091615830565b6143f18287614342565b526143fc8186614342565b50016143a3565b9291906001600160f81b03198416600160f81b0361442657611d4a929350615731565b6001600160f81b0319846308c3ee0360e11b5f521660045260245ffd5b90614450919392936157e1565b91909261445b6142b2565b956001600160f81b0319811661448d5750906144779391615830565b61448083614335565b5261448a82614335565b50565b6001600160f81b03198116600160f81b036129d85750836144af928492615809565b6144b886614335565b52156144c2575050565b7fb5282692b8c578af7fb880895d599035496b5e64d1f14bf428a1ed3bc406f6629161264c61289686614335565b906144fa916156b1565b90916001600160f81b0319811661455757505f5b81811061451a57505050565b8061455161452b600193858761375a565b803561453681610285565b614549602083013592604081019061202d565b92909161585d565b0161450e565b92916001600160f81b03198416600160f81b036144265761448a929350615731565b6001600160f81b03199161458c916157e1565b9094909391929116806145a55750906102a1939161585d565b600160f81b81036145fa5750836145bd928492615809565b9290156145c957505050565b61264c7fb5282692b8c578af7fb880895d599035496b5e64d1f14bf428a1ed3bc406f6629360405193849384614356565b6308c3ee0360e11b5f5260045260245ffd5b600803614641576001600160a01b037f0bb70095b32b9671358306b0339b4c06e7cbd8cb82505941fba30d1eb5b82f06541690565b6001600160a01b037f0bb70095b32b9671358306b0339b4c06e7cbd8cb82505941fba30d1eb5b82f05541690565b6001600160a01b036146b381926001600160e01b0319165f527f0bb70095b32b9671358306b0339b4c06e7cbd8cb82505941fba30d1eb5b82f0260205260405f2090565b541691161490565b93926146c991933691611ecd565b6020815191012090604051926001600160a01b0360208501957ff6c866c1cd985ce61f030431e576c0e82887de0643dfa8a2e6efc3463e638ed087521660408501526060840152608083015260a082015260a0815261472960c082611d13565b51902090565b92602092916001600160a01b03614748614766966158a6565b60405196879586948593637aa8f17760e11b85523060048601612e59565b0392165afa5f9181614793575b5061477d57505f90565b6001600160e01b031916630b135d3f60e11b1490565b6147ad91925060203d602011611e2f57611e208183611d13565b905f614773565b92611d4a9491926147c6913691611ecd565b60208151910120604051926001600160a01b0360208501957fd3ddfc12654178cc44d4a7b6b969cfdce7ffe6342326ba37825314cffa0fba9c87521660408501526060840152608083015260a082015260a0815261482560c082611d13565b5190206158a6565b6001600160a01b036102a191166001600160a01b03166001600160a01b03195f5160206163375f395f51905f525416175f5160206163375f395f51905f5255565b92915f919082918261487f81611eb1565b9661488d6040519889611d13565b818852601f1961489c83611eb1565b013660208a013760208451940192f13d806148bf575b8084525f602085013e9190565b505f6148b2565b906148d08261429a565b6148dd6040519182611d13565b82815280926148ee601f199161429a565b0190602036910137565b5f198114611c185760010190565b5f19810191908211611c1857565b604051906060820182811067ffffffffffffffff821117611d0e5760405260606040835f81525f60208201520152565b919081101561377c5760051b81013590607e1981360301821215610203570190565b634e487b7160e01b5f52602160045260245ffd5b6003111561498457565b614966565b3560038110156102035790565b805191908290602001825e015f815290565b6102a1906149ca6149c494936040519586936020850190614996565b90614996565b03601f198101845283611d13565b908160209103126102035751611d4a81610285565b919081101561377c5760051b81013590603e1981360301821215610203570190565b91905f5b818110614a21575050505050565b614a2c8183866149ed565b9085614a3783615d81565b614a4081615d77565b614a7257614a6c90614a58846020600196019061202d565b506040810135908760208201359135616242565b01614a13565b50906001614a7f82615d81565b614a8881615d77565b03614b1957806020614a9b92019061202d565b50905f80614abb604085013585016040519182826020829435910161252f565b039060208601355afa614acc61253c565b9015614af15786614aec9184608060019601359160608201359135616242565b614a6c565b7f6e47f619000000000000000000000000000000000000000000000000000000005f5260045ffd5b7fe2121978000000000000000000000000000000000000000000000000000000005f5260045ffd5b60015f525f5160206163575f395f51905f526020527fbdfeb076d903611fa58576955630d640569633049bcf40ad9c22db9251b54a13546001600160a01b0316614c275760015f525f5160206163575f395f51905f52602052614bb460405f2060016001600160a01b0319825416179055565b60015f525f5160206163175f395f51905f526020526001600160a01b037ffe44ceacbf4f03c6ac19f86826dd265fa9ec25125e8b1766c207f24cd3bc73c75416614c275760015f525f5160206163175f395f51905f526020526102a160405f2060016001600160a01b0319825416179055565b7f53c85e66000000000000000000000000000000000000000000000000000000005f5260045ffd5b919081101561377c5760051b0190565b9082101561377c5761030d9160051b81019061202d565b9150614c98908035810191602083019235916020810135019060208201913590565b929391808403614d84575f5b818110614cb357505050505050565b80614cc16001928489614c4f565b35828103614ce55750614cdf614cd8828887614c5f565b90876154e7565b01614ca4565b60028103614d085750614d03614cfc828887614c5f565b90876153e7565b614cdf565b60038103614d265750614d03614d1f828887614c5f565b9087615103565b60048103614d445750614d03614d3d828887614c5f565b9087614f96565b85600882148015614d7a575b614d5c575b5050614cdf565b614d7391614d6b848a89614c5f565b929091614dac565b5f85614d55565b5060098214614d50565b7fb4fa3fb3000000000000000000000000000000000000000000000000000000005f5260045ffd5b9291906001600160a01b03614dd56001600160a01b035f5160206163375f395f51905f52541690565b1680614de557506102a193614ec2565b916040939193519363d68f602560e01b85525f8580614e0936343360048501612286565b038183885af1948515610517575f95614e65575b50614e29939495614ec2565b803b1561020357614e545f92918392604051948580948193630b9dfbed60e11b8352600483016122d3565b03925af180156105175761323e5750565b614e29949550614e7e903d805f833e6109eb8183611d13565b9493614e1d565b15614e8d5750565b6001600160a01b03907fc689cd97000000000000000000000000000000000000000000000000000000005f521660045260245ffd5b60405163ecd0596160e01b8152600481018290526001600160a01b038316949290602081602481895afa908115610517575f91614f77575b5015614f4f5781614f20614f10614f259461460c565b6001600160a01b03811615614e85565b6159b8565b823b1561020357614e54925f92836040518096819582946306d61fe760e41b845260048401613634565b7fe27c1dd8000000000000000000000000000000000000000000000000000000005f5260045ffd5b614f90915060203d6020116121c4576121b68183611d13565b5f614efa565b91906001600160a01b03614fbe6001600160a01b035f5160206163375f395f51905f52541690565b1680614fce57506102a19261506d565b90916040519263d68f602560e01b84525f8480614ff036343360048501612286565b038183875af1938415610517575f94615010575b50614e2992939461506d565b614e29939450615029903d805f833e6109eb8183611d13565b9392615004565b156150385750565b6001600160a01b03907f741cbe03000000000000000000000000000000000000000000000000000000005f521660045260245ffd5b60405163ecd0596160e01b81526004808201526001600160a01b038216939190602081602481885afa908115610517575f916150e4575b5015614f4f57614f25906150df6150cf6001600160a01b035f5160206163375f395f51905f52541690565b6001600160a01b03811615615030565b61482d565b6150fd915060203d6020116121c4576121b68183611d13565b5f6150a4565b91906001600160a01b0361512b6001600160a01b035f5160206163375f395f51905f52541690565b168061513b57506102a192615248565b90916040519263d68f602560e01b84525f848061515d36343360048501612286565b038183875af1938415610517575f9461517d575b50614e29929394615248565b614e29939450615196903d805f833e6109eb8183611d13565b9392615171565b906004101561377c5760040190565b156151b357565b7f867a1dcf000000000000000000000000000000000000000000000000000000005f5260045ffd5b156151e257565b7fc001660b000000000000000000000000000000000000000000000000000000005f5260045ffd5b156152125750565b6001600160e01b0319907fa56a04dd000000000000000000000000000000000000000000000000000000005f521660045260245ffd5b90916001600160a01b0382169160405163ecd0596160e01b81526020818061527860048201906003602083019252565b0381875afa908115610517575f916153c8575b5015614f4f57613c1b846106356152fd61054a86806152db6152ce6152c0836152ba612d3e61536c9e8c611c73565b9961519d565b356001600160f81b03191690565b6001600160f81b03191690565b9a6001600160f81b03198c161580156153b1575b6152f8906151ac565b611c81565b9661532c6001600160e01b031984166306d61fe760e41b81149081156153a0575b8115615397575b50156151db565b6153418361533c6105ae82615d8e565b61520a565b61535b61534c611ea2565b6001600160a01b039096168652565b6001600160f81b0319166020850152565b803b1561020357614e545f929183926040519485809481936306d61fe760e41b8352600483016122d3565b9050155f615325565b638a91b0e360e01b8114915061531e565b50607f60f91b6001600160f81b03198d16146152ef565b6153e1915060203d6020116121c4576121b68183611d13565b5f61528b565b91906001600160a01b0361540f6001600160a01b035f5160206163375f395f51905f52541690565b168061541f57506102a192615481565b90916040519263d68f602560e01b84525f848061544136343360048501612286565b038183875af1938415610517575f94615461575b50614e29929394615481565b614e2993945061547a903d805f833e6109eb8183611d13565b9392615455565b60405163ecd0596160e01b8152600260048201526001600160a01b038216939190602081602481885afa908115610517575f916154c8575b5015614f4f57614f2590615dd8565b6154e1915060203d6020116121c4576121b68183611d13565b5f6154b9565b91906001600160a01b0361550f6001600160a01b035f5160206163375f395f51905f52541690565b168061551f57506102a192615581565b90916040519263d68f602560e01b84525f848061554136343360048501612286565b038183875af1938415610517575f94615561575b50614e29929394615581565b614e2993945061557a903d805f833e6109eb8183611d13565b9392615555565b60405163ecd0596160e01b8152600160048201526001600160a01b038216939190602081602481885afa908115610517575f91615620575b5015614f4f576001600160a01b037f00000000000000000000000000000000000000000000000000000000000000001684146155f857614f2590615efc565b7fabc3af79000000000000000000000000000000000000000000000000000000005f5260045ffd5b615639915060203d6020116121c4576121b68183611d13565b5f6155b9565b918160141161020357823560601c92601401916013190190565b5f9192806040519485378338925af4913d82523d5f602084013e60203d830101604052565b5f919392806040519586378438925af4156156a8573d82523d5f602084013e60203d830101604052565b503d5f823e3d90fd5b909181359182810193601f199101016020840193803593828560051b8301119060401c1761572457836156e2575050565b835b5f190160208160051b8301013580830160608101908135809101918680602080860135809601011191111792171760401c1761572457806156e457505050565b63ba597e7e5f526004601cfd5b91909161573d836142ec565b925f5b81811061574c57505050565b8061575a600192848661375a565b80359061576682610285565b6157856020820135604083019361577d858561202d565b929091615809565b61578f858b614342565b521561579e575b505001615740565b7fb5282692b8c578af7fb880895d599035496b5e64d1f14bf428a1ed3bc406f662916157c99161202d565b906157d7612896858b614342565b0390a15f80615796565b908060141161020357813560601c926034821061020357601483013592603401916033190190565b905f928491604051958692833738935af1913d82523d5f602084013e60203d830101604052565b90925f92819594604051968792833738935af1156156a8573d82523d5f602084013e60203d830101604052565b8380935f93604051958692833738935af1156108c15701604052565b60405190602036830101604052816014360181525f602036920137604051601481016040523360601b9052565b7f00000000000000000000000000000000000000000000000000000000000000007f000000000000000000000000000000000000000000000000000000000000000030147f000000000000000000000000000000000000000000000000000000000000000046141615615931575b6719010000000000005f52601a52603a526042601820905f603a52565b5060a06040517f8b73c3c69bb8fe3d512ecc4cf759cc79239f7b179b0ffacaa9a75d522b39400f81527f000000000000000000000000000000000000000000000000000000000000000060208201527f0000000000000000000000000000000000000000000000000000000000000000604082015246606082015230608082015220615914565b60088103615a2857506001600160a01b036102a191166001600160a01b03166001600160a01b03197f0bb70095b32b9671358306b0339b4c06e7cbd8cb82505941fba30d1eb5b82f065416177f0bb70095b32b9671358306b0339b4c06e7cbd8cb82505941fba30d1eb5b82f0655565b600914615a325750565b6001600160a01b036102a191166001600160a01b03166001600160a01b03197f0bb70095b32b9671358306b0339b4c06e7cbd8cb82505941fba30d1eb5b82f055416177f0bb70095b32b9671358306b0339b4c06e7cbd8cb82505941fba30d1eb5b82f0555565b15615aa057565b6064604051635107885760e11b815260206004820152601860248201527f496e76616c696420706172616d44617461206c656e67746800000000000000006044820152fd5b60609060208101615af581614989565b615afe8161497a565b615b425750611d4a915080604061054a920190615b3d615b1e838361202d565b615b38615b2e6060860186613781565b9390923691611ecd565b6160e6565b61202d565b6001615b4d82614989565b615b568161497a565b03615bdb575090505f80615b6d604084018461202d565b5060405180615b878160208581013586018035910161252f565b0391355afa90615b9561253c565b9115615bb357615bac816060611d4a930190613781565b90836160e6565b7f6533cc8d000000000000000000000000000000000000000000000000000000005f5260045ffd5b615be6600291614989565b615bef8161497a565b03615d03576028615c0e615c06604084018461202d565b909214615a99565b6014810135831c9035831c80615c7b575090615c6761383193615c61611d4a9431935b60405192615c5984615c4b88602083019190602083019252565b03601f198101865285611d13565b810190613781565b916160e6565b604051928391602083019190602083019252565b6040517f70a082310000000000000000000000000000000000000000000000000000000081526001600160a01b03929092166004830152909190602090839060249082905afa80156105175761383193615c61615c6792611d4a955f91615ce4575b5093615c31565b615cfd915060203d602011610510576105028183611d13565b5f615cdd565b604051635107885760e11b815260206004820152601a60248201527f496e76616c696420706172616d206665746368657220747970650000000000006044820152606490fd5b9291905f91604051943892602083519301915af1156156a8573d82523d5f602084013e60203d830101604052565b6002111561498457565b3560028110156102035790565b615dd16001600160a01b03916001600160e01b0319165f527f0bb70095b32b9671358306b0339b4c06e7cbd8cb82505941fba30d1eb5b82f0260205260405f2090565b5416151590565b6001600160a01b03811680158015615ef2575b614208575f9081525f5160206163575f395f51905f5260205260409020546001600160a01b0316615ebe5760015f525f5160206163575f395f51905f526020526102a190615e83615e5b7fbdfeb076d903611fa58576955630d640569633049bcf40ad9c22db9251b54a13610df1565b613db5835f5160206163575f395f51905f52906001600160a01b03165f5260205260405f2090565b60015f525f5160206163575f395f51905f526020527fbdfeb076d903611fa58576955630d640569633049bcf40ad9c22db9251b54a13613db5565b7f40d3d1a4000000000000000000000000000000000000000000000000000000005f526001600160a01b031660045260245ffd5b5060018114615deb565b6001600160a01b03811680158015615fe2575b614208575f9081525f5160206163175f395f51905f5260205260409020546001600160a01b0316615ebe5760015f525f5160206163175f395f51905f526020526102a190615fa7615f7f7ffe44ceacbf4f03c6ac19f86826dd265fa9ec25125e8b1766c207f24cd3bc73c7610df1565b613db5835f5160206163175f395f51905f52906001600160a01b03165f5260205260405f2090565b60015f525f5160206163175f395f51905f526020527ffe44ceacbf4f03c6ac19f86826dd265fa9ec25125e8b1766c207f24cd3bc73c7613db5565b5060018114615f0f565b604081360312610203576040519061600382611cf2565b8035600481101561020357825260208101359067ffffffffffffffff82116102035761603191369101611f03565b602082015290565b6004111561498457565b9190826040910312610203576020825192015190565b1561606057565b630a31844b60e41b5f52600360045260245ffd5b1561607b57565b630a31844b60e41b5f52600260045260245ffd5b1561609657565b630a31844b60e41b5f52600160045260245ffd5b156160b157565b630a31844b60e41b5f525f60045260245ffd5b6020815191015190602081106160d8575090565b5f199060200360031b1b1690565b91806160f157505050565b5f5b8181106161005750505050565b61611361610e8284866149ed565b615fec565b9060208160051b8601015191805161612a81616039565b61613381616039565b6161565760019261614a60206161509301516160c4565b146160aa565b016160f3565b6001815161616381616039565b61616c81616039565b0361619057600192616184602061618b9301516160c4565b111561608f565b616150565b6002815161619d81616039565b6161a681616039565b036161c5576001926161be602061618b9301516160c4565b1015616074565b600381516161d281616039565b6161db81616039565b0361621a576001926161fd602061618b93015160208082518301019101616043565b90821015918261620f575b5050616059565b111590505f80616208565b7f2c50c45e000000000000000000000000000000000000000000000000000000005f5260045ffd5b929193905f5b84811061625757505050505050565b60208160051b83010151906001600160a01b03871691604051602081019061628f81613831868b869091604092825260208201520190565b519020833b15610203576040517fa39e0787000000000000000000000000000000000000000000000000000000008152600481019190915260248101919091526001600160a01b0385166044820152915f908390606490829084905af191821561051757600192616302575b5001616248565b806109cc5f61631093611d13565b5f6162fb56fe0bb70095b32b9671358306b0339b4c06e7cbd8cb82505941fba30d1eb5b82f000bb70095b32b9671358306b0339b4c06e7cbd8cb82505941fba30d1eb5b82f030bb70095b32b9671358306b0339b4c06e7cbd8cb82505941fba30d1eb5b82f01a164736f6c634300081b000a","linkReferences":{}},"methodIdentifiers":{"accountId()":"9cfd7cff","addDeposit()":"4a58db19","checkERC7739Support(bytes32,bytes)":"b46b61a9","eip712Domain()":"84b0196e","emergencyUninstallHook((address,uint256,bytes,uint256),bytes)":"5bfeadbb","entryPoint()":"b0d691fe","execute(bytes32,bytes)":"e9ae5c53","executeComposable((bytes4,(uint8,uint8,bytes,(uint8,bytes)[])[],(uint8,bytes)[])[])":"7eba07b8","executeFromExecutor(bytes32,bytes)":"d691c964","executeUserOp((address,uint256,bytes,bytes,bytes32,uint256,bytes32,bytes,bytes),bytes32)":"8dd7712f","getActiveHook()":"0a664dba","getDefaultValidator()":"0b3dc354","getDeposit()":"c399ec88","getExecutorsPaginated(address,uint256)":"ea5f61d0","getFallbackHandlerBySelector(bytes4)":"481ddd23","getImplementation()":"aaf10f42","getValidatorsPaginated(address,uint256)":"5faac46b","initializeAccount(bytes)":"4b6a1419","installModule(uint256,address,bytes)":"9517e29f","isInitialized()":"392e53cd","isModuleInstalled(uint256,address,bytes)":"112d3a7d","isValidSignature(bytes32,bytes)":"1626ba7e","nonce(uint192)":"d86f2b3c","proxiableUUID()":"52d1902d","supportsExecutionMode(bytes32)":"d03c7914","supportsModule(uint256)":"f2dc691d","uninstallModule(uint256,address,bytes)":"a71763a8","upgradeToAndCall(address,bytes)":"4f1ef286","validateUserOp((address,uint256,bytes,bytes,bytes32,uint256,bytes32,bytes,bytes),bytes32,uint256)":"19822f7c","withdrawDepositTo(address,uint256)":"4d44560d"},"id":34}