{"abi":[{"type":"function","name":"deployAndFundNodePaymaster","inputs":[{"name":"entryPoint","type":"address","internalType":"address"},{"name":"owner","type":"address","internalType":"address"},{"name":"workerEoas","type":"address[]","internalType":"address[]"},{"name":"index","type":"uint256","internalType":"uint256"}],"outputs":[{"name":"nodePaymaster","type":"address","internalType":"address"}],"stateMutability":"payable"},{"type":"function","name":"getNodePaymasterAddress","inputs":[{"name":"entryPoint","type":"address","internalType":"address"},{"name":"owner","type":"address","internalType":"address"},{"name":"workerEoas","type":"address[]","internalType":"address[]"},{"name":"index","type":"uint256","internalType":"uint256"}],"outputs":[{"name":"nodePmAddress","type":"address","internalType":"address"}],"stateMutability":"view"},{"type":"function","name":"version","inputs":[],"outputs":[{"name":"_version","type":"string","internalType":"string"}],"stateMutability":"pure"},{"type":"error","name":"NodePMDeployFailed","inputs":[]}],"bytecode":{"object":"0x608080604052346015576118a2908161001a8239f35b5f80fdfe60806040526004361015610011575f80fd5b5f3560e01c806354fd4d5014610044578063847744031461003f5763922d945d1461003a575f80fd5b6102c7565b610149565b346100b9575f3660031901126100b95760405161006081610321565b60058152604060208201917f312e302e3100000000000000000000000000000000000000000000000000000083528151928391602083525180918160208501528484015e5f828201840152601f01601f19168101030190f35b5f80fd5b5f9103126100b957565b35906001600160a01b03821682036100b957565b9060806003198301126100b9576100f260046100c7565b916100fd60246100c7565b9160443567ffffffffffffffff81116100b957826023820112156100b95780600401359267ffffffffffffffff84116100b95760248460051b830101116100b957602401919060643590565b6101a26101c66101c061015b366100db565b949395929690916101b06101728785848c8c6103ee565b986101a261140f9561018660208801610364565b9680885261048760208901396040519485938c60208601610374565b03601f198101835282610342565b60405194859360208501906103d1565b906103d1565b8051906020015ff5916001600160a01b03831680159182156102b3575b505061028b576001600160a01b031690813b156100b9576040517fb760faf90000000000000000000000000000000000000000000000000000000081526001600160a01b0382166004820152915f908390602490829034905af1918215610286576102689261026c575b506040516001600160a01b0390911681529081906020820190565b0390f35b8061027a5f61028093610342565b806100bd565b5f61024d565b6103e3565b7f25ba697b000000000000000000000000000000000000000000000000000000005f5260045ffd5b6001600160a01b0316141590505f806101e3565b346100b95760206102e36102da366100db565b939290926103ee565b6001600160a01b0360405191168152f35b7f4e487b71000000000000000000000000000000000000000000000000000000005f52604160045260245ffd5b6040810190811067ffffffffffffffff82111761033d57604052565b6102f4565b90601f8019910116810190811067ffffffffffffffff82111761033d57604052565b906103726040519283610342565b565b6001600160a01b039182168152911660208201526060604082018190528101839052608001915f5b8181106103a95750505090565b9091926020806001926001600160a01b036103c3886100c7565b16815201940192910161039c565b805191908290602001825e015f815290565b6040513d5f823e3d90fd5b61048394610477936101a261044c610477956104386055966101a26104779b61140f9761041d60208a01610364565b98808a5261048760208b013960405195869460208601610374565b6040519283916101c06020840180976103d1565b5190206040519160ff83533060601b600184015260158301526035820152206001600160a01b031690565b6001600160a01b031690565b9056fe60a08060405261140f80380380916100178285610279565b8339810190606081830312610223578051906001600160a01b038216808303610223576100466020830161029c565b604083015190926001600160401b03821161022357019380601f86011215610223578451946001600160401b038611610265578560051b906040519661008f6020840189610279565b875260208088019282010192831161022357602001905b82821061024d57505050331561023a5760206024916100c4336102b0565b6040516301ffc9a760e01b815263122a0e9b60e31b600482015292839182905afa90811561022f575f916101f0575b50156101ab57610105916080526102b0565b80515f5b8181106101605760405161111890816102f7823960805181818161025b015281816103040152818161040d015281816104950152818161060c01528181610a3601528181610acd01528181610c730152610d340152f35b825181101561019757600190818060a01b0360208260051b86010151165f528160205260405f208260ff1982541617905501610109565b634e487b7160e01b5f52603260045260245ffd5b60405162461bcd60e51b815260206004820152601e60248201527f49456e747279506f696e7420696e74657266616365206d69736d6174636800006044820152606490fd5b90506020813d602011610227575b8161020b60209383610279565b8101031261022357518015158103610223575f6100f3565b5f80fd5b3d91506101fe565b6040513d5f823e3d90fd5b631e4fbdf760e01b5f525f60045260245ffd5b6020809161025a8461029c565b8152019101906100a6565b634e487b7160e01b5f52604160045260245ffd5b601f909101601f19168101906001600160401b0382119082101761026557604052565b51906001600160a01b038216820361022357565b5f80546001600160a01b039283166001600160a01b03198216811783559216907f8be0079c531659141344cd1fd0a4f28419497f9722a3daafe3b4186f6b6457e09080a356fe60806040526004361015610022575b3615610018575f80fd5b610020610c69565b005b5f5f3560e01c80630396cb6014610a9d578063205c287814610a095780632488d784146109c5578063300d8479146108dd57806352b7512c1461083057806354fd4d50146107cb578063715018a6146107655780637c627b211461057857806383e22319146105205780638da5cb5b146104fa5780639bdfeb94146104b9578063b0d691fe14610475578063bb9fe6bf146103e9578063bc300d981461038e578063c23a5cea146102d7578063c399ec881461020e578063cc69d1fd146101c7578063d0e30db0146101b05763f2fde38b146100fe575061000e565b346101ad5760203660031901126101ad576004356001600160a01b0381168091036101ab5761012b610ceb565b801561017f576001600160a01b0382548273ffffffffffffffffffffffffffffffffffffffff198216178455167f8be0079c531659141344cd1fd0a4f28419497f9722a3daafe3b4186f6b6457e08380a380f35b6024827f1e4fbdf700000000000000000000000000000000000000000000000000000000815280600452fd5b505b80fd5b50806003193601126101ad576101c4610c69565b80f35b50346101ad5760203660031901126101ad576004356001600160a01b0381168091036101ab576101f5610ceb565b8152600160205260408120600160ff1982541617905580f35b50346101ad57806003193601126101ad576040517f70a082310000000000000000000000000000000000000000000000000000000081523060048201526020816024816001600160a01b037f0000000000000000000000000000000000000000000000000000000000000000165afa9081156102cc578291610296575b602082604051908152f35b90506020813d6020116102c4575b816102b160209383610be3565b810103126101ab5760209150515f61028b565b3d91506102a4565b6040513d84823e3d90fd5b50346101ad5760203660031901126101ad57806102f2610b55565b6102fa610ceb565b6001600160a01b037f00000000000000000000000000000000000000000000000000000000000000001690813b1561038a576001600160a01b03602484928360405195869485937fc23a5cea0000000000000000000000000000000000000000000000000000000085521660048401525af180156102cc576103795750f35b8161038391610be3565b6101ad5780f35b5050fd5b50346101ad5761039d36610b6b565b6103a5610ceb565b825b8181106103b2578380f35b806001600160a01b036103d06103cb6001948688610c31565b610c55565b168552816020526040852060ff198154169055016103a7565b50346101ad57806003193601126101ad57610402610ceb565b806001600160a01b037f000000000000000000000000000000000000000000000000000000000000000016803b15610472578180916004604051809481937fbb9fe6bf0000000000000000000000000000000000000000000000000000000083525af180156102cc576103795750f35b50fd5b50346101ad57806003193601126101ad5760206040516001600160a01b037f0000000000000000000000000000000000000000000000000000000000000000168152f35b50346101ad5760203660031901126101ad576004356001600160a01b0381168091036101ab5760408260ff9260209452600184522054166040519015158152f35b50346101ad57806003193601126101ad576001600160a01b036020915416604051908152f35b50346101ad5761052f36610b6b565b610537610ceb565b825b818110610544578380f35b806001600160a01b0361055d6103cb6001948688610c31565b16855281602052604085208260ff1982541617905501610539565b50346101ad5760803660031901126101ad57600360043510156101ad576024359067ffffffffffffffff82116101ad57366023830112156101ad5781600401359167ffffffffffffffff83116101ab576024810192366024828401011161076157604435936064356105e8610d2a565b8493859380610677575b5050505082935081610602575050f35b6001600160a01b037f00000000000000000000000000000000000000000000000000000000000000001691823b156106725760405163040b850f60e31b81526001600160a01b0392909216600483015260248201529082908290604490829084905af180156102cc576103795750f35b505050fd5b92945090925090605481036106d157506106a684956106a08694605860388601359501356110a7565b906110ce565b908082106106c0575b5050903560601c5b5f8080806105f2565b6106ca92506110db565b5f806106af565b919491606c810361073657506107116106a0605061070987986107048997603888013560401c95869360708a01356110a7565b6110e8565b9301356110e8565b808210610725575b5050903560601c6106b7565b61072f92506110db565b5f80610719565b7f6eb313c6000000000000000000000000000000000000000000000000000000008552600452602484fd5b8280fd5b50346101ad57806003193601126101ad5761077e610ceb565b806001600160a01b03815473ffffffffffffffffffffffffffffffffffffffff1981168355167f8be0079c531659141344cd1fd0a4f28419497f9722a3daafe3b4186f6b6457e08280a380f35b50346101ad57806003193601126101ad575061082c6040516107ee604082610be3565b600581527f312e302e310000000000000000000000000000000000000000000000000000006020820152604051918291602083526020830190610bbf565b0390f35b50346101ad5760603660031901126101ad5760043567ffffffffffffffff81116101ab5761012060031982360301126101ab57906108b391610870610d2a565b6060916001600160a01b0381541632149081156108c5575b50156108bd5761089f915060443590600401610ded565b604051928392604084526040840190610bbf565b9060208301520390f35b50600161089f565b60ff915060409032815260016020522054165f610888565b50346101ad576108ec36610b6b565b906108f682610c19565b906109046040519283610be3565b82825261091083610c19565b602083019390601f1901368537845b81811061096d5750505090604051928392602084019060208552518091526040840192915b818110610952575050500390f35b82511515845285945060209384019390920191600101610944565b6001600160a01b036109836103cb838587610c31565b168652600160205260ff60408720541684518210156109b1571515600582901b85016020015260010161091f565b602487634e487b7160e01b81526032600452fd5b50346101ad5760203660031901126101ad576004356001600160a01b0381168091036101ab576109f3610ceb565b8152600160205260408120805460ff1916905580f35b50346101ad5760403660031901126101ad5780610a24610b55565b610a2c610ceb565b6001600160a01b037f000000000000000000000000000000000000000000000000000000000000000016803b1561038a5760405163040b850f60e31b81526001600160a01b03929092166004830152602480359083015282908290604490829084905af180156102cc576103795750f35b506020366003190112610b515760043563ffffffff8116809103610b5157610ac3610ceb565b6001600160a01b037f00000000000000000000000000000000000000000000000000000000000000001690813b15610b51575f906024604051809481937f0396cb60000000000000000000000000000000000000000000000000000000008352600483015234905af18015610b4657610b3a575080f35b61002091505f90610be3565b6040513d5f823e3d90fd5b5f80fd5b600435906001600160a01b0382168203610b5157565b906020600319830112610b515760043567ffffffffffffffff8111610b515782602382011215610b515780600401359267ffffffffffffffff8411610b515760248460051b83010111610b51576024019190565b805180835260209291819084018484015e5f828201840152601f01601f1916010190565b90601f8019910116810190811067ffffffffffffffff821117610c0557604052565b634e487b7160e01b5f52604160045260245ffd5b67ffffffffffffffff8111610c055760051b60200190565b9190811015610c415760051b0190565b634e487b7160e01b5f52603260045260245ffd5b356001600160a01b0381168103610b515790565b6001600160a01b037f000000000000000000000000000000000000000000000000000000000000000016803b15610b51575f602491604051928380927fb760faf900000000000000000000000000000000000000000000000000000000825230600483015234905af18015610b4657610cdf5750565b5f610ce991610be3565b565b6001600160a01b035f54163303610cfe57565b7f118cdaa7000000000000000000000000000000000000000000000000000000005f523360045260245ffd5b6001600160a01b037f0000000000000000000000000000000000000000000000000000000000000000163303610d5c57565b60646040517f08c379a000000000000000000000000000000000000000000000000000000000815260206004820152601560248201527f53656e646572206e6f7420456e747279506f696e7400000000000000000000006044820152fd5b903590601e1981360301821215610b51570180359067ffffffffffffffff8211610b5157602001918136038313610b5157565b60e0810191610dfc8383610dba565b5060348101357fffffffff000000000000000000000000000000000000000000000000000000001692907f170de002000000000000000000000000000000000000000000000000000000008403610e68575050505050604051610e60602082610be3565b5f8152905f90565b6038810135937f170de000000000000000000000000000000000000000000000000000000000008103611006575050610ea081610c55565b935b610eac8183610dba565b603492919211610b51576024610ec792013560801c92610dba565b509160405160208101956bffffffffffffffffffffffff199060601b16865260148152610ef5603482610be3565b7fffffffff000000000000000000000000000000000000000000000000000000008195167f9ee4ce000000000000000000000000000000000000000000000000000000000081145f14610f9657505060209450926058928592610f91956040519784899551918291018787015e840192603c67ffffffffffffffff19910135168584015260388301528482015203016038810184520182610be3565b905f90565b909450909250639ee4ce0160e01b8103610fdb5750610f919260409260209284519687935180918686015e830191848301528482015203016020810184520182610be3565b7ffb96c33d000000000000000000000000000000000000000000000000000000005f5260045260245ffd5b7f170de00100000000000000000000000000000000000000000000000000000000810361107c57506034907fffffffff000000000000000000000000000000000000000000000000000000008516639ee4ce0160e01b036110735760ff60085b1601013560601c93610ea2565b60ff6020611066565b7f83aa2c17000000000000000000000000000000000000000000000000000000005f5260045260245ffd5b818102929181159184041417156110ba57565b634e487b7160e01b5f52601160045260245ffd5b919082018092116110ba57565b919082039182116110ba57565b906298968001908162989680116110ba576298968091611107916110a7565b049056fea164736f6c634300081b000aa164736f6c634300081b000a","linkReferences":{}},"methodIdentifiers":{"deployAndFundNodePaymaster(address,address,address[],uint256)":"84774403","getNodePaymasterAddress(address,address,address[],uint256)":"922d945d","version()":"54fd4d50"},"id":45}